:020000022000DC
:10D00000B0130120B5D20200DDD202009DEC020077
:10D01000E1D20200E3D20200E5D2020000000000EB
:10D02000000000000000000000000000E7D2020045
:10D03000E9D2020000000000EBD20200EDD20200B3
:10D04000EFD20200EFD20200A5FB0200EFD20200F5
:10D05000EFD20200EFD20200BDF80200EFD20200D0
:10D06000EFD20200EFD20200EFD20200EFD20200B4
:10D07000EFD20200EFD20200EFD20200EFD20200A4
:10D08000EFD202007DEA0200EFD20200EFD20200EE
:10D09000BDEA0200EFD20200F50B0300EFD202005E
:10D0A000EFD20200EFD20200EFD20200EFD2020074
:10D0B000EFD20200EFD202000000000000000000EA
:10D0C000EFD20200EFD20200EFD20200EFD2020054
:10D0D000EFD20200EFD20200EFD202000000000007
:10D0E0000000000000000000000000000000000040
:10D0F0000000000000000000000000000000000030
:10D10000000000000000000000000000000000001F
:10D11000000000000000000000000000000000000F
:10D1200000000000000000000000000000000000FF
:10D1300000000000000000000000000000000000EF
:10D1400000000000000000000000000000000000DF
:10D1500000000000000000000000000000000000CF
:10D1600000000000000000000000000000000000BF
:10D1700000000000000000000000000000000000AF
:10D18000000000000000000000000000000000009F
:10D19000000000000000000000000000000000008F
:10D1A000000000000000000000000000000000007F
:10D1B000000000000000000000000000000000006F
:10D1C000000000000000000000000000000000005F
:10D1D000000000000000000000000000000000004F
:10D1E000000000000000000000000000000000003F
:10D1F000000000000000000000000000000000002F
:10D2000010B5054C237833B9044B13B10448AFF380
:10D2100000800123237010BD482000200000000082
:10D220005C21030008B5034B1BB103490348AFF36E
:10D23000008008BD000000004C2000205C2103009D
:10D24000154B002B08BF134B9D46A3F5803A0021D8
:10D250008B460F461348144A121A03F078FD0F4B01
:10D26000002B00D098470E4B002B00D09847002091
:10D27000002104000D000D48002802D00C48AFF337
:10D28000008003F035FD2000290003F00CF903F0C5
:10D290001BFD00BF00000800B013012000000000CB
:10D2A0000000000048200020FC27002000000000B3
:10D2B000000000000649074A074B9B1A03DD043BA8
:10D2C000C858D050FBDC03F02FF9FFF7B9FF00007E
:10D2D0001C220300301F002048200020FEE7FEE74C
:10D2E000FEE7FEE7FEE7FEE7FEE7FEE7FEE7FEE716
:10D2F00080B582B000AF786039607B681B681B68BE
:10D3000039687868984700BF0837BD4680BD80B54A
:10D3100082B000AF78607B681B685B68786898476C
:10D3200000BF0837BD4680BD80B582B000AF7860D1
:10D330007B681B689B687868984700BF0837BD46C4
:10D3400080BD80B483B000AF78607B6801225A72E0
:10D3500000BF0C37BD465DF8047B704780B483B0D6
:10D3600000AF78607B685B7A18460C37BD465DF885
:10D37000047B704780B485B000AF786039600023CB
:10D38000FB737B681B7803F00303DBB2002B06D032
:10D390007B681B7803F00403DBB2002B3CD07B6876
:10D3A0001B7803F00403DBB2002B21D07B681B78D1
:10D3B000C3F30103DBB2012B02D0022B0CD029E016
:10D3C0003B681B687A681288C2F38312D2B2134496
:10D3D0009A1C3B681A601DE03B681B687A6852889B
:10D3E000C2F3891292B213449A1C3B681A6011E08E
:10D3F0003B681A687B685B88C3F389139BB2194644
:10D400007B681B88C3F389139BB20B4413445A1CDB
:10D410003B681A600123FB73FB7B18461437BD463B
:10D420005DF8047B7047000080B58AB000AF002330
:10D43000FB84384801F0AEFD374801F0ABFD374BB7
:10D440005B683B61354B9B68BB613A69BB691340C4
:10D4500002339B00314A134404333B6207F110034B
:10D460001946386AFFF786FF0346002B09D03A6950
:10D47000BB69134002339B00284A134404333B62C8
:10D48000ECE700BF0023FB6111E03B695A1C3A61E5
:10D49000BA691340FA699200391D0A441F490233E0
:10D4A0009B000B445B681360FB690133FB61FB6904
:10D4B000012BEAD93B79C3F30103DBB2012B0ED078
:10D4C000022B00D016E07B89FB84FB88C3F3891311
:10D4D0009BB203339A083B6913443B610AE07B89A2
:10D4E000FB84BB88C3F38313DBB21A463B69134446
:10D4F0003B6100BF084801F05AFD78617B69002B51
:10D5000002D03B69054A5360FB8C18462837BD465C
:10D5100080BD00BF4C25002048250020342100207C
:10D5200080B584B000AF0021074801F0B7FCF86077
:10D53000FB68BB60BB6883F310037B607B681846A5
:10D540001037BD4680BD00BF5025002080B588B093
:10D5500000AFF860B9607A603B60FB681B0CBB6190
:10D56000FFF7DEFFF861FB6919043B685A1CBB6AD0
:10D570001340BA690A431B4902339B000B445A60AB
:10D580003A68BB6A134002339B00164A13440433C3
:10D590007B61FB6803F00703D9B27A69137861F302
:10D5A000C50313707B6803F00F03D9B27A6913883F
:10D5B00061F389131380BB68C3F315017A6913689B
:10D5C00061F39F2313607A691378012161F30103EA
:10D5D00013707A6913786FF38203137000BF2037DA
:10D5E000BD4680BD3421002080B58CB000AFF8600E
:10D5F000B9601346FB71FB680233BB62012387F8F5
:10D6000027300023FB7607F11B03184601F02EFBA1
:10D61000384B1A68BB681A60364B9A68354B5968A4
:10D62000344B1B68CB1A13440133FB6214E0012115
:10D63000314801F07DFCFFF7F7FEF861F9692E48EB
:10D6400001F076FC2B4B9A682A4B5968294B1B68D2
:10D65000CB1A13440133FB62BA6AFB6A9A42E6D8DA
:10D6600097F82730002B3BD000237B61FB79002B00
:10D6700011D03B7D012262F301033B753B7D43F0FA
:10D6800004033B75FB6803F00F03DAB2BB8A62F355
:10D690008913BB8210E03B7D022262F301033B75DC
:10D6A0003B7D43F004033B75FB68C3F309039AB267
:10D6B000FB8A62F38F13FB820E4B1A680D4B9B683B
:10D6C000134002339B000B4A134404333B627A69D4
:10D6D0003B6A1A60074B1A68BB6A1344054A136019
:10D6E000FB7E184601F0CDFA97F827301846303700
:10D6F000BD4680BD342100205025002080B58AB071
:10D7000002AFF860B9607A603B60204B9B687B6138
:10D7100007F11003012219463868FFF765FF034639
:10D72000002B24D03B690233FB610023BB6111E075
:10D73000BB699B007A681A44FB69591CF9617969D5
:10D740000B401268114902339B000B445A60BB69BD
:10D750000133BB61BA693B689A42E9D33A697B6994
:10D76000009313463A68B968F868FFF7EFFE074B75
:10D7700093F82034002B05D000BF00F0A1F8034639
:10D78000002BFAD100BF2037BD4680BD34210020D8
:10D7900080B582B000AF786039600023002239681C
:10D7A0007868FFF7ABFF00BF0837BD4680BD80B586
:10D7B00086B000AFF860B9607A607B687B6107F182
:10D7C00014020123B968F868FFF798FF00BF183703
:10D7D000BD4680BD80B586B000AFF860B9607A60A4
:10D7E0003B607B683B613B687B6107F11002022371
:10D7F000B968F868FFF782FF00BF1837BD4680BDE3
:10D8000080B588B000AFF860B9607A603B607B6833
:10D810007B613B68BB61BB6AFB6107F114020323B8
:10D82000B968F868FFF76AFF00BF2037BD4680BDC2
:10D8300080B588B000AFF860B9607A603B607B6803
:10D840003B613B687B61BB6ABB61FB6AFB6107F1C3
:10D8500010020423B968F868FFF750FF00BF2037B3
:10D86000BD4680BD80B58AB000AFF860B9607A600F
:10D870003B607B687B613B68BB613B6BFB617B6BA7
:10D880003B62BB6B7B6207F114020523B968F86841
:10D89000FFF734FF00BF2837BD4680BD80B400AF1E
:10D8A000064B5A68054B1B689A420CBF01230023A4
:10D8B000DBB21846BD465DF8047B7047342100207A
:10D8C00080B598B000AFFFF7E9FF0346002B01D009
:10D8D0000023A1E1904B0022C3F81824BFF34F8F1F
:10D8E0008D4B5B683B618C4B9B683B643A693B6C3E
:10D8F000134002339B00884A13440433BB64002363
:10D90000FB650023BB650023FB6307F11003194689
:10D91000B86CFFF72FFD0346002B14D07E4B1A681E
:10D920003B699A4205D87C4B1B687B4A53600023B5
:10D9300072E13A693B6C134002339B00764A134410
:10D940000433BB64E1E700BF00237B6511E03B6962
:10D950005A1C3A613A6C13407A6D9200391D0A44A0
:10D960006D4902339B000B445B6813607B6D013390
:10D970007B657B6D012BEAD93B7903F00303DBB2B6
:10D98000022B40F09280FB88C3F389139BB27B6328
:10D99000FB88C3F389139BB2502B28BF50239BB243
:10D9A0003B633B6BC3F309039AB2FB8862F38F13AB
:10D9B000FB803B6B0833FB623B79C3F3C203DBB2F2
:10D9C000FB63F96A554801F083FBF865FB6D002B9A
:10D9D00000F0C580F86D01F008FC391DBB6D082210
:10D9E000F86D01F0A2FCBB6D0833BB653B69DA43FF
:10D9F0003B6C134001339B00BB623A6BBB6A9A429B
:10DA00003DD9BB6A002B08D03A693B6C1340023306
:10DA10009B00414A1344043300E0414B3B62BB6A24
:10DA2000002B02D0BB6ADBB201E03B6BDBB2FB77C1
:10DA3000BB6A002B01D03A4B00E00023BB61BB6AFC
:10DA4000002B06D03B6BDAB2BB6ADBB2D31ADBB277
:10DA500000E00023FB75FA7FBB6D396AF86D01F0B9
:10DA600064FCFB7FBA6D1344BB65BB69002B15D00A
:10DA7000FA7DBB6DB969F86D01F057FC0EE03A69AB
:10DA80003B6C134002339B00234A134404337B62F4
:10DA9000BB6D3A6B796AF86D01F047FC7B6B033321
:10DAA0009A083B6913443B6159E03B7903F0030357
:10DAB000DBB2012B53D1BB88C3F38313DBB2062B3C
:10DAC00028BF0623DAB2BB8862F38913BB80BB8808
:10DAD000C3F38313DBB20233BB633B79C3F3C203EB
:10DAE000DBB2FB63BB6B9B0019460C4801F0F0FAFC
:10DAF000F865FB6D002B32D0F86D01F076FB391D17
:10DB0000BB6D0822F86D01F010FCBB6D0833BB65DE
:10DB100000237B651BE000BF34210020E0210300CF
:10DB2000402100203B695A1C3A613A6C1340023391
:10DB30009B003B4A1344191DBB6D0422F86D01F094
:10DB4000F4FBBB6D0433BB657B6D01337B65BB8828
:10DB5000C3F38313DBB21A467B6D9342E2D3FB6DB2
:10DB6000002B3CD02E4BD3F810343B652C4BD3F814
:10DB70001834002B1AD0F86D01F047FB46E0002363
:10DB800087F84F30386DFFF7E9FB0346002B02D0D2
:10DB9000012387F84F3097F84F30002B03D0F96DF1
:10DBA000386DFFF7A5FB3B6D5B683B653B6D002B5C
:10DBB000E5D1F86D01F029FB0023FB70FB1C184632
:10DBC00001F054F8164BD3F81834002B02D13B69FE
:10DBD000134A5360FB78184601F053F816E0104BD7
:10DBE000D3F810347B6405E0786CFFF79DFB7B6C09
:10DBF0005B687B647B6C002BF6D10A4B1B881B0493
:10DC000043F0020308491846FFF7C2FDFFF746FE3E
:10DC1000034683F00103DBB218466037BD4680BD82
:10DC200034210020302000209410030080B582B001
:10DC300000AF0C4BD3F810347B600A4B012283F801
:10DC4000202408E07868FFF77CFB7868FFF75FFB2B
:10DC50007B685B687B607B68002BF3D100BF083773
:10DC6000BD4680BD3421002080B483B000AF786011
:10DC70004FF0A04318460C37BD465DF8047B704753
:10DC800080B584B000AF78603B1D1846FFF7ECFF0D
:10DC9000F8607B68012202FA03F31946F86800F085
:10DCA00072F800BF1037BD4680BD80B584B000AFAC
:10DCB00078603B1D1846FFF7D7FFF8607B680122AC
:10DCC00002FA03F31946F86800F06CF800BF103749
:10DCD000BD4680BD80B584B000AF78603B1D18465E
:10DCE000FFF7C2FFF860FB68D3F80435BB60BB6880
:10DCF000DA437B68012101FA03F31A40FB68C3F899
:10DD000008257B6801229A40BB681A40FB68C3F86B
:10DD10000C2500BF1037BD4680BD80B582B000AF76
:10DD2000786039603B68002B03D17868FFF7BDFF4E
:10DD300002E07868FFF7A4FF00BF0837BD4680BD4A
:10DD400080B584B000AF78603B1D1846FFF78CFFAC
:10DD5000F860F86800F00AF802467B6822FA03F3DC
:10DD600003F0010318461037BD4680BD80B483B070
:10DD700000AF78607B68D3F8043518460C37BD4691
:10DD80005DF8047B704780B483B000AF7860396081
:10DD90007B683A68C3F8082500BF0C37BD465DF8BC
:10DDA000047B704780B483B000AF786039607B68D3
:10DDB0003A68C3F80C2500BF0C37BD465DF8047BFC
:10DDC0007047000080B584B000AF78600E4A7B6871
:10DDD00013441B781846FFF7B3FF0346002B14BF0C
:10DDE00001230023FB73FB7B002B14BF01230023C3
:10DDF000DBB283F00103DBB203F00103DBB21846B0
:10DE00001037BD4680BD00BFA810030080B582B0AA
:10DE100000AF7860054A7B6813441B7800211846E0
:10DE2000FFF77BFF00BF0837BD4680BDA810030089
:10DE300080B582B000AF7860054A7B6813441B78D8
:10DE400001211846FFF769FF00BF0837BD4680BDB6
:10DE5000A810030080B582B000AF00237B6005E00E
:10DE60007868FFF7E5FF7B6801337B607B68032BF5
:10DE7000F6D900BF0837BD4680BD80B582B000AF7F
:10DE800000237B6005E07868FFF7C0FF7B68013303
:10DE90007B607B68032BF6D900BF0837BD4680BD89
:10DEA00080B582B000AF7860054A7B6813441B7868
:10DEB0001846FFF70FFF00BF0837BD4680BD00BF03
:10DEC000A810030080B487B000AFF860B9607A6032
:10DED0000123FB75FB7D204AFB6813601E4ABB686B
:10DEE00053601D4A7B689360FB6844F201029342D1
:10DEF00012D044F20202934221D17B68164AD360C9
:10DF0000154BDB681B881A46134B9A61124BDB6872
:10DF10005B68114AD36112E07B680F4A13610E4BB4
:10DF20001B699B680C4A53610B4B1B691B680A4AAF
:10DF30009361094B1B695B68074AD36100BF72B6E6
:10DF400000BFFB7DDBB2002BFBD162B600BF1C37EC
:10DF5000BD465DF8047B70475825002000B583B0AE
:10DF600002900091019244F2010071466A4600F06D
:10DF700003F803B000BD00BFB0B58AB004AFF860CD
:10DF8000B9607A6072B6FFF751FE00BFFFF798FCE8
:10DF90000346002BFAD1FB6841F20102934219D0EB
:10DFA00041F20102934202D8012B09D057E044F21A
:10DFB0000102934229D044F20202934214D04EE06F
:10DFC000344B1B881B0443F0010333491846FFF709
:10DFD000DFFB4FE02F4B1B881B0443F001032F494D
:10DFE0001846FFF7D5FB45E07B687B61294B1B8812
:10DFF0001B0443F0010318467B695B681A467B6982
:10E000001B882749FFF7E6FB34E07B683B61214B27
:10E010001B881B0443F001031D463B699C683B6958
:10E020009B68184601F098FA034618463B695B68FE
:10E0300019463B691B68BA68029201930091034636
:10E04000224618492846FFF70DFC124B1B881B047B
:10E0500043F0010314491846FFF79AFB0AE00D4B01
:10E060001B881B0443F00103BA6810491846FFF7E8
:10E070009EFB00BF0E4B1B6803F00103002B00D07A
:10E0800000BE7A68B968F868FFF71CFF00BF183750
:10E09000BD46B0BD30200020AC100300CC10030002
:10E0A000F01003000C1103003411030048110300A9
:10E0B000F0ED00E080B483B000AF0346FB71FB7964
:10E0C00003F01F02074997F907305B09012000FAA6
:10E0D00002F241F8232000BF0C37BD465DF8047BF7
:10E0E000704700BF00E100E080B483B000AF03469A
:10E0F000FB71FB7903F01F02074997F907305B09B1
:10E10000012000FA02F2203341F8232000BF0C372F
:10E11000BD465DF8047B704700E100E080B483B049
:10E1200000AF0346FB71FB7903F01F02074997F923
:10E1300007305B09012000FA02F2403341F8232046
:10E1400000BF0C37BD465DF8047B704700E100E07E
:10E1500080B483B000AF0346FB71FB7903F01F026C
:10E16000074997F907305B09012000FA02F2603392
:10E1700041F8232000BF0C37BD465DF8047B704793
:10E1800000E100E080B584B000AF78607B68002BD0
:10E190000AD0074B43F00103FB607B689B01BB6027
:10E1A000FB68B868984700E000BF1037BD4680BDE7
:10E1B0006011030080B500AF0D4B4FF48032C3F8FF
:10E1C00044230B4B4FF48032C3F804231120FFF794
:10E1D000BFFF1120FFF76EFF054B01221A602F20B1
:10E1E000FFF7D0FF034B01221A7000BF80BD00BFB4
:10E1F000001001409626002080B500AF1120FFF7E7
:10E2000073FF0F4B4FF48032C3F848230C4B4FF48D
:10E210008032C3F808230A4B01225A602F20FFF7EF
:10E22000B1FF074B01229A60064B00221A602F2093
:10E23000FFF7A8FF044B00221A7000BF80BD00BF8B
:10E2400000100140882600209626002080B400AFF0
:10E25000034BD3F804351846BD465DF8047B704780
:10E260000010014080B483B000AF786039607A68F4
:10E270003B68D31A23F07F4318460C37BD465DF840
:10E28000047B704780B483B000AF7860044A7B6839
:10E29000C2F8403500BF0C37BD465DF8047B7047BF
:10E2A0000010014080B487B000AF7860294B1B6834
:10E2B000002B03D1274A7B68136045E07B681A680E
:10E2C000244B1B681B689A4210D8224B1B681968A4
:10E2D0007B681A681F4B1B688A1A1A601D4B1A68E4
:10E2E0007B68DA611B4A7B6813602DE07B681B68E2
:10E2F000FB60184B1B687B61164B1B683B6109E098
:10E300003B691B68FA68D31AFB603B697B613B6918
:10E31000DB693B613B69002B04D03B691B68FA68F1
:10E320009A42EDD83B69002B05D03B691A68FB681F
:10E33000D21A3B691A607B68FA681A607B683A698E
:10E34000DA617B697A68DA6100BF1C37BD465DF827
:10E35000047B70478426002080B586B000AF7860CB
:10E36000294B1B68FB60284B1B687B617B693B6109
:10E3700008E03A697B689A4208D03B697B613B6957
:10E38000DB693B613B69002BF3D100E000BF3B69D7
:10E39000002B01D1002333E07A693B699A4214D102
:10E3A000194B1B68DB69184A1360174B1B68002B5D
:10E3B0000BD1164B01229A60154B00221A60154BA7
:10E3C00001221A702F20FFF7DDFE3B691B68BB603E
:10E3D0003B69DA697B69DA617B69DB693B613B69CF
:10E3E000002B05D03B691A68BB681A443B691A6068
:10E3F000054B1B68FA689A4214BF01230023DBB265
:10E4000018461837BD4680BD842600200010014004
:10E41000882600209726002080B500AF1120FFF746
:10E420007DFE00BF80BD80B500AF1420FFF776FEF3
:10E4300000BF80BD80B582B000AF78607B685B694B
:10E440007A6892691046984700BF0837BD4680BD7C
:10E4500080B584B000AF2B4B1B68002B4ED000233F
:10E460007B60FFF7F3FE0246274B1B6819461046F8
:10E47000FFF7F8FEB860234B1B68FB601DE0FB68EC
:10E480001B68BA689A421CD3FB681B68BA68D31A27
:10E49000BB60FB681B687A6813447B60FB683B6069
:10E4A000FB68DB69FB603B681B7C002B05D03B688D
:10E4B00000221A743868FFF7BDFFFB68002BDED11D
:10E4C00000E000BF114B1A78114B1B789A420CD117
:10E4D0000F4B1B780133DAB20D4B1A700C4B1B78C3
:10E4E000022B02D10A4B00221A70094B1B781946E5
:10E4F000084A7B6842F82130FFF795FF00BF1037CC
:10E50000BD4680BD84260020882600209426002059
:10E51000952600208C26002080B483B000AF786060
:10E52000194B1A78194B1B789A4223D0164B1B783B
:10E530000133DAB2144B1A70134B1B78022B02D141
:10E54000114B00221A70104B1B781A46104B53F8CF
:10E5500022207B681A607B681A680E4B1B68134484
:10E560000C4A13600B4B1B6823F07F43094A13606E
:10E57000012303E07B6800221A60002318460C3751
:10E58000BD465DF8047B7047942600209526002048
:10E590008C2600208826002080B489B000AFF86067
:10E5A000B9607A600023FB6138E0214B1B68BB61D6
:10E5B000BB691B68FA689A4206D2BB691A68FB6895
:10E5C000D21ABB691A602DE0BB691B68FA68D31ABE
:10E5D000FB60BB691B68FA691344FB61BB690022DD
:10E5E0001A60134B1B687B61BB69DB69104A1360BF
:10E5F000BB69DB68002B11D0BA68FB69134423F0B8
:10E600007F42BB695A60BB69DA68BB699A607B6804
:10E610001A68BB69DA617B687A691A60044B1B6807
:10E62000002BC2D100BF2437BD465DF8047B704784
:10E630008426002080B588B000AF78600023FB7787
:10E64000654B1B687B61A9E07B68002B05D07B686C
:10E65000BB61BB69DB697B6060E0604B1B781A467D
:10E6600013465B001344DB005C4A134404333B61F4
:10E670005A4B1B780133DAB2584B1A70574B1A7841
:10E68000564B9B789A4202D1544B00221A703B6938
:10E690005B68BB613B691B78022B04D0032B1AD04B
:10E6A000012B1ED01CE03B695B681846FFF754FE47
:10E6B0000346002B01D00123FB77BB6900221A74AB
:10E6C0006CE0454B1B68FB60FB6800221A74FB681A
:10E6D000DB69414A1360404B1B68002BF1D15DE0C0
:10E6E0005CE000BFBB691B7C002B00D056E03B699F
:10E6F0009A68BB695A603B69DA68BB699A603B6992
:10E700001A69BB69DA603B695A69BB699A61344B23
:10E710001B78002B02D0BB6900225A60BB695A6883
:10E72000304B1B68D31A23F07F432F4A93420ED8F5
:10E73000BB695A682B4B1B6819461046FFF792FDC0
:10E740000246BB699B681A44BB691A6017E0254BF7
:10E750001A68BB695B6819461046FFF783FDB8600D
:10E76000BB699B68BA689A4206D2BB699A68BB6863
:10E77000D21ABB691A6002E0BB6900221A60BB6949
:10E7800000225A60BB6900229A60BB6901221A7498
:10E79000BB690022DA61B869FFF784FD7B68002B52
:10E7A0007FF452AF0D4B1A780C4B5B789A427FF492
:10E7B0004BAFFB7F002B04D1074B1B687A699A4251
:10E7C00001D0012300E0002303F00103DBB218466F
:10E7D0002037BD4680BD00BF84260020782500205C
:10E7E0009726002088260020FEFF7F0090B589B084
:10E7F00000AF7860274B1B68002B44D0254B1B686B
:10E800001B68FB61FFF722FDB861234B1B687B612E
:10E810007969B869FFF726FD034603333B611F4B57
:10E820001B7883F00103DBB2002B01D0FFF7C2FCA1
:10E830003A69FB69934238BF13467A6913447B6196
:10E840007B6923F07F437B617869FFF71BFDFFF74E
:10E85000FDFCF860B969F868FFF704FD0346DC1CAD
:10E86000B9697869FFF7FEFC03469C420DD9FFF7B2
:10E87000EDFC03461846FFF705FD2F20FFF782FC4D
:10E88000FFF7CAFD01E0FFF7B7FC00BF2437BD4624
:10E8900090BD00BF842600208826002096260020F8
:10E8A00080B586B000AF00237B600023FB75164B5C
:10E8B0001B683B61154B1B68FB603B461846FFF726
:10E8C0002BFE0346FB72FB7A002B07D03B683A1DF8
:10E8D00039691846FFF760FE0123FB757B6818460F
:10E8E000FFF7A8FE0346002B01D00123FB75FB7D3B
:10E8F000002B02D0F868FFF779FF054B00221A7051
:10E9000000BF1837BD4680BD882600208426002021
:10E910009726002080B483B000AF0346FB71044A01
:10E92000FB79537000BF0C37BD465DF8047B704720
:10E930007825002080B485B000AF7860134B5B78F9
:10E940000133FB73114B9B78FA7B9A4201D1002370
:10E95000FB730E4B1B78FA7B9A4201D100230EE029
:10E960007B68FA7B1A70094B5B781A4613465B008A
:10E970001344DB00054A13440433BB60BB681846EC
:10E980001437BD465DF8047B704700BF7825002032
:10E9900080B588B000AFF860B9607A603B60002352
:10E9A000FB610023BB7507F11603184600F05EF902
:10E9B00007F117031846FFF7BDFFB861BB69002BCD
:10E9C00002D10423FB6117E0BB6901221A70BB6905
:10E9D000FA685A60FFF73AFC0246BB699A60BB6965
:10E9E000BA68DA60BB697A681A61BB693A685A61C9
:10E9F000FB7D1846FFF78EFFBB7D184600F041F9FE
:10EA0000FB69002B01D1FFF70EFDFB69184620378B
:10EA1000BD4680BD80B586B000AF78600B46FB7008
:10EA200000237B610023BB7307F10E03184600F03F
:10EA30001DF907F10F031846FFF77CFF38613B69AA
:10EA4000002B02D104237B6109E03B69FA781A703C
:10EA50003B697A685A60FB7B1846FFF75BFFBB7B1C
:10EA6000184600F00EF97B69002B01D1FFF7DBFCA3
:10EA70007B6918461837BD4680BD000080B500AFE1
:10EA80000D4B0022C3F840210B4B0022C3F8442158
:10EA9000094B0022C3F84821074B0022C3F84C2140
:10EAA000054B0022C3F80021034B0022C3F80421C8
:10EAB000FFF7CEFC00BF80BD0010014080B500AF65
:10EAC000FFF7EEFE00BF80BD80B586B000AFF860F6
:10EAD000B9607A60FB687B61144B9B78002B01D195
:10EAE00008231EE0FB68002B01D1082319E0BB6856
:10EAF000042B01D8072314E07B695B69002B01D14B
:10EB000008230EE07B695B7C012B01D1BB6800E030
:10EB100000233B617B683A69B9687869FFF738FF81
:10EB2000034618461837BD4680BD00BF7825002033
:10EB300080B584B000AF78607B68FB600D4B9B783C
:10EB4000002B01D1082310E07B68002B03D0FB6869
:10EB50005B69002B01D1082307E0FB6800221A74CF
:10EB60000221F868FFF756FF034618461037BD46E6
:10EB700080BD00BF7825002080B483B000AFEFF3E4
:10EB800010833B603B687B6072B67B6818460C372D
:10EB9000BD465DF8047B704780B400AF62B600BF2D
:10EBA000BD465DF8047B704780B584B000AF7860E7
:10EBB000FFF7E2FFF860164B9B68002B1BD1144B4C
:10EBC00001229A60134BD3F88020134B1340104A54
:10EBD0001360104B104AC3F880200E4BD3F88430DA
:10EBE0000B4A53600B4B4FF0FF32C3F884207B6815
:10EBF00000221A7002E07B6801221A70FB68002B69
:10EC000001D1FFF7C9FF002318461037BD4680BD6C
:10EC1000F027002000E100E0FC06FFBD80B584B0D5
:10EC200000AF0346FB710F4B9B68002B15D0FB799F
:10EC3000002B12D1FFF7A0FFF8600B4A094B1B68AD
:10EC40001360094A074B5B685360064B00229A60C9
:10EC5000FB68002B01D1FFF79FFF002318461037F8
:10EC6000BD4680BDF027002000E100E080B582B005
:10EC700000AF78607868FFF797FF00BF0837BD46A0
:10EC800080BD80B582B000AF0346FB71FB791846AA
:10EC9000FFF7C4FF00BF0837BD4680BD1EF0040F5C
:10ECA0001CBFEFF309800AE0EFF308800849094A26
:10ECB000884201D8904202D88D464FF000006B4642
:10ECC000854608B5044B9847BDE808409D46704707
:10ECD000B0130120B0F300201DED020000BF00BF03
:10ECE00080B400AFBFF34F8F054BDB6803F4E062E5
:10ECF0000349044B1343CB60BFF34F8F00BFFDE7C5
:10ED000000ED00E00400FA0580B582B000AF786045
:10ED1000FFF7E6FF00BF0837BD4680BD90B589B05C
:10ED200002AF7860FEF782FF00BFFEF7C9FD034621
:10ED3000002BFAD17B683B614D4B9B6AFB604D4BCE
:10ED40001B881B0443F0010318463B699B691A4664
:10ED50004949FEF72CFD474B1B881B0443F0010378
:10ED60001C463B6919683B6958683B699B683A696E
:10ED7000D2680192009303460A4640492046FEF7B6
:10ED800057FD3C4B1B881B0443F0010318463B69AD
:10ED90001A693B6959693B69DB6900930B4638493D
:10EDA000FEF72EFD324BDB6A03F00203002B08D086
:10EDB000304B1B881B0443F0010332491846FEF711
:10EDC000E7FC00237B611FE001227B6902FA03F369
:10EDD0001A46FB681340002B13D02B4A7B6952F86C
:10EDE0002330002B0DD0234B1B881B0443F0010361
:10EDF0001846254A7B6952F823301A462349FEF704
:10EE0000D6FC7B6901337B617B69192BDCD9FB68FC
:10EE100003F08003002B0BD0164B1B881B0443F020
:10EE200001031846124B5B6B1A461949FEF7BFFCEB
:10EE3000FB6803F40043002B0BD00E4B1B881B0414
:10EE400043F0010318460A4B9B6B1A461149FEF723
:10EE5000AEFC114B1B6803F00103002B00D000BE79
:10EE60007868FFF751FF00BF1C37BD4690BD00BF5B
:10EE700000ED00E038200020741103008C11030025
:10EE8000C4110300EC110300301F002030120300F6
:10EE90003C1203005C120300F0ED00E090B486B079
:10EEA00000AF786039607B683A6853E8004F1046DD
:10EEB00043E8000191F0000FF7D17C613861F960FF
:10EEC0007B6918461837BD4690BC704790B486B031
:10EED00000AF786039607B683A6853E8004F44EAD5
:10EEE000020043E8000191F0000FF6D17C61386127
:10EEF000F9603B6918461837BD4690BC704790B41E
:10EF000086B000AF786039607B683A6853E8004F9C
:10EF100004EA020043E8000191F0000FF6D17C61A1
:10EF20003861F9607B6918461837BD4690BC704758
:10EF300090B486B000AF786039607B683A6853E877
:10EF4000004F04EB020043E8000191F0000FF6D1FE
:10EF50007C613861F9603B6918461837BD4690BC42
:10EF6000704790B486B000AF786039607B683A68CB
:10EF700053E8004FA4EB020043E8000191F0000FBA
:10EF8000F6D17C613861F9603B6918461837BD4697
:10EF900090BC704780B582B000AF7860012178687E
:10EFA000FFF794FF034618460837BD4680BD80B57D
:10EFB00082B000AF786000217868FFF7A0FF0346B9
:10EFC00018460837BD4680BD80B483B000AF786076
:10EFD0000B46FB707B68DA68FB787968898A01FBED
:10EFE00003F3134418460C37BD465DF8047B7047A5
:10EFF00080B483B000AF786039603B687A68D268CB
:10F000009B1A7A68928AB3FBF2F3DBB218460C378C
:10F01000BD465DF8047B704780B584B000AF786072
:10F020000023FB600023BB7207F10A031846FFF7B9
:10F030001DFE7B681B681A687B685B689A421DD955
:10F040007B681B681A68013A1A601B681B781946AE
:10F050007868FFF7B9FFF8607B689B681A467B68A1
:10F060001B681B68D31AFB727B681B681B79FA7AD2
:10F070009A4203D97B681B68FA7A1A71BB7A1846E0
:10F08000FFF7FFFDFB6818461037BD4680BD90B501
:10F0900085B000AF786039603B68FB600023FB728D
:10F0A00007F10B031846FFF7E1FD7B681B681C683E
:10F0B000621C1A60F9687868FFF79AFF03462370AC
:10F0C000FB7A1846FFF7DDFD00BF1437BD4690BD43
:10F0D00080B58AB000AF786039607B689B8A043B5A
:10F0E000FB613A68FB691344DA1CFB69B2FBF3F37A
:10F0F000FB767868FFF790FF78617B69002B01D180
:10F10000002337E07B6900221A717B6901225A7162
:10F11000FB699AB27B69DA807B697B62FB7E013B8B
:10F120003B617B6A7A681A6000233B621DE0786865
:10F13000FFF772FFF860FB68002B0ED07B695B79EC
:10F140000133DAB27B695A717B6AFA681A60FB682C
:10F150007A681A60FB687B6204E0786900F00EF858
:10F16000002307E03B6A01333B623A6A3B699A42FB
:10F17000DDD37B6918462837BD4680BD80B58AB08F
:10F1800000AF78607B68FB61FB695B79FB767B682D
:10F190003B62FB7E013B7B6100237B6205E03B6AB7
:10F1A0001B683B627B6A01337B627A6A7B699A42A5
:10F1B000F5D33B6A1B683B617B683B6200237B6243
:10F1C0000BE03B6A1B68FB60396A3869FFF75FFF39
:10F1D000FB683B627B6A01337B62FB7E7A6A9A4200
:10F1E000EFD300BF2837BD4680BD80B584B000AFE7
:10F1F00078607B68FB60FB68043301211846FFF7E9
:10F2000097FE00BF1037BD4680BD80B586B000AF09
:10F2100078607B687B617B69043301211846FFF7C6
:10F22000A0FE0346FB6007F10C033B613B691B78C2
:10F23000002B02D17868FFF7A1FF00BF1837BD4649
:10F2400080BD80B58CB000AFF860B9607A603B607B
:10F25000FB68BB61BB69DB887B61FB68FB623B6869
:10F260001A1D7B69B2FBF3F3BB623B6804337A6916
:10F27000B3FBF2F2796901FB02F29B1A7B623A68F6
:10F280007B681A447B691344DA1C7B69B2FBF3F395
:10F29000FB7405E0FB6A1B68FB62BB6A013BBB6257
:10F2A000BB6A002BF6D100233B627A697B6AD31AD2
:10F2B000FB61FA697B68934228BF1346FB612DE02E
:10F2C00097F83830002B0BD0BA683B6AD018FA6A2E
:10F2D0007B6A13440433FA69194601F02DFD0AE0F4
:10F2E000FA6A7B6A1344181DBA683B6A1344FA69C8
:10F2F000194601F021FD00237B62FB6A1B68FB625B
:10F300007A68FB69D31A7B603A6AFB6913443B62F3
:10F310007A697B68934228BF1346FB617B68002BA8
:10F32000CED100BF3037BD4680BD80B586B002AFBC
:10F33000F860B9607A603B60002300933B687A68AC
:10F34000B968F868FFF77DFF00BF1037BD4680BD84
:10F3500080B400AFBFF34F8F054BDB6803F4E0626E
:10F360000349044B1343CB60BFF34F8F00BFFDE74E
:10F3700000ED00E00400FA0580B483B000AF7860CF
:10F380007B685B6818460C37BD465DF8047B7047A8
:10F3900080B584B000AF786001217868FFF77EFD0A
:10F3A000F860BFF35F8FFB68002B0CBF01230023C5
:10F3B000DBB218461037BD4680BD80B483B000AFC5
:10F3C0007860BFF35F8F7B6800221A6000BF0C3744
:10F3D000BD465DF8047B704732DF704700BF1846BA
:10F3E00080B400AF4FF080430122C3F80025BFF383
:10F3F0004F8F20BFFDE7000080B582B000AF0FE067
:10F400001B48FFF7B9FF78607B681B68194A1278C0
:10F41000104698470346002B26D0154800F079F88F
:10F420001348FFF7A9FF0346002BE9D1FEF7FEFBC7
:10F4300000BFFEF745FA0346002BFAD10D4B1B78AF
:10F44000032B03D00B4B1B78022B02D1FFF780FF5D
:10F450000BE001F09BFB0346002B02D0FFF7BCFF43
:10F460003860FFF7BDFF00E000BF0837BD4680BD34
:10F47000A42600209826002080B582B000AF034665
:10F48000FB711248FFF784FF034683F00103DBB2F0
:10F49000002B16D1FB79042B0DD00D4B1B78002BC4
:10F4A00003D00A48FFF789FF0CE00A4AFB79137082
:10F4B000074B01221A70FFF79FFF0448FFF77DFFFB
:10F4C00000E000BF0837BD4680BD00BF9C2600207D
:10F4D000A02600209826002080B483B000AF78607A
:10F4E00039607B683A681A607B681B681A687B68B9
:10F4F0005A607B685A687B681B685B689A4202D1D5
:10F500007B6800225A6000BF0C37BD465DF8047B63
:10F51000704780B483B000AF78607B685B68002B75
:10F5200014D07B685B681A467B681B689B68134431
:10F530001A467B685A607B685A687B681B685B6800
:10F540009A4204D17B6800225A6000E000BF0C3769
:10F55000BD465DF8047B704780B584B000AF78602D
:10F56000786800F00DF8F860FB68002B01D0FB68AC
:10F5700000E0024B18461037BD4680BD5817030007
:10F5800080B487B000AF7860174B7B61174B3B614D
:10F590001FE03A697B69D31ADB10DA0F13445B1062
:10F5A000DB007A691344FB60FB681B68BB60BA68C8
:10F5B0007B689A4202D9FB683B610AE0BA687B68C3
:10F5C0009A4203D2FB6808337B6102E0FB685B6808
:10F5D00004E07A693B699A42DBD3002318461C3762
:10F5E000BD465DF8047B7047581B0300801C030078
:10F5F00080B582B000AF0346FB80FB88184600F060
:10F6000024F803461B68012B0CBF01230023DBB247
:10F6100018460837BD4680BD80B584B000AF0346AC
:10F62000FB80FB88184600F010F803461A460023BA
:10F630001360FB88184600F008F803461B68FB605F
:10F64000FB6800BF1037BD4680BD80B483B000AFFB
:10F650000346FB80FB8803F1804303F5C043184653
:10F660000C37BD465DF8047B7047000080B483B062
:10F6700000AF7860054BD3F804237B68134018462D
:10F680000C37BD465DF8047B704700BF006000404A
:10F6900080B483B000AF7860074A7B6803F5A2733B
:10F6A00052F823301B0A03F01F0318460C37BD46DF
:10F6B0005DF8047B704700BF0060004080B483B0F9
:10F6C00000AF7860074A7B6803F5A27352F82330D5
:10F6D0001B0C03F00303DBB218460C37BD465DF884
:10F6E000047B70470060004080B483B000AF786056
:10F6F0004FF0A04318460C37BD465DF8047B7047B9
:10F7000080B584B000AF78600B46FB703B1D184697
:10F71000FFF7EAFFF8607A68FB6802F5E07253F8D9
:10F7200022307A6823F44031FB6802F5E07243F836
:10F7300022107A68FB6802F5E07253F82230FA78FA
:10F74000120411467A681943FB6802F5E07243F827
:10F75000221000BF1037BD4680BD80B584B000AF19
:10F7600078603B1D1846FFF7BFFFF8607A68FB68BA
:10F7700002F5E07253F822301B0C03F00303DBB2F6
:10F7800018461037BD4680BD80B483B000AF7860A6
:10F790007B68D3F8103518460C37BD465DF8047BFE
:10F7A000704780B586B000AFF860B9607A604FF0FE
:10F7B000A0433B61FB687B6112E07B699B0007F122
:10F7C0001802134453F8083C1846FFF7DDFF0246C1
:10F7D0007B681A607B6804337B607B6901337B61E3
:10F7E000FA68BB6813447A699A42E6D300BF1837B7
:10F7F000BD4680BD80B485B000AF786039603B689D
:10F80000FB607B68DB08BB607B6803F007037B6001
:10F8100001227B6802FA03F3F968BA680A44127895
:10F82000134018461437BD465DF8047B704780B41A
:10F8300085B000AF786039603B68FB607B68DB08AF
:10F84000BB607B6803F007037B60FA68BB68134406
:10F850001B785AB201217B6801FA03F35BB21343B0
:10F8600059B2FA68BB681344CAB21A7000BF1437A1
:10F87000BD465DF8047B704780B483B000AF78600C
:10F88000054A7B681344303393F9003018460C372F
:10F89000BD465DF8047B7047AC26002080B483B081
:10F8A00000AF7860044A7B6852F8233018460C3762
:10F8B000BD465DF8047B7047AC26002080B594B04F
:10F8C00000AF00233B640023FB604FF48073A7F874
:10F8D0004C300123BB640023FB6321E0B7F84C30BC
:10F8E0001846FFF785FE0346002B0ED0B86CFFF7D5
:10F8F000BDFE0346002B08D0B7F84C301846FFF782
:10F900008BFE3A6CBB6C13433B64BB6C5B00BB640B
:10F91000B7F84C300433A7F84C30FB6B0133FB6372
:10F92000FB6B072BDAD94FF4BE70FFF761FE03467D
:10F93000002B0ED04FF4BE70FFF76EFE3B6C43F011
:10F9400000433B6407F10C031A4601210020FFF736
:10F9500028FF3B6CDBB2002B29D00123BB640023C2
:10F96000FB6321E0BA6C3B6C1340002B16D0F86BA4
:10F97000FFF78EFE7863F86BFFF7A0FE034687F86B
:10F980003330F86BFFF78AFFF862FB6A002B05D073
:10F9900097F83320FB6A1146786B9847BB6C5B0085
:10F9A000BB64FB6B0133FB63FB6B072BDAD93B6C4E
:10F9B000002B80F2F180002387F84F300023BB60DA
:10F9C00000237B640BE07B6C9B0007F15002134427
:10F9D0004FF0FF3243F84C2C7B6C01337B647B6C23
:10F9E000002BF0D0002387F84F300023FB6374E036
:10F9F0006B4AFB6B1344503393F9003087F82B307C
:10FA000097F82B3023F0C0037B62654AFB6B1344ED
:10FA1000503393F90030B3F1FF3F5BD03B1D1946E3
:10FA2000786AFFF7E7FE0346002B53D097F82B3098
:10FA30009B0987F82330786AFFF71EFF03461846B4
:10FA4000FFF72CFFF861FB69002B03D197F82330F7
:10FA5000032B3FD197F82330032B05D107F108037F
:10FA60001946786AFFF7E3FE786AFFF776FE0346E9
:10FA7000FB7607F10C031946786AFFF7BBFE786145
:10FA80007B69002B02D0FB7E022B05D07B69002B0B
:10FA900020D1FB7E032B1DD197F82330032B10D1EF
:10FAA000FB7E022B01D1032300E00223FB74FB7CCD
:10FAB0001946786AFFF724FE97F84F30013387F82C
:10FAC0004F30FB69002B05D097F82320FB691146C6
:10FAD000786A9847FB6B0133FB63FB6B032B87D979
:10FAE00097F84F30002B52D0012387F83B303B462C
:10FAF0001A4601210020FFF754FE00237B6416E024
:10FB00007B6C9B0007F15002134453F8502C7B6C24
:10FB10009B0007F150010B4453F8443C9A4203D038
:10FB2000002387F83B3005E07B6C01337B647B6C02
:10FB3000002BE5D097F83B30002B03D0002387F84B
:10FB40004F3024E000237B641EE07B6C9B0007F1B8
:10FB50005002134453F8502C7B6C9B0007F150016A
:10FB60000B4443F8442C7B6C9B0007F15002134478
:10FB700053F8482C7B6C9B0007F150010B4443F871
:10FB80004C2C7B6C01337B647B6C002BDDD097F8B5
:10FB90004F30002B7FF426AF00BF5037BD4680BDED
:10FBA000AC26002080B500AF024B1B68984700BF11
:10FBB00080BD00BF0827002080B584B000AF78600A
:10FBC00039600023FB607B6893F82C20214B1B7865
:10FBD0009A423AD1204B1B78002B01D0402B29D1DF
:10FBE0007B6893F82D30072B1AD0072B04DC012BF0
:10FBF0001AD0022B0AD01CE0082B0CD0802B00D08E
:10FC000017E0072000F0A6FAF86012E00B2000F0E1
:10FC1000A1FAF8600DE0012000F09CFAF86008E01D
:10FC20000020FFF729FC04E0002000F093FAF860C0
:10FC300000BF00BFFB68BB60BB68002B06D0074A53
:10FC40007C21B868FEF78AF900E000BF1037BD4696
:10FC500080BD00BF981F002010270020641F0300F4
:10FC600080B584B000AF0346FB71002000F072FA4B
:10FC7000F860FB68BB60BB68002B04D0044A892194
:10FC8000B868FEF76BF9012318461037BD4680BDF2
:10FC9000641F030080B582B000AF0D4B1B78002BB2
:10FCA0000FD000237B6008E07B68022B02D07868CD
:10FCB000FEF7BEF87B6801337B607B68032BF3D9CA
:10FCC00001E0FEF7C7F800BF0837BD4680BD00BFA2
:10FCD000182700202DE9F04884B000AF0346FB71DF
:10FCE0000023FB600023BB60CA4B1B78002B04D0B1
:10FCF000C84B00221A70FFF7CDFFFB79172B00F2DB
:10FD00001C8201A252F823F069FD020075FD020079
:10FD100075FD0200F7FD020079FE0200E5FE02001B
:10FD200065FF020083FF020091FF0200AFFF0200A7
:10FD3000CDFF0200EBFF02000900030021000300D9
:10FD40002100030021000300210003002100030023
:10FD5000E7000300F300030005010300170103009F
:10FD60002F0103002F010300FFF794FFAA4AFB793C
:10FD70001370E3E10020FEF725F80346002B0CD0BA
:10FD80000020FEF755F8FB79022B02D14FF4E16316
:10FD900001E04FF47A63BB600AE00020FEF736F81A
:10FDA000FB79022B01D1C82301E04FF4C873BB607B
:10FDB000994AFB791370994DBB6819464FF00002C0
:10FDC0004FF000034FF00004D40344EA5144CB0346
:10FDD00013F5FA7044F100014FF47A724FF000030A
:10FDE00000F0C0FF03460C46002219462846FEF7E5
:10FDF0006BFEF860A2E10020FDF7E4FF0346002B54
:10FE00000CD00020FEF714F8FB79032B02D14FF43D
:10FE1000487301E04FF47A63BB600AE00020FDF70D
:10FE2000F5FFFB79032B01D1C82301E04FF4C87320
:10FE3000BB60794AFB791370784DBB6819464FF067
:10FE400000024FF000034FF00004D40344EA514491
:10FE5000CB0313F5FA7044F100014FF47A724FF0BE
:10FE6000000300F07FFF03460C4600221946284697
:10FE7000FEF72AFEF86061E10020FDF7A3FF0346CC
:10FE8000002B06D00020FDF7D3FF4FF47A63BB6050
:10FE900005E00020FDF7BAFF4FF4C873BB605E4A6F
:10FEA000FB7913705D4DBB6819464FF000024FF0AF
:10FEB00000034FF00004D40344EA5144CB0313F58C
:10FEC000FA7044F100014FF47A724FF0000300F031
:10FED00049FF03460C46002219462846FEF7F4FD6A
:10FEE000F8602BE10020FDF76DFF0346002B0BD0DF
:10FEF0000020FDF79DFFFB79052B01D1C82301E010
:10FF00004FF47A63BB600AE00020FDF77FFFFB79C6
:10FF1000052B01D1C82301E04FF4C873BB603E4AF2
:10FF2000FB7913703D4DBB6819464FF000024FF04E
:10FF300000034FF00004D40344EA5144CB0313F50B
:10FF4000FA7044F100014FF47A724FF0000300F0B0
:10FF500009FF03460C46002219462846FEF7B4FD69
:10FF6000F860EBE00020FDF79BFF2B4AFB79137054
:10FF70002A4B002240F6CD411846FEF7A5FDF86059
:10FF8000DCE00020FDF742FF234AFB791370D5E047
:10FF9000204B01221A700120FDF782FF1F4B002227
:10FFA00040F6CD411846FEF78FFDF860C6E0194BCC
:10FFB00001221A700120FDF773FF184B00224FF445
:10FFC00080411846FEF780FDF860B7E0114B012232
:10FFD0001A700120FDF764FF104B002240F6CD415E
:10FFE0001846FEF771FDF860A8E00A4B01221A706E
:10FFF0000120FDF755FF094B00224FF480411846C0
:020000023000CC
:10000000FEF762FDF86099E0FDF737FF024AFB79E1
:10001000137093E012270020112700201C270020D6
:10002000494B1846FEF784FDF860FB79C3F11103D4
:10003000BB60BB68002B4FD0FB68002B4CD1BB686A
:10004000012B42D9404B3B60BB689BB29DB24FF045
:100050000006AB46B4461BEB0B034CEB0C049B4673
:10006000A4461BEB050B4CEB060C4FF000014FF0C8
:1000700000024FEACC0242EA5B724FEACB018B46A8
:1000800094461BEB050B4CEB060C4FF000014FF0B8
:1000900000024FEA8C4242EA9B324FEA8B418B4688
:1000A00094465B46644613F5FA7044F100014FF440
:1000B0007A724FF0000300F055FE03460C46002212
:1000C00019463868FEF700FDF8600220FDF79EFE35
:1000D0001E4B01221A7031E00220FDF7A9FE1B4BD6
:1000E00000221A702AE0FFF7D5FD194AFB79137038
:1000F00024E0FFF7CFFD0020FDF788FE144AFB79CE
:1001000013701BE0FFF7C6FD0120FDF77FFE104ACC
:10011000FB79137012E0FFF7BDFD0020FDF776FEBE
:100120000120FDF773FE0A4AFB79137006E0FDF724
:10013000A4FE074AFB79137000E000BFFB68184675
:100140001037BD46BDE8F0883C2700201827002066
:100150001127002080B584B000AF0346FB71002357
:10016000FB60084B1B6803F00103002B04D0FB79F4
:100170001846FFF7AFFDF860FB6818461037BD461C
:1001800080BD00BF1427002080B485B000AF786028
:100190000B46FB701346BB700023FB607B68032B90
:1001A00035D8BB78012B09D1FB78012B04D17B68B2
:1001B000DBB20E33DBB200E00023BB70FB78012B17
:1001C00004D0022B0BD0002B13D01CE014497A680A
:1001D00013465B0013440B44BA781A7019E01049B7
:1001E0007A6813465B0013440B440133BA781A70E3
:1001F0000FE00B497A6813465B0013440B4402334B
:10020000BA781A7005E00723FB6000BF01E00723FE
:10021000FB60FB6818461437BD465DF8047B7047E9
:100220005C27002080B582B000AF012200210320AE
:10023000FFF7AAFF78607B68072B01D1002300E05D
:100240007B6818460837BD4680BD80B582B000AFD8
:100250000A2200210320FFF797FF78607B68072BB5
:1002600001D1002300E07B6818460837BD4680BDF9
:1002700080B584B000AF786039600023FB607B6894
:1002800093F82C201B4B1B789A422ED11A4B1B78CB
:10029000002B01D0402B1DD17B6893F82D30082B0B
:1002A00010D0802B00D014E0144B1B7883F0010396
:1002B000DBB2002B02D0FFF7B5FFF8600F4B012235
:1002C0001A7006E00D4B00221A70FFF7BEFFF860AF
:1002D00000BF00BFFB68BB60BB68002B06D0084AAC
:1002E0009421B868FDF73AFE00E000BF1037BD4624
:1002F00080BD00BF991F00206927002068270020CB
:10030000C81F030080B584B000AF78607B68002B05
:100310000AD0074B43F00103FB607B689B01BB6085
:10032000FB68B868984700E000BF1037BD4680BD45
:100330002020030080B483B000AF78604FF0A0436A
:1003400018460C37BD465DF8047B704780B584B015
:1003500000AF7860084611461A460346FB700B460C
:10036000BB7013467B703B1D1846FFF7E3FFF86038
:10037000FA78BB785B001A437B789B001A433B7E7C
:100380001B0242EA03013B7F1B047A681943FB68A6
:1003900002F5E07243F8221000BF1037BD4680BD61
:1003A00080B584B002AF78600023019300230093EE
:1003B0000023012201217868FFF7C8FF00BF08373A
:1003C000BD4680BD80B584B000AF78603B1D184647
:1003D000FFF7B0FFF8607B68012202FA03F31946C9
:1003E000F86800F02CF800BF1037BD4680BD80B51E
:1003F00084B000AF78603B1D1846FFF79BFFF860A4
:100400007B68012202FA03F31946F86800F026F827
:1004100000BF1037BD4680BD80B582B000AF7860A8
:1004200039603B68002B03D17868FFF7E0FF02E0FA
:100430007868FFF7C7FF00BF0837BD4680BD80B4AE
:1004400083B000AF786039607B683A68C3F80825EC
:1004500000BF0C37BD465DF8047B704780B483B0A5
:1004600000AF786039607B683A68C3F80C2500BF3C
:100470000C37BD465DF8047B704780B582B000AF95
:1004800078607B68002B0AD04FF47A70FFF73AFF50
:100490007B68013B7B607B68002BF5D100E000BFEF
:1004A0000837BD4680BD80B582B000AF1720FFF78A
:1004B00077FF1820FFF774FF1920FFF771FF002363
:1004C0007B6079681120FFF7A7FF7B68012B02D1C1
:1004D00000237B6001E001237B604FF47A70FFF71B
:1004E000CCFFEEE780B400AFBFF34F8F054BDB6866
:1004F00003F4E0620349044B1343CB60BFF34F8F17
:1005000000BFFDE700ED00E00400FA0580B400AF95
:10051000034B044A1A6000BFBD465DF8047B704778
:100520009C1F00200090D00380B500AF00F068F958
:100530000346002B06D0A04B1B681B0A9F4A03F002
:100540001F03136000F08EF90346002B02D09C4B72
:100550009C4A1A6000F0A8F90346002B06D09A4B7B
:100560001B685B0B994A03F00703136000F0CEF998
:100570000346002B05D0964BDB68954A23F0807329
:10058000D36000F0E5F90346002B0ED04FF0804316
:100590000022C3F80C214FF080430022C3F8102141
:1005A0004FF080430022C3F8382500F003FA0346D9
:1005B000002B02D0874B03221A6000F01DFA03467D
:1005C000002B0BD0844B05221A60844B01221A6049
:1005D000834B00221A60834B3F221A6000F02EFAF0
:1005E0000346002B76D04FF080537F4AD3F8043473
:1005F000C2F820354FF080537B4AD3F80834C2F854
:1006000024354FF08053784AD3F80C34C2F828359B
:100610004FF08053744AD3F81034C2F82C354FF0A1
:100620008053714AD3F81434C2F830354FF08053F8
:100630006D4AD3F81834C2F834354FF080536A4A03
:10064000D3F81C34C2F840354FF08053664AD3F8D3
:100650002034C2F844354FF08053634AD3F8243431
:10066000C2F848354FF080535F4AD3F82834C2F8B7
:100670004C354FF080535C4AD3F82C34C2F85035D7
:100680004FF08053584AD3F83034C2F854354FF005
:100690008053554AD3F83434C2F860354FF0805354
:1006A000514AD3F83834C2F864354FF080534E4A7B
:1006B000D3F83C34C2F868354FF080534A4AD3F837
:1006C0004034C2F86C354FF08053474AD3F8443475
:1006D000C2F8703500F0D4F90346002B05D0434B27
:1006E0001B68434A03F04F03136000F0FBF9034615
:1006F000002B0DD04FF08043D3F8003403F00103FA
:10070000002B05D04FF080436FF00102C3F80024A6
:1007100000F01AFA0346002B05D0364B1B68354A09
:1007200043F480631360344BD3F88830324A43F487
:100730007003C2F88830BFF34F8FBFF36F8F4FF055
:100740001023D3F80032002B05DB4FF01023D3F831
:100750000432002B2BDA294B0122C3F8042500BFF9
:10076000264BD3F80034002BFAD04FF0102315227B
:10077000C3F8002200BF214BD3F80034002BFAD07D
:100780004FF010231522C3F8042200BF1B4BD3F8EF
:100790000034002BFAD0194B0022C3F8042500BF07
:1007A000164BD3F80034002BFAD0FFF79BFEFFF76F
:1007B000ADFE00BF80BD00BF2403001040350140E6
:1007C00074C007400DF0ADBA440200103C05004073
:1007D000F0ED00E0A00500401056004088560040B3
:1007E000185600401456004000C000405802001047
:1007F000E40E00403C17004000ED00E000E0014046
:1008000080B400AF144B1B68DBB2062B1DD1134B19
:100810001B6803F00F03002B17D1114B1B6803F06B
:10082000F003302B01D1012310E00D4B1B6803F0C6
:10083000F003402B01D1012308E0094B1B6803F0B2
:10084000F003502B01D1012300E000231846BD46E0
:100850005DF8047B704700BFE00F00F0E40F00F08C
:10086000E80F00F080B400AF0C4B1B68DBB2062B26
:100870000DD10B4B1B6803F00F03002B07D1094B65
:100880001B6803F0F003302B01D1012300E00023AB
:100890001846BD465DF8047B704700BFE00F00F0CE
:1008A000E40F00F0E80F00F080B400AF144B1B68B9
:1008B000DBB2062B1DD1134B1B6803F00F03002B7B
:1008C00017D1114B1B6803F0F003302B01D101232A
:1008D00010E00D4B1B6803F0F003402B01D1012306
:1008E00008E0094B1B6803F0F003502B01D10123F2
:1008F00000E000231846BD465DF8047B704700BF4A
:10090000E00F00F0E40F00F0E80F00F080B400AF5B
:100910000C4B1B68DBB2062B0DD10B4B1B6803F095
:100920000F03002B07D1094B1B6803F0F003302B9A
:1009300001D1012300E000231846BD465DF8047B89
:10094000704700BFE00F00F0E40F00F0E80F00F088
:1009500080B400AF144B1B68DBB2062B1DD1134BC8
:100960001B6803F00F03002B17D1114B1B6803F01A
:10097000F003302B01D1012310E00D4B1B6803F075
:10098000F003402B01D1012308E0094B1B6803F061
:10099000F003502B01D1012300E000231846BD468F
:1009A0005DF8047B704700BFE00F00F0E40F00F03B
:1009B000E80F00F080B400AF0C4B1B68DBB2062BD5
:1009C0000DD10B4B1B6803F00F03002B07D1094B14
:1009D0001B6803F0F003302B01D1012300E000235A
:1009E0001846BD465DF8047B704700BFE00F00F07D
:1009F000E40F00F0E80F00F080B400AF0C4B1B6870
:100A0000DBB2062B0DD10B4B1B6803F00F03002B41
:100A100007D1094B1B6803F0F003302B01D10123F0
:100A200000E000231846BD465DF8047B704700BF18
:100A3000E00F00F0E40F00F0E80F00F080B400AF2A
:100A40000C4B1B68DBB2062B0DD10B4B1B6803F064
:100A50000F03002B07D1094B1B6803F0F003502B49
:100A600001D1012300E000231846BD465DF8047B58
:100A7000704700BFE00F00F0E40F00F0E80F00F057
:100A800080B400AF144B1B68DBB2062B1DD1134B97
:100A90001B6803F00F03002B17D1114B1B6803F0E9
:100AA000F003302B01D1012310E00D4B1B6803F044
:100AB000F003402B01D1012308E0094B1B6803F030
:100AC000F003502B01D1012300E000231846BD465E
:100AD0005DF8047B704700BFE00F00F0E40F00F00A
:100AE000E80F00F080B400AF144B1B68DBB2062B9C
:100AF0001DD1134B1B6803F00F03002B17D1114BB3
:100B00001B6803F0F003302B01D1012310E00D4BE3
:100B10001B6803F0F003402B01D1012308E0094BCF
:100B20001B6803F0F003502B01D1012300E00023E8
:100B30001846BD465DF8047B704700BFE00F00F02B
:100B4000E40F00F0E80F00F080B400AF074B1B6823
:100B5000062B05D1064B1B68062B01D1012300E0B3
:100B600000231846BD465DF8047B70473001001035
:100B70003401001080B483B000AF78607B685B689C
:100B800018460C37BD465DF8047B704780B400AF53
:100B9000034B1B781846BD465DF8047B704700BFC9
:100BA0006A27002080B584B000AF3B461049184644
:100BB000FEF792FC10E03B461846FFF7DBFFF860BB
:100BC000FB681B68BB60FB685A68BB6810469847A7
:100BD0003B461846FEF79DFC3B461846FFF7CAFF0A
:100BE0000346002BE7D100BF1037BD4680BD00BFD4
:100BF000B020030080B500AFFFF7D4FF00BF80BD79
:100C000080B483B000AF78607B685B6818460C37AF
:100C1000BD465DF8047B7047C1DF704700BF1846D2
:100C200080B594B000AF7860244B1B7883F001034B
:100C3000DBB2002B3ED107F10C0207F10C0303F1EC
:100C40002D0107F10C032C331846FFF7E5FFF8647C
:100C5000FB6C002B03D0FB6C052B25D12BE007F19F
:100C60003C0317491846FEF737FC14E007F13C0334
:100C70001846FFF7C5FFB864BB6C1B687B64BB6C90
:100C8000596807F10C027B6C1046984707F13C034A
:100C90001846FEF73EFC07F13C031846FFF7B0FF8D
:100CA0000346002BE2D1C6E7064A9721F86CFDF710
:100CB00055F900E000BF5037BD4680BDEC2700204D
:100CC0004C210300F420030008B5074B044613B180
:100CD0000021AFF30080054B1868836A03B1984781
:100CE000204600F03DF800BF00000000582103003E
:100CF00070B50D4E0D4CA41BA4100025A54209D1C2
:100D00000B4E0C4C00F0AEF9A41BA4100025A5421C
:100D100005D170BD56F8253098470135EEE756F8F5
:100D2000253098470135F2E7002000200020002000
:100D3000002000200420002010B5431E0A449142E8
:100D400000D110BD11F8014B03F8014FF7E7024441
:100D50000346934200D1704703F8011BF9E70000F6
:100D6000FEE700BF53B94AB9002908BF00281CBFDD
:100D70004FF0FF314FF0FF3000F072B9ADF1080CC9
:100D80006DE904CE00F006F8DDF804E0DDE90223A9
:100D900004B070472DE9F047089E04468846002BB2
:100DA0004BD18A42154667D9B2FA82F24AB1C2F1F2
:100DB000200701FA02F320FA07F7954047EA0308F3
:100DC00094404FEA154E230CB8FBFEF71FFA85FC42
:100DD0000EFB178843EA084307FB0CF1994209D937
:100DE000EB1807F1FF3080F01B81994240F2188127
:100DF000023F2B445B1AA4B2B3FBFEF00EFB103390
:100E000044EA034400FB0CFCA44509D92C1900F169
:100E1000FF3380F00781A44540F2048102382C445E
:100E200040EA0740A4EB0C0400271EB1D440002385
:100E3000C6E900433946BDE8F0878B4209D9002E48
:100E400000F0EB800027C6E9000138463946BDE8CE
:100E5000F087B3FA83F7002F47D18B4202D3824247
:100E600000F2FA80841A61EB030301209846002EF9
:100E7000E0D0C6E90048DDE702B9FFDEB2FA82F24F
:100E8000002A40F08F80491B4FEA154E1FFA85F863
:100E90000127B1FBFEFC230C0EFB1C1143EA0143AE
:100EA00008FB0CF1994207D9EB180CF1FF3002D284
:100EB000994200F2CD808446591AA3B2B1FBFEF0EC
:100EC0000EFB101443EA044408FB00F8A04507D9C0
:100ED0002C1900F1FF3302D2A04500F2B68018466B
:100EE000A4EB080440EA0C409FE7C7F1200CBB408C
:100EF00022FA0CFE4EEA030E01FA07F420FA0CF572
:100F000021FA0CF34FEA1E482543B3FBF8F92C0CE9
:100F100008FB19331FFA8EFA44EA034309FB0AF46B
:100F20009C4202FA07F200FA07F10BD91EEB030309
:100F300009F1FF3080F087809C4240F28480A9F163
:100F4000020973441B1BADB2B3FBF8F008FB10336E
:100F500045EA034400FB0AFAA24508D91EEB040443
:100F600000F1FF336BD2A24569D90238744440EADC
:100F70000940A0FB0289A4EB0A044C45C2464B463B
:100F800054D351D0002E69D0B1EB0A0564EB0304B1
:100F900004FA0CFCFD40FC404CEA0505C6E900548F
:100FA000002747E7C2F1200320FA03F7954001FA32
:100FB00002F021FA03F34FEA154E3843010CB3FB5C
:100FC000FEF71FFA85F80EFB173341EA034107FBD2
:100FD00008F38B4204FA02F407D9691807F1FF3CC1
:100FE0002FD28B422DD9023F2944CB1A81B2B3FBB9
:100FF000FEF00EFB103341EA034100FB08F38B4285
:1010000007D9691800F1FF3C17D28B4215D9023875
:101010002944C91A40EA07473BE73746304609E703
:101020000746E7E61846FBE64145ABD2B8EB020AB5
:1010300069EB0E0201381346A4E76046E9E718465B
:1010400095E76746D1E781467CE702382C4447E7BD
:10105000ACF1020C2B442FE7384608E73746E9E6A7
:10106000704700BFF8B500BFF8BC08BC9E4670478B
:10107000F8B500BFF8BC08BC9E46704762616C6C56
:101080006F632E6C6F675F6D656D706F6F6C0000C6
:10109000617070004261636B656E647320666C758D
:1010A000736865640000000011121314534F465416
:1010B0004445564943453A20415353455254494FBC
:1010C0004E204641494C454400000000534F4654D1
:1010D0004445564943453A20494E56414C494420DF
:1010E0004D454D4F52592041434345535300000055
:1010F000415353455254494F4E204641494C454473
:101100002061742025733A25750000004552524F26
:1011100052202575205B25735D2061742025733A6C
:1011200025750D0A50432061743A203078253038F7
:1011300078000000456E64206F66206572726F72E1
:10114000207265706F727400554E4B4E4F574E2093
:101150004641554C54206174203078253038580071
:101160000338FDD870470000686172646661756C71
:101170007400000048415244204641554C542061BF
:10118000742030782530385800000000202052307C
:101190003A2020307825303858202052313A20200B
:1011A000307825303858202052323A2020307825A7
:1011B000303858202052333A2020307825303858A3
:1011C0000000000020205231323A2030782530389B
:1011D0005820204C523A2020307825303858202092
:1011E0005053523A20307825303858004361757397
:1011F000653A204275734661756C74206F6E20618C
:1012000020766563746F72207461626C652072650C
:10121000616420647572696E6720657863657074B7
:10122000696F6E2070726F63657373696E672E00ED
:1012300043617573653A2025732E00004D656D4D31
:10124000616E616765204661756C742041646472EB
:101250006573733A20307825303858004275732012
:101260004661756C7420416464726573733A203012
:1012700078253038580000005468652070726F631C
:101280006573736F722068617320617474656D702B
:1012900074656420746F206578656375746520617A
:1012A0006E20756E646566696E656420696E737420
:1012B00072756374696F6E005468652070726F6335
:1012C0006573736F7220617474656D7074656420EA
:1012D00061206C6F6164206F722073746F7265207F
:1012E00061742061206C6F636174696F6E20746833
:1012F000617420646F6573206E6F74207065726D09
:10130000697420746865206F7065726174696F6EAE
:1013100000000000556E737461636B20666F72206D
:10132000616E20657863657074696F6E2072657494
:1013300075726E2068617320636175736564206FD8
:101340006E65206F72206D6F7265206163636573D7
:10135000732076696F6C6174696F6E7300000000B2
:10136000537461636B696E6720666F7220616E20D3
:10137000657863657074696F6E20656E747279202C
:1013800068617320636175736564206F6E65206F9B
:1013900072206D6F72652061636365737320766977
:1013A0006F6C6174696F6E730000000041204D65C1
:1013B0006D4D616E616765206661756C74206F6349
:1013C00063757272656420647572696E6720666CFD
:1013D0006F6174696E672D706F696E74206C617ACD
:1013E00079207374617465207072657365727661BB
:1013F00074696F6E00000000496E737472756374D7
:10140000696F6E20627573206572726F72000000E2
:101410004461746120627573206572726F72202856
:1014200050432076616C756520737461636B6564ED
:1014300020666F72207468652065786365707469D2
:101440006F6E2072657475726E20706F696E747342
:1014500020746F2074686520696E7374727563748C
:10146000696F6E20746861742063617573656420B0
:10147000746865206661756C74290000446174614C
:1014800020627573206572726F72202872657475A0
:10149000726E206164647265737320696E20746873
:1014A0006520737461636B206672616D652069737A
:1014B000206E6F742072656C6174656420746F2097
:1014C00074686520696E737472756374696F6E20D9
:1014D0007468617420636175736564207468652045
:1014E0006572726F72290000556E737461636B20B0
:1014F000666F7220616E20657863657074696F6EC7
:101500002072657475726E206861732063617573F3
:101510006564206F6E65206F72206D6F726520426A
:1015200075734661756C74730000000053746163D9
:101530006B696E6720666F7220616E2065786365E7
:101540007074696F6E20656E7472792068617320A3
:10155000636175736564206F6E65206F72206D6FB7
:101560007265204275734661756C747300000000EB
:101570004120627573206661756C74206F636375BA
:101580007272656420647572696E6720666C6F6143
:1015900074696E672D706F696E74206C617A792042
:1015A00073746174652070726573657276617469B5
:1015B0006F6E00005468652070726F636573736F9F
:1015C000722068617320617474656D707465642045
:1015D000746F206578656375746520616E20696E2F
:1015E000737472756374696F6E2074686174206DB2
:1015F000616B657320696C6C6567616C20757365E0
:10160000206F66207468652045505352000000002A
:101610005468652070726F636573736F72206861C0
:101620007320617474656D7074656420616E2069E7
:101630006C6C6567616C206C6F6164206F6620451F
:1016400058435F52455455524E20746F207468655C
:101650002050432C206173206120726573756C7477
:10166000206F6620616E20696E76616C696420630C
:101670006F6E746578742C206F7220616E20696EB5
:1016800076616C6964204558435F52455455524E0B
:101690002076616C756500005468652070726F6318
:1016A0006573736F722068617320617474656D7007
:1016B00074656420746F20616363657373206120B7
:1016C000636F70726F636573736F72005468652027
:1016D00070726F636573736F7220686173206D61E0
:1016E000646520616E20756E616C69676E6564204B
:1016F0006D656D6F727920616363657373000000BF
:101700005468652070726F636573736F72206861CF
:101710007320657865637574656420616E20534439
:101720004956206F72205544495620696E73747271
:10173000756374696F6E20776974682061206469CD
:101740007669736F72206F66203000007077725F69
:101750006D676D7400000000556E6B6E6F776E20C4
:101760006572726F7220636F646500004E52465F4F
:1017700053554343455353004E52465F4552524FD3
:10178000525F5356435F48414E444C45525F4D496A
:101790005353494E470000004E52465F4552524F48
:1017A000525F534F46544445564943455F4E4F544C
:1017B0005F454E41424C4544000000004E52465F9A
:1017C0004552524F525F494E5445524E414C0000D3
:1017D0004E52465F4552524F525F4E4F5F4D454D00
:1017E000000000004E52465F4552524F525F4E4F2E
:1017F000545F464F554E44004E52465F4552524F3D
:10180000525F4E4F545F535550504F525445440011
:101810004E52465F4552524F525F494E56414C49D7
:10182000445F504152414D004E52465F4552524F27
:10183000525F494E56414C49445F53544154450010
:101840004E52465F4552524F525F494E56414C49A7
:10185000445F4C454E475448000000004E52465FDE
:101860004552524F525F494E56414C49445F464C97
:10187000414753004E52465F4552524F525F494EC8
:1018800056414C49445F4441544100004E52465F2A
:101890004552524F525F444154415F53495A4500AB
:1018A0004E52465F4552524F525F54494D454F5537
:1018B000540000004E52465F4552524F525F4E5503
:1018C0004C4C00004E52465F4552524F525F464FBD
:1018D0005242494444454E004E52465F4552524F93
:1018E000525F494E56414C49445F414444520000C6
:1018F0004E52465F4552524F525F42555359000077
:101900004E52465F4552524F525F434F4E4E5F43D9
:101910004F554E54000000004E52465F4552524F04
:10192000525F5245534F5552434553004E52465F06
:101930004552524F525F4D4F44554C455F4E4F54A8
:101940005F494E495449414C495A45440000000002
:101950004E52465F4552524F525F4D555445585F67
:10196000494E49545F4641494C4544004E52465FFA
:101970004552524F525F4D555445585F4C4F434B63
:101980005F4641494C4544004E52465F4552524FD6
:10199000525F4D555445585F554E4C4F434B5F4633
:1019A00041494C45440000004E52465F4552524F5B
:1019B000525F4D555445585F434F4E445F494E4921
:1019C000545F4641494C4544000000004E52465F7A
:1019D0004552524F525F4D4F44554C455F414C521A
:1019E000454144595F494E495449414C495A45443F
:1019F000000000004E52465F4552524F525F535412
:101A00004F524147455F46554C4C00004E52465F91
:101A10004552524F525F4150495F4E4F545F494DBE
:101A2000504C454D454E5445440000004E52465FD3
:101A30004552524F525F464541545552455F4E4FB5
:101A4000545F454E41424C45440000004E52465FB3
:101A50004552524F525F494F5F50454E44494E47A1
:101A6000000000004E52465F4552524F525F4452B2
:101A7000565F5457495F4552525F4F564552525533
:101A80004E0000004E52465F4552524F525F445244
:101A9000565F5457495F4552525F414E41434B0098
:101AA0004E52465F4552524F525F4452565F545712
:101AB000495F4552525F444E41434B004E52465F90
:101AC0004552524F525F424C455F495053505F520E
:101AD000585F504B545F5452554E43415445440057
:101AE0004E52465F4552524F525F424C455F4950FD
:101AF00053505F4348414E4E454C5F414C52454127
:101B000044595F4558495354530000004E52465FB4
:101B10004552524F525F424C455F495053505F4CC3
:101B2000494E4B5F444953434F4E4E454354454401
:101B3000000000004E52465F4552524F525F424CE9
:101B4000455F495053505F504545525F52454A45A5
:101B50004354454400000000000000006C170300DF
:101B6000010000007817030002000000981703002E
:101B700003000000BC17030004000000D01703009E
:101B800005000000E417030006000000F81703003A
:101B900007000000101803000800000028180300C8
:101BA00009000000401803000A0000005C18030050
:101BB0000B000000741803000C0000008C180300D8
:101BC0000D000000A01803000E000000B418030070
:101BD0000F000000C418030010000000D818030014
:101BE00011000000F01803001200000000190300AB
:101BF0001300000018190300800000002C190300D6
:101C00008100000050190300820000006C190300DD
:101C1000830000008819030084000000A819030055
:101C200085000000CC19030086000000F4190300B1
:101C3000900000000C1A0300910000002C1A030011
:101C4000920000004C1A030000820000641A030096
:101C500001820000841A030002820000A01A03001F
:101C600000840000BC1A030001840000E01A030095
:101C7000028400000C1B030003840000341B0300DB
:101C80004750494F5445000050525300554152545B
:101C9000000000005541525445000000616E745F21
:101CA00068726D00414E542048524D206368616E49
:101CB0006E656C20257520696E69740048524D2050
:101CC00054582050616765206E756D6265723A20C8
:101CD000257500002F686F6D652F6E6F656C2F4442
:101CE00065762F53444B2F6E5246355F53444B5FFE
:101CF00031352E302E305F613533363431612F630C
:101D00006F6D706F6E656E74732F616E742F616E80
:101D1000745F70726F66696C65732F616E745F6853
:101D2000726D2F616E745F68726D2E63000000002B
:101D3000414E542048524D206368616E6E656C20A0
:101D40002575206F70656E0048524D205258205006
:101D5000616765204E756D6265723A2025750000D9
:101D6000616E745F68726D5F706167655F300000FF
:101D70004865617274206265617420636F756E746A
:101D80003A20202020202020202020202020202039
:101D90002020257500000000436F6D707574656428
:101DA00020686561727420726174653A2020202079
:101DB0002020202020202020202025750000000049
:101DC00048656172742062656174206576656E7421
:101DD0002074696D653A20202020202020202020BA
:101DE000202025752E25303375730D0A0A0000005A
:101DF000616E745F68726D5F706167655F3100006E
:101E000043756D756C6174697665206F706572617C
:101E100074696E672074696D653A20202020202047
:101E20002020257564202575682025756D20257571
:101E3000730D0A0A00000000616E745F68726D5FC6
:101E4000706167655F3200004D616E756661637435
:101E5000757265722049443A2020202020202020DD
:101E60002020202020202020202025750000000098
:101E700053657269616C204E6F20287570706572B1
:101E80002031362D62697473293A202020202020C9
:101E90002020307825580D0A0A000000616E745F1A
:101EA00068726D5F706167655F33000048617264DE
:101EB00077617265205265762049442020202020D9
:101EC00020202020202020202020202020202575B8
:101ED000000000004D6F64656C2020202020202031
:101EE00020202020202020202020202020202020F2
:101EF000202020202020257500000000536F6674EC
:101F00007761726520566572204944202020202088
:101F10002020202020202020202020202020257567
:101F20000D0A0A00616E745F68726D5F70616765AB
:101F30005F34000050726576696F75732068656163
:101F400072742062656174206576656E74207469B0
:101F50006D653A20202025752E25303375730D0AC6
:101F60000A0000002F686F6D652F6E6F656C2F443F
:101F700065762F53444B2F6E5246355F53444B5F6B
:101F800031352E302E305F613533363431612F6379
:101F90006F6D706F6E656E74732F616E742F616EEE
:101FA000745F73746174655F696E64696361746F93
:101FB000722F616E745F73746174655F696E6469BA
:101FC0006361746F722E63002F686F6D652F6E6F83
:101FD000656C2F4465762F53444B2F6E5246355F08
:101FE00053444B5F31352E302E305F6135333634FC
:101FF00031612F636F6D706F6E656E74732F6C69D6
:10200000627261726965732F6273702F6273705FA1
:1020100062746E5F616E742E630000000000000049
:102020000338FDD8704700006E72665F7364680005
:102030002F686F6D652F6E6F656C2F4465762F531B
:10204000444B2F6E5246355F53444B5F31352E3033
:102050002E305F613533363431612F636F6D706FB1
:102060006E656E74732F736F6674646576696365ED
:102070002F636F6D6D6F6E2F6E72665F7364682E67
:1020800063000000333833312D353231642D37642D
:1020900066392D323464382D656666332D34363713
:1020A000622D323235662D61303065000100000747
:1020B0000C22030014220300080000006E72665F09
:1020C0007364685F616E740073645F616E745F65F2
:1020D0006E61626C6528292072657475726E656424
:1020E0002025732E00000000010020006C27002036
:1020F000800000002F686F6D652F6E6F656C2F4438
:1021000065762F53444B2F6E5246355F53444B5FD9
:1021100031352E302E305F613533363431612F63E7
:102120006F6D706F6E656E74732F736F6674646518
:10213000766963652F636F6D6D6F6E2F6E72665F6C
:102140007364685F616E742E63000000FC210300FD
:102150000C22030008000000A01F00200000000067
:10216000801C030000000000881C03000000000029
:102170008C1C030000000000941C03000000000001
:102180009C1C030000000303601D03000000030308
:10219000F01D030000000303381E030000000303CA
:1021A0009C1E030000000303241F03000000030320
:1021B00090100300000003037C10030000000003E4
:1021C000681103000000030328200300000003033C
:1021D000BC200300000003034C17030000000000B4
:1021E0002C210020642000206C2000206C20002086
:0821F00034200020180000005B
:0421F80061FC020084
:1021FC00B9FB0200000000007102030000000000A7
:08220C00210C0300000000009A
:082214002CB0FF7F0100000067
:10221C0078120300B812030000000000141303002E
:10222C0060130300AC13030000000000000000006A
:10223C00F8130300101403007C140300E8140300CB
:10224C002C150300701503000000000000000000B6
:10225C0078120300B415030010160300981603003F
:10226C000000000000000000000000000000000062
:10227C00CC16030000170300FFFF00000090D003F2
:10228C000000000000000000000000000000000042
:10229C000000000000000000000000000000000032
:1022AC000000000000000000000000000000000022
:1022BC000000000000000000000000000000000012
:1022CC000000000000000000000000000000000002
:1022DC0000000000000000000000000000000000F2
:0822EC0025D2020001D202001C
:1022F40000000000000000000000000000000000DA
:1023040000000000000000000000000000000000C9
:1023140000000000000000000000000000000000B9
:1023240000000000000000000000000000000000A9
:040000032000D2B552
:00000001FF
