:020000040000FA
:1000000000040020E90800007D050000C908000088
:1000100087050000910500009B050000000000001E
:100020000000000000000000000000000D090000BA
:10003000A505000000000000AF050000B9050000A4
:10004000C3050000CD050000D7050000E105000054
:10005000EB050000F5050000FF05000009060000A3
:10006000130600001D0600002706000031060000F0
:100070003B060000450600004F0600005906000040
:10008000630600006D060000770600008106000090
:100090008B060000950600009F060000A9060000E0
:1000A000B3060000BD060000C7060000D106000030
:1000B000DB060000E5060000EF060000F906000080
:1000C000030700000D0700001707000021070000CC
:1000D0002B070000350700003F070000490700001C
:1000E000530700005D07000067070000710700006C
:1000F0007B070000850700008F07000099070000BC
:10010000A30700001FB500F003F88DE80F001FBD26
:1001100000F0E0BB1FB56FF00100009040100390AD
:10012000029001904FF010208069000B420900F00E
:100130001F045DF822300120A04083434DF8223097
:10014000684600F045F91FBDF0B54FF6FF734FF458
:10015000B4751A466E1E11E0A94201D3344600E080
:100160000C46091B30F8027B641E3B441A44F9D14B
:100170009CB204EB134394B204EB12420029EBD17E
:1001800098B200EB134002EB124140EA0140F0BD8F
:10019000DE4992B00446D1E90001CDE91001FF2209
:1001A0004021684600F03CFB94E80F008DE80F000A
:1001B000684610A902E004C841F8042D8842FAD12B
:1001C00010216846FFF7C0FF1090AA208DF8440068
:1001D000FFF7A0FF00F0F3F84FF01024A069102201
:1001E0006946803000F002F9A069082210A900F0E9
:1001F000FDF800F0D8F84FF080510A6949690068AD
:100200004A43824201D8102070470020704710B541
:10021000D0E900214FF0805002EB8103026944696C
:100220006243934209D84FF01022536903EB8103D4
:100230000169406941438B4201D9092010BD5069D1
:10024000401C01D0002010BD0F2010BD70B501680A
:100250000446AF4D4FF01020072952D2DFE801F0DD
:10026000330419293C1E2500D4E902656468294637
:10027000304600F0CDF82A462146304600F0B6F868
:10028000AA002146304600F09FFA002800D0032043
:1002900070BD00F051FB4FF4805007E0201DFFF7C8
:1002A000AAFF0028F4D100F047FB60682860002016
:1002B00070BD241D94E80700920000F085FA002824
:1002C000F6D00E2070BD8069401C12D0201DFFF7B3
:1002D0009EFF0028F6D109E08069401C09D0201D4E
:1002E000FFF789FF0028EDD1606820B12046FFF7B5
:1002F0004FFF042070BDFFF70DFF00F060F800F025
:1003000052F8072070BD10B50C46182802D0012005
:10031000086010BD2068FFF799FF206010BD4FF006
:100320001024A069401C05D0A569A66980353079E4
:10033000AA2808D06069401C2DD060690068401C64
:1003400029D060692CE010212846FFF7FDFE3168B6
:1003500081421CD1A16901F18002C03105E030B1B8
:1003600008CA51F8040D984201D1012000E0002094
:100370008A42F4D158B1286810B1042803D0FEE7AE
:10038000284600F057F862496868086008E000F005
:1003900016F800F008F84FF480500168491C01D0AD
:1003A00000F0A4FAFEE7BFF34F8F5A4801685A4A9B
:1003B00001F4E06111430160BFF34F8FFEE74FF09E
:1003C00010208169491C02D0806900F0AEB87047E6
:1003D000524A01681160121D416811604F4A8168DC
:1003E00010321160111DC068086070472DE9F0419E
:1003F00017460D460646002406E03046296800F000
:10040000A7F8641C2D1D361DBC42F6D3BDE8F08153
:1004100070B50C4605464FF4806608E0284600F0AB
:1004200084F8B44205D3A4F5806405F58055002C0A
:10043000F4D170BD4168044609B1012500E00025F2
:100440004FF010267069A268920000F0BDF9C8B1A3
:10045000204600F01AF89DB17669A56864684FF4EB
:10046000002084420AD2854208D229463046FFF74E
:10047000CFFF2A4621463046FFF7B8FFFFF79FFF20
:10048000FFF791FFFFF746FEF8E72DE9FF414FF038
:100490001024616980680D0B01EB800000F6FF708D
:1004A000010B0020009001900290024603906846E4
:1004B00001230BE0560902F01F0C50F8267003FAD6
:1004C0000CFC47EA0C0740F82670521CAA42F1D3F4
:1004D0000AE04A0901F01F0650F8225003FA06F616
:1004E000354340F82250491C8029F2D3A169090BF9
:1004F0004A0901F01F0150F822408B409C4340F80C
:100500002240FFF765FFBDE8FF8100005C090000A5
:10051000000000200CED00E00400FA050006004099
:10052000144801680029FCD07047134A0221116069
:1005300010490B68002BFCD00F4B1B1D186008687E
:100540000028FCD00020106008680028FCD070470C
:10055000094B10B501221A60064A1468002CFCD021
:10056000016010680028FCD0002018601068002886
:10057000FCD010BD00E4014004E5014008208F4993
:1005800009680958084710208C4909680958084724
:1005900014208A49096809580847182087490968BA
:1005A0000958084730208549096809580847382004
:1005B00082490968095808473C2080490968095858
:1005C000084740207D4909680958084744207B496D
:1005D00009680958084748207849096809580847B0
:1005E0004C20764909680958084750207349096822
:1005F0000958084754207149096809580847582084
:100600006E490968095808475C206C49096809580F
:100610000847602069490968095808476420674904
:100620000968095808476820644909680958084753
:100630006C20624909680958084770205F490968B9
:100640000958084774205D49096809580847782007
:100650005A490968095808477C20584909680958C7
:10066000084780205549096809580847842053499C
:1006700009680958084788205049096809580847F7
:100680008C204E4909680958084790204B49096851
:10069000095808479420494909680958084798208B
:1006A00046490968095808479C204449096809587F
:1006B0000847A0204149096809580847A4203F4934
:1006C000096809580847A8203C490968095808479B
:1006D000AC203A49096809580847B02037490968E9
:1006E00009580847B4203549096809580847B8200F
:1006F0003249096809580847BC2030490968095837
:100700000847C0202D49096809580847C4202B49CB
:10071000096809580847C82028490968095808473E
:10072000CC202649096809580847D0202349096880
:1007300009580847D4202149096809580847D82092
:100740001E49096809580847DC201C4909680958EE
:100750000847E0201949096809580847E420174963
:10076000096809580847E8201449096809580847E2
:10077000EC201249096809580847F0200F49096818
:1007800009580847F4200D49096809580847F82016
:100790000A49096809580847FC20084909680958A6
:1007A00008475FF480700549096809580847000048
:1007B00003480449024A034B704700000000002030
:1007C000680900006809000040EA010310B59B07B2
:1007D0000FD1042A0DD310C808C9121F9C42F8D0AB
:1007E00020BA19BA884201D9012010BD4FF0FF305C
:1007F00010BD1AB1D30703D0521C07E0002010BD72
:1008000010F8013B11F8014B1B1B07D110F8013BFD
:1008100011F8014B1B1B01D1921EF1D1184610BDDE
:1008200002F0FF0343EA032242EA024200F005B865
:100830007047704770474FF000020429C0F01280E3
:1008400010F0030C00F01B80CCF1040CBCF1020F83
:1008500018BF00F8012BA8BF20F8022BA1EB0C0158
:1008600000F00DB85FEAC17C24BF00F8012B00F84E
:10087000012B48BF00F8012B70474FF0000200B574
:10088000134694469646203922BFA0E80C50A0E8B3
:100890000C50B1F12001BFF4F7AF090728BFA0E861
:1008A0000C5048BF0CC05DF804EB890028BF40F82D
:1008B000042B08BF704748BF20F8022B11F0804F6F
:1008C00018BF00F8012B7047014B1B68DB68184705
:1008D0000000002009480A497047FFF7FBFFFFF7B7
:1008E00011FC00BD20BFFDE7064B1847064A10600B
:1008F000016881F30888406800470000680900002B
:10090000680900001F030000000000201EF0040F13
:100910000CBFEFF30881EFF3098188690238007892
:10092000182803D100E00000074A1047074A126860
:100930002C3212681047000000B5054B1B68054AB1
:100940009B58984700BD00000703000000000020EE
:100950005809000004000000001000000000000022
:0809600000FFFFFF0090D0032F
:10100000F817002095B502007DB6000007B5020074
:101010007DB600007DB600007DB600000000000037
:10102000000000000000000000000000EDB502001C
:101030007DB60000000000007DB600007DB6000017
:1010400055B602005BB602007DB600007DB600001A
:101050007DB600007DB600007DB600007DB60000C4
:1010600061B602007DB600007DB6000067B60200E2
:101070007DB600006DB6020073B6020079B60200BC
:101080007DB600007DB600007DB600007DB6000094
:101090007DB600007DB600007DB600007DB6000084
:1010A0007DB600007FB602007DB600007DB6000070
:1010B0007DB600007DB600007DB600007DB6000064
:1010C00085B602007DB600007DB600007DB600004A
:1010D0007DB600007DB600007DB600007DB6000044
:1010E0007DB600007DB600007DB600007DB6000034
:1010F0007DB600007DB600007DB600007DB6000024
:101100007DB600007DB6000000F002F82AF02FFA4C
:101110000AA090E8000C82448344AAF10107DA4552
:1011200001D12AF024FAAFF2090EBAE80F0013F049
:10113000010F18BFFB1A43F001031847F8AB020078
:1011400018AC02000A444FF0000C10F8013B13F0F9
:10115000070408BF10F8014B1D1108BF10F8015B10
:10116000641E05D010F8016B641E01F8016BF9D103
:1011700013F0080F1EBF10F8014BAD1C0C1B09D15A
:101180006D1E58BF01F801CBFAD505E014F8016BCC
:1011900001F8016B6D1EF9D59142D6D3704700005E
:1011A0000023002400250026103A28BF78C1FBD870
:1011B000520728BF30C148BF0B6070471FB500F011
:1011C000B5F88DE80F001FBD8269034981614FF0BA
:1011D0000100104470470000DD11000001B41EB48E
:1011E00000B503F041F801B40198864601BC01B096
:1011F0001EBD00001EF0040F0CBFEFF30880EFF3DC
:101200000980014A104700001B480000F0B4404626
:10121000494652465B460FB402A0013001B506486C
:10122000004700BF01BC86460FBC804689469246F7
:101230009B46F0BC7047000009110000401E00BF33
:1012400000BF00BF00BF00BF00BF00BF00BF00BFA6
:1012500000BF00BF00BF00BF00BF00BF00BF00BF96
:1012600000BF00BF00BF00BF00BF00BF00BF00BF86
:1012700000BF00BF00BF00BF00BF00BF00BF00BF76
:1012800000BF00BF00BF00BF00BF00BF00BF00BF66
:1012900000BF00BF00BF00BF00BF00BF00BF00BF56
:1012A00000BF00BF00BF00BF00BF00BF00BFC5D16F
:1012B00070470000401E00BF00BF00BF00BF00BF5E
:1012C00000BF00BF00BF00BF00BF00BF00BF00BF26
:1012D00000BF00BF00BF00BF00BF00BF00BF00BF16
:1012E00000BF00BF00BF00BF00BF00BF00BF00BF06
:1012F00000BF00BF00BF00BF00BF00BF00BF00BFF6
:1013000000BF00BF00BF00BF00BF00BF00BF00BFE5
:1013100000BF00BF00BF00BF00BF00BF00BF00BFD5
:1013200000BF00BF00BFC5D1704700002AF01CB944
:10133000554800210170417010218170704770B5CF
:10134000054616460C46022000F067F94E4901207A
:1013500008704E49F01E08604D480560001F04608B
:1013600070BD10B5022000F058F9474901200870FF
:1013700048480021C0F80011C0F80411C0F8081155
:1013800045494FF40000086010BD3F480178D9B1CD
:10139000424A4FF4000111603E49D1F80031002269
:1013A000002B1CBFD1F80431002B02D0D1F808115A
:1013B00019B142704FF0100104E04FF0010141708B
:1013C00037490968817002704FF0000000F025B9BC
:1013D0002D480178002904BF407870472D48D0F887
:1013E0000011002904BF02207047D0F80011002925
:1013F0001CBFD0F80411002905D0D0F8080100283E
:1014000004BF01207047002070471F4800B50278D4
:10141000204B4078C821491EC9B282B1D3F800C11F
:10142000BCF1000F10D0D3F8000100281CBFD3F886
:10143000040100280BD0D3F8080150B107E00228BE
:1014400002D0012805D002E00029E4D1FFDF00200E
:1014500000BD012000BD0C480178002904BF807840
:1014600070470C48D0F8001100291CBFD0F80411B7
:10147000002902D0D0F8080110B14FF010007047D9
:1014800007480068C0B270470800002010F500400F
:1014900008F5004000F0004004F5014008F5014067
:1014A00000F400404C48002101704170704770B555
:1014B000064614460D46012000F0AFF84748066086
:1014C000001D0460001D056070BD70B5424A012515
:1014D00040EA01411570424A41F080711160414C6F
:1014E0000026C4F80461404A4FF0407111600028A2
:1014F00002BFC4F80052256070BD012818BFFFDF8D
:10150000C4F8006225604FF000703849086070BD73
:101510003148017879B1344A4FF040711160314956
:10152000D1F804210021002A08BF417002D0304ABE
:10153000126842700170002000F06FB826480178F0
:10154000002904BF407870472648D0F804010028DD
:1015500008BF704726480068C0B27047002808BF1F
:10156000704730B51C480078002808BFFFDF1D48D1
:10157000D0F80411002918BF30BD0224C0F804437C
:10158000DFF870C0DCF80010C1F30015DCF80010C3
:1015900041F01001CCF80010D0F80411002904BF6C
:1015A0004FF400414FF0E02207D100BFC2F8801293
:1015B00020BFD0F80431002BF8D02DB9DCF8001092
:1015C00021F01001CCF80010C0F8084330BD0549E7
:1015D00001208860704700000B00002008F50040E3
:1015E00004F5004000F0004008F5014004F501401A
:1015F00000F4004010ED00E04FF0E0224FF4004115
:101600000020C2F88011BFF34F8FBFF36F8F2049C6
:101610000870204990020860704730B51C4D0446A0
:101620002878A04218BF002C02D0002818BFFFDF86
:101630002878A04208BF30BD2C701749154A0020F9
:10164000ECB1164DDFF858C0131F012C0DD0022C41
:101650001CBFFFDF30BD086003200860CCF80050DD
:101660004FF400001060186030BD08600220086070
:10167000CCF800504FF040701060186030BD08602A
:1016800008604FF06070106030BD00B5FFDF00BD36
:101690000D00002008F5014000F50040BC020020CC
:1016A00014F5004010B500F009F8FFF7A5FFFFF7AB
:1016B0003FFEBDE81040FFF7F5BE000070B5F94CE5
:1016C00000250120657025706572A572E07284F8AE
:1016D0002150A56204F13800656301F069FF00281C
:1016E00018BFFFDFA577F04829F0E8FFEF494FF07A
:1016F000FF300860091D0860091D0D60091D0860A4
:10170000091D0D60091D0860091D0860091D08609C
:10171000091D0860091D0860091D0860091D086091
:10172000091D0860091D086070BD30B4DD490268FC
:10173000DFF880C34A6142688A61007A08770A7DCF
:10174000DB4BACF1040401204AB10A7E00FA02F23C
:101750001A608D7D002D0CBF2260CCF800204A7DE0
:10176000002A04BF30BC70474A7E90401860C97D93
:1017700000290CBF2060CCF8000030BC7047CF4976
:10178000CD480860091DCE480860704710B5044672
:10179000012908BF002105D002291ABFFFDF00215F
:1017A0004FF0807141F48470C44940F480100860A7
:1017B000E0B240F44030091D40F000700860C148BC
:1017C000D0F80001002818BFFFDF10BD01202DE96F
:1017D000F04102254FF0E0270026C7F88051BFF303
:1017E0004F8FBFF36F8FB8490E600860B7490A6822
:1017F00022F0770242F0880242F000420A60091D9E
:101800000A6822F47F4242F4B0520A60A54CB04903
:1018100065770D60B04AAF491160121FAF49116082
:10182000AF4A40F25B611160121F40F20311116078
:10183000111F0860AB4903200860AB49962008607F
:1018400094F91E0000F068FE607F002814BF4FF47A
:10185000C020A648A6490860A749A6480860091FF5
:10186000A6480860C7F8805296491020C1F80403C2
:1018700084F82D60BDE8F081A148016821F00101E4
:1018800041F0807101607047864A0368C2F80230F7
:101890008088D08011727047824890F8210070478C
:1018A000804A517010707047F0B50546800000F115
:1018B000804000F580508B88C0F820360B78D1F836
:1018C000011043EA0121C0F8001605F108000127C4
:1018D00007FA00F68B4C002A04BF2068B04304D0FE
:1018E000012A18BFFFDF206830432060206807FA14
:1018F00005F108432060F0BD10B5044600F00CFE71
:101900006848847710BD674890F82E007047654896
:1019100090F8300070477C4AC178116000687B49BC
:10192000000208607047252808BF02210ED0262833
:1019300008BF1A210AD0272808BF502106D00A283C
:1019400094BF0422062202EB4001C9B2704A116022
:1019500070490860704770B4524B93F80AC0BCF1EC
:10196000010F21D0BCF1020F1CBF70BC70475C7D21
:10197000002C04BF70BC70474FF47A74BCF1010FA7
:10198000654E16D0DD7D93F819C0002D18BF0125D6
:10199000012908BF292121D0022A08BF5F4E06F283
:1019A000E141B1FBF4F119E01C7D002CE4D170BCE5
:1019B00070479D7D93F818C0002D18BF012501299F
:1019C00047D0022A06BF564E4FF47A714FF4C861D1
:1019D000314401F5FA7100BFB1FBF4F1491F08442D
:1019E0005049086050490020C1F84C014FEA0C20D2
:1019F00085F0010140EA015040F00311187F820098
:101A000002F1804202F5C042C2F81015474901EBCD
:101A10008001987EC20002F1804202F5F832C2F8DD
:101A20001415DFF80CC1C2F810C5DA7ED30003F13B
:101A3000804303F5F833C3F814153049C3F8101583
:101A4000012101FA00F0914008433A49086070BC56
:101A50007047022A14BF4FF4C8614FF47A7149F6F7
:101A6000FC621144B8E72DE9F041164D074603200A
:101A700014468846C5F800020A4E707F002814BF3D
:101A80004FF4C02019482B490860404600F092FDF1
:101A9000204600F06FFD012017B1012F5FD061E0FB
:101AA0004AE00000C8030020DC030020000E0040D4
:101AB000180500500C0500500601020014150040E6
:101AC0002500030200100040FC1F00403C170040AE
:101AD00060150040448000409CF501402811004002
:101AE0003815004010150040441500400000040463
:101AF00008F5014040800040A4F50140101100406D
:101B00007417004040160040241500401C1500408A
:101B10000815004054150040A224020004360200BB
:101B2000683602004C8500400080004000600040A4
:101B30004C81004004F50140FE4B19685A06022C06
:101B4000D2F8202314BFC2F30622C2F3066221F4A6
:101B5000FE4141EA02211960B072286002E00221D0
:101B6000B1726860F449C864F4480068224641468E
:101B7000BDE8F041EFE62DE9F0418846F04907461F
:101B800003201546C1F80002EE4C607F002814BF08
:101B90004FF4C020EC48ED4E3060404600F00AFDA6
:101BA000284600F0E7FC17B1012F19D021E0E149E8
:101BB0000A684806022DD0F8200314BFC0F306209F
:101BC000C0F3066022F4FE4242EA002008600120D1
:101BD000A072606B40F4801060634FF4801007E0E7
:101BE0000220A072606B40F4001060634FF400109C
:101BF00030602A464146BDE8F0410020ABE62DE9C1
:101C0000FF4FCF4C8246002681B003208946C4F89E
:101C10000002CC4D687F002814BF4FF4C020CA4892
:101C2000CA4F3860039800F0C5FC049800F0A2FC8D
:101C3000C7494FF00108BAF1000F03D0BAF1010F04
:101C400033D03CE0BB4B04981A684FF0805C02280C
:101C5000DCF8200314BFC0F30620C0F3066022F4B2
:101C6000FE4242EA002018600C6095F82D00012821
:101C700007D0022818BFFFDF0DD000BF85F80A800B
:101C80001DE0DDE9031395F82C20484600F0E4FC44
:101C9000A96A4618F2E7DDE9031295F82C304846A8
:101CA00000F095FCA96A4618E8E7AA48086095F88C
:101CB0002D00012818BFFFDF20D00220A872A648FF
:101CC0000660A749A5480860686B40F40020686377
:101CD000D4F800924FF0100AC4F808A30025C4F805
:101CE0000052A0484FF4802BC0F800B0FF208DF8C0
:101CF0000000C4F81051C4F810800EE0DDE90313B1
:101D000095F82C20962000F085FCA96A4618D4E7A7
:101D10009DF80000401E8DF800009DF8000018B1ED
:101D2000D4F810010028F3D09DF80000002808BF67
:101D3000FFDFC4F80051C4F80C51C4F81051C4F8C6
:101D40000451C4F81451C4F81851C4F828518648F5
:101D500000680090C4F80092C7F800B0C4F804A36B
:101D60004FF4002038607448C0F84C807348006815
:101D7000B04228BFFFDF3046DDE9031205B0BDE801
:101D8000F04FE8E52DE9F8476D4CD4F8000220F05B
:101D90000309D4F804034FF0100AC0F30018C4F884
:101DA00008A30026C4F80062664D687F002814BFAF
:101DB0004FF4C02064486B490860A87A01270128C5
:101DC00002D0022803D014E0287D10B911E0687D0C
:101DD00078B1A87EEA7E07FA00F007FA02F2104313
:101DE0000860287F800000F1804000F5C040C0F806
:101DF0001065FF208DF80000C4F81061276104E031
:101E00009DF80000401E8DF800009DF8000018B1FC
:101E1000D4F810010028F3D09DF80000002808BF76
:101E2000FFDFC4F81061C4F828616E72AE72EF7201
:101E3000C4F80092B8F1000F18BFC4F804A3BDE8BD
:101E4000F8870068494920F07F40086070474FF0EC
:101E5000E0210220C1F88001BFF34F8FBFF36F8FE5
:101E600070474FF0E0200221C0F8801100F5C070EB
:101E7000BFF34F8FBFF36F8FC0F8001170474FF063
:101E8000E0210220C1F8000170473949087070470D
:101E900010B5384801F094FB002818BFFFDF10BDD3
:101EA000344801F0A3BB34490860704730B5254C75
:101EB0000546A06AA84228BFFFDF012020732561E4
:101EC000607F40B1284420611D48D0F8001241F0E5
:101ED0004001C0F8001218490020C1F84401274908
:101EE00020690860606B194940F4800060634FF41A
:101EF0008000086030BD70B5124C0546022020738A
:101F000000F045FB024694F82C10284600F0CEFB6A
:101F10002061617F41B1084420610948D0F8001276
:101F200041F04001C0F8001203490020C1F844010B
:101F3000216925E088150040008000404C85004064
:101F400000100040C80300200000040404F5014014
:101F5000ACF5014004100040488500404881004035
:101F6000A8F5014008F50140181100403C1500405B
:101F70000E000020000400200415004044850040AD
:101F8000A06A0844FD49086070BDFD494FF4800017
:101F90000860FC48416B21F480014163002101731A
:101FA0007047F94801214160C1600021C0F8441127
:101FB000F2480160F34881627047F2494020487757
:101FC000F2490860F248D0F8001241F04001C0F830
:101FD00000127047EE48D0F8001221F04001C0F81E
:101FE0000012EA49022008607047E948D0F8001260
:101FF00021F01001C0F80012012181617047E4480E
:102000000021C0F81C11D0F8001241F01001C0F8F6
:1020100000127047DE4981B0D1F81C21012A1EBF91
:10202000002001B07047DB4A126802F07F02524282
:1020300002700020C1F81C01D74800680090012000
:1020400001B0704730B50C00054608BFFFDF14F043
:10205000010F1CBF012CFFDF002D0CBF012002204F
:10206000C84901284872CC72C94904BFD1F800029E
:1020700040F0040007D0022807BFD1F8000240F06A
:102080000800FFDF30BDC1F8000230BD70B5BD4CA7
:102090000023E17A11F0020F18BF10F0040F16D1DF
:1020A00011F0100F1CBF94F82F20002A02D094F8D2
:1020B000312062B111F0080F1CBF94F82020002AD3
:1020C00005D111F0040F04D094F8211009B94FF094
:1020D000010394F809C0AE494FF00102BCF1000FB2
:1020E00006D000F00200184312D0BDE8704049E667
:1020F000607F002814BF4FF4C020A848A04B186090
:10210000D1F8000220F00300C1F80002E27270BDB5
:1021100000252846BCF1010F0BD0BCF1020F18BFFF
:10212000FFDF16D0A06A01222844BDE870400021DC
:1021300011E4D1F8003223F00403C1F800326072D8
:10214000E272A27201231A460021962000F03FFAA3
:102150000FE0D1F8003223F00803C1F800326072BA
:10216000E2720220A07201231A460021962000F09C
:1021700051FA0546D6E72DE9F84F834FD7F84C21A1
:10218000804C7F494FF00108A07A0026CAB101288F
:1021900002D0022803D014E0227D12B911E0627D42
:1021A0007AB1A27EE37E08FA02F208FA03F31A4338
:1021B0000A60227F920002F1804202F5C042C2F81A
:1021C0001065626B0A606663217B29B1D7F8441100
:1021D000012908BF012200D000226D4DD5F8101151
:1021E00001290CBF40210021012805BFD5F80C3181
:1021F000012B0023202343EA0101012805BFD5F864
:102200000431012B0023102343EA0103644902280F
:1022100004BFD1F800C0BCF1010F07D1D5F80CC143
:10222000BCF1010F08BF4FF0080C01D04FF0000CBB
:102230004CEA0303022804BF0968002905D1D5F838
:102240000C11012908BF042100D0002119430228E4
:1022500003D1002A18BF022200D100221143022814
:1022600004BFD5F80401012805D1D7F8440101289D
:1022700018BF012000D1002040EA01094948016847
:1022800011F0FF0F03D0D5F81411012900D000215F
:1022900084F82E10006810F0FF0F03D0D5F8180155
:1022A000012800D0002084F82F003F48006884F8FF
:1022B000300036480068402803D1FFF789F801282C
:1022C00000D0002084F83100C5F80061C5F80C6129
:1022D000C5F81061C5F80461C5F81461C5F8186146
:1022E000C5F82861314800680090C7F8446130485B
:1022F00000684D46DFF884900090D9F800106162C4
:10230000607F00281CBF081A60622A480068A0622B
:1023100000F03DF984F82C00A07ADFF89CA084F846
:102320002D0002280CD1607850B1DAF8001009783D
:102330000840217831EA000008BF84F8208001D0ED
:1023400084F82060DFF8748015F0010F3CD098F815
:1023500000101B4A4908606A52F821108847012181
:10236000184A98F80030A06A52F82320904700BF1E
:1023700098F8000010F0010F31D045E0448500408E
:1023800008F50140C80300200080004060150040AF
:1023900000100040481500401C11004000000404DB
:1023A0000014004040160040101400401811004076
:1023B0004481004040850040041500400E0000208C
:1023C000D0B6020008B7020015F0200F18BF022196
:1023D000C6D115F0020F18BF0021C1D1C8E7DAF845
:1023E0000000062200F10901A01C28F073FF40B98B
:1023F000207ADAF800100978B0EBD11F08BF01206D
:1024000000D0002084F821002846FFF73FFE15F099
:10241000020F05D03C4898F8001050F82100804782
:1024200015F00C0F07D0394898F8001050F821101B
:10243000C5F3C000884715F0200F05D0344898F840
:10244000001050F82100804798F80000022805D1BC
:1024500005F06E00402806D105F090FC98F80000C9
:10246000042828BFFFDFA07A022818BFBDE8F88F34
:10247000207B002808BFBDE8F88FC7F84461022818
:1024800014D0012818BFFFDFA16A2069884298BFD5
:10249000FFDF2069C9F80000606B1E4940F480002E
:1024A00060634FF480000860BDE8F88F2169A06A7E
:1024B0000844EFE7012804BF28207047022804BF22
:1024C0001820704700B5FFDF282000BD012804BF99
:1024D00041F6A4707047022804BF41F2883070476B
:1024E00000B5FFDF41F6A47000BD012804BF41F232
:1024F000D4707047022804BF41F20400704700B551
:10250000FFDF41F2D47000BDD8B60200E8B6020089
:10251000F8B6020004F5014000B5764910F1080F45
:1025200008BFF82024D014DC10F1280F08BFD820F1
:102530001ED010F1140F08BFEC2019D010F1100FAD
:1025400008BFF02014D010F10C0F08BFF4200FD0FA
:102550000CE010F1040F08BFFC2009D0002818BFC0
:10256000032805D0042804BF086000BDFFDF00BDBC
:10257000086000BD00B56049012808BF032004D0F1
:10258000022816BFFFDF042000BD086000BD5A48C6
:10259000016801F00F01032904BF012070470068A2
:1025A00000F00F00042804BF0220704700B5FFDFD1
:1025B000012000BD5149002808BF086805D0012846
:1025C00006BF086840F0010070470860704770B5AA
:1025D0000546012914D0022A07BF49484FF47A71F1
:1025E00048484FF4C86144181846FFF76FFF20446D
:1025F0004FF47A7100F27120B0FBF1F0281A70BD2F
:10260000022A14BF4FF4C8604FF47A7049F608519B
:102610004418E9E770B514460546012908BF49F694
:10262000CA6605D0022B0CBF3748364800F1FA06BF
:102630001046FFF75AFF012C0CBF4FF47A714FF48C
:10264000FA71711A08444FF47A7100F28920B0FBD4
:10265000F1F0281A801E70BD70B515460646012996
:102660001AD0022B07BF26484FF47A7125484FF441
:10267000C86144181046FFF738FF012D0CBF4FF416
:102680007A714FF4FA71611A08444FF47A71643820
:10269000B0FBF1F0301A70BD022B14BF4FF4C860CC
:1026A0004FF47A7049F608514418E3E770B50546CF
:1026B0000C4616461046FFF709FF05EB4501C1EB36
:1026C000C51100EBC100012C0CBF4FF47A714FF41F
:1026D000FA7145182046FFF708FF281A4FF47A715F
:1026E00000F60F60B0FBF1F43046FFF7E3FE204444
:1026F000401D70BD0C1500401015004050160040E4
:1027000068360200A22402000436020010B5044616
:102710000021012000F048F800210B2000F044F8CF
:102720000421192000F040F804210D2000F03CF8AD
:1027300004210E2000F038F804210F2000F034F8B6
:102740000421C84300F030F80621162000F02CF8D0
:102750000621152000F028F8204608F03BFF20460F
:1027600008F0B0FF002010BD9B210180704710B51C
:1027700008F040FFBDE8104008F0B9BF12487047AC
:10278000124A10B51468114B114A08331A60C02858
:1027900002D309F0E9FD01E008F02EFF0B48001D0F
:1027A000046010BD704770474907090E002804DB1C
:1027B00000F1E02080F80014704700F00F0000F1F5
:1027C000E02080F8141D704703F900421005024014
:1027D000010000012DE9F0410C4611490D68104A35
:1027E000104908321160A0F120012A2901D30120EB
:1027F0000CE03E2810D040CC0B4F94E80E0007EBC5
:102800008000241F50F8807C3046B8472060044880
:10281000001D0560BDE8F0812046FEF7D5FCF5E718
:10282000100502400100000118B7020010B5EFF3D7
:10283000108000F0010472B6E9484178491C4170EB
:102840004078012801D100F09FFB002C00D162B636
:1028500010BD70B5E24CE07848B90125E570FFF78E
:10286000E5FF00F099FB20B1002000F00EFC0020F5
:1028700070BD4FF080406571C0F80453F7E770B544
:10288000EFF3108000F0010572B6D54C607800B906
:10289000FFDF6078401E6070607808B900F078FB58
:1028A000002D00D162B670BDCD4810B5C17821B100
:1028B00000214171C170FFF7E2FF002010BD10B58B
:1028C000044600F069FBC649C978084000D00120E1
:1028D0002060002010BD2DE9F05FDFF804934278FE
:1028E000817889F80620002689F80710074689F8BC
:1028F00008600078354620B101280FD002280FD09B
:10290000FFDF00F056FB98B100F05AFBB0420FD148
:10291000304600F059FB0028FAD047E00126F0E7E6
:10292000FFF784FF00F038FB0028FBD00226E8E721
:1029300001208407E060C4F80451AA490E60010731
:10294000D1F84412A74AC1F3423124321160A5499B
:10295000343108604FF0020BC4F804B3A060DFF814
:1029600088A2DAF80010C94341F3001101F101080F
:10297000DAF8001041F01001CAF8001000E020BFA2
:10298000D4F804010028FAD0304600F01DFB0028DE
:10299000FAD0B8F1000F05D1DAF8001021F01001DB
:1029A000CAF80010C4F808B3C4F8045199F8070035
:1029B0004C4670B1387860B900F0EEFA074601F085
:1029C00077FC6FF0004117B1C4E9031001E0C4E9DE
:1029D000030116B12571BDE8F09F0127BE072771DD
:1029E0004FF01908C6F80883B761C6F80051C6F859
:1029F0000C51C6F8105100F0CFFA10B1A770376132
:102A000000E02770FFF712FF7649A07920310860B7
:102A1000C6F80483DFE770B5050000D1FFDF4FF093
:102A200080424FF0FF30C2F808030021C2F80011C5
:102A3000C2F80411C2F80C11C2F81011684C617090
:102A400000F0B0FA10B10120E07060702846BDE8D7
:102A5000704040E72DE9F05F6448D0F800B0634A69
:102A60006349083211608406D4F8080110B14FF0B0
:102A7000010801E04FF00008D4F8000100B1012086
:102A80008146D4F8040108B1012600E00026D4F8FC
:102A90000C0100B101208246D4F8100108B10127D1
:102AA00000E0002748EA090126EA010020EA0A00BE
:102AB000B84300D0FFDF0025B8F1000F04D0C4F800
:102AC0000851012000F0E1FA5FEA0900DFF8108107
:102AD0004FF0010913D0C4F8005198F8050020B157
:102AE00088F80550002000F0D0FA98F8000030B1C6
:102AF00000F052FA18B188F80290C4F810900EB1A4
:102B0000C4F80451BAF1000F0CD0C4F80C5198F875
:102B10000200464600B9FFDFB5703570C4F8149066
:102B2000FFF7ADFE37B1C4F8105198F8040008B1B2
:102B300000F020F82D49091DC1F800B04BE770B531
:102B4000274DE87808B900F023FA01208407A06136
:102B5000A87850B1D4F80C0120B9002000F034FA64
:102B60000028F7D10020C4F80C014FF0FF30C4F862
:102B7000080370BD2DE9F041194C4FF08047012545
:102B8000E079F0B1012803D0217A401E814218DAA1
:102B900000F002FA064601F08BFBE179012902D927
:102BA000217A491C21720EB1216900E0E168411AC5
:102BB000022902DA11F1020F0BDC0EB1206100E0F4
:102BC000E060FFF733FE00F0E7F928B13D61A57042
:102BD00003E07D61BDE8F081257000202072F9E7F7
:102BE000100000201805004010ED00E01005024024
:102BF00001000001F0B57E4AD2F800327D4D00247C
:102C000001212E7856B97C4E34607B4F03263F1D40
:102C10003E60794F04260C373E602970C2F80042AE
:102C2000D1601160744C4834D16425688542FBD36F
:102C30005160D160C2F80032F0BD2DE9F041044688
:102C400080074FF000054FF0010604D56B48056082
:102C5000066024F00204E0044FF0FF3705D5684811
:102C60004660C0F8087324F48054600003D56548BA
:102C7000056024F08044E0050FD55D48C0F800529F
:102C8000C0F808735C490D60091D0D605A4A0421A3
:102C90000C321160066124F48074A00409D55A48EE
:102CA0004660C0F80052C0F808735848056024F424
:102CB0000054C4F38030C4F3C031884200D0FFDF39
:102CC00014F4404F14D052484660C0F8087351487D
:102CD0008660C0F80052C0F808734F490D600A1DA5
:102CE00016608660C0F808730D60166024F44044D6
:102CF00020050AD5494846608660C0F80873C0F8C8
:102D000048734748056024F4006400F0FFFD45481F
:102D1000044200D0FFDFBDE8F081F0B5002220259D
:102D20000123144620FA02F1C9072DD051B200291F
:102D300010DB00BF4FEA51174FEA870701F01F066B
:102D400007F1E02703FA06F6C7F88061BFF34F8F5B
:102D5000BFF36F8F0CDB00BF4FEA51174FEA8707B5
:102D600001F01F0607F1E02703FA06F6C7F88062B4
:102D700004DB01F1E02181F8004405E001F00F01DE
:102D800001F1E02181F8144D02F10102AA42C9D3F8
:102D9000F0BD70B5174C0D466060FFF74EFF6068E0
:102DA000FFF7BBFF2846FFF736FE00F03DF801F0C5
:102DB00088F800F0ABFD00F0F6FC01F0BDF9BDE8CD
:102DC000704000F07BB910B50A4C6068FFF735FF22
:102DD0006068FFF7A2FF00F099FDFFF7B0FE00204A
:102DE000606010BD0348406870470A2070470000CB
:102DF000008000402400002004850040FC1F0040AB
:102E000000C0004004E5014000D0004004D500406F
:102E100000E0004000F0004000F5004000B000403D
:102E200008B50040FEFF0FFD10B5534800F0C0FB91
:102E300000B1FFDF5048401C00F0BAFB002800D072
:102E4000FFDF10BD2DE9F14F4C4ED6F800B0012741
:102E5000494800F0B5FBDFF8208128B95FF0000792
:102E600008F1010000F0C2FB454C00254FF00309BA
:102E700001206060C4F80051C4F804510099316029
:102E80002060DFF800A118E0DAF80000C00614D5D1
:102E90000E2000F064F8EFF3108010F0010072B61D
:102EA00000D00120C4F80493D4F8001119B9D4F863
:102EB000041101B920BF00B962B6D4F8000118B9F5
:102EC000D4F804010028DFD0D4F804010028CFD1C1
:102ED00037B1C6F800B008F1010000F071FB11E055
:102EE00008F1010000F06CFB0028B9D1C4F8089388
:102EF000C4F80451C4F800510E2000F030F81E4808
:102F000000F074FB0020BDE8F88F2DE9F0438DB090
:102F10000D46064600240DF110090DF1200817E0BA
:102F200004EB4407102255F82710684628F01DFAD4
:102F300005EB870710224846796828F016FA68469C
:102F4000FFF780FF10224146B86828F00EFA641C93
:102F5000B442E5DB0DB00020BDE8F08372E7002845
:102F600009DB00F01F02012191404009800000F1BF
:102F7000E020C0F8801270472C00002004E50040DB
:102F800000E0004010ED00E001208107086070477C
:102F9000012081074860704712480068C00700D0D0
:102FA000012070470F48001F0068C00700D00120B3
:102FB00070470C4808300068C00700D001207047F7
:102FC000084810300068704706490C310A68D2037F
:102FD00006D5096801F00301814201D10120704743
:102FE000002070470C04004070B50C46054622F0E6
:102FF000ECFA21462846BDE8704023F0DEBB70475E
:103000002CFFFFFFDBE5B15100D002009B00FFFF6A
:103010004C010000404B4C00AD70A77D045B56276F
:10302000E5CC2057FBF0E9B85526A56570B52249D7
:103030000A680AB30022154601244B685B1C4B60EA
:10304000092B00D34D600E7904FA06F30E681E4278
:103050000FD0EFF3108212F0010272B600D00122FD
:103060000C689C430C6002B962B64968016000209C
:1030700070BD521C092AE0D3052070BD4FF0E0213D
:103080004FF48000C1F800027047EFF3108111F097
:10309000010F72B64FF0010202FA00F2064803680F
:1030A00042EA0302026000D162B6E7E7024800216B
:1030B000016041607047000030000020DA480021C4
:1030C00001708170704770B5D84D01232B60D84BCB
:1030D0001C68002CFCD0002407E00E6806601E6807
:1030E000002EFCD0001D091D641C9442F5D3002065
:1030F000286018680028FCD070BD70B5CA4E044620
:10310000CC4D3078022800D0FFDFAC4200D3FFDF87
:103110007169C948012903D847F23052944201DD50
:1031200003224271491C7161291BC160C249707838
:1031300002F068FA002800D1FFDF70BD70B5BA4C0C
:103140000D466178884200D0FFDFBA4E082D4ED27E
:10315000DFE805F04D0421304D4D4D3B207802282D
:1031600000D0FFDF03202070A078022802D00128C1
:1031700004D008E0A06800F06DF904E004F1080054
:1031800007C8FFF7A0FF052020700020A070BDE851
:10319000704001F08BBE01F083FF0146606802F0D1
:1031A000B8FEB04202D2616902290BD30320FFF7B7
:1031B0006CFF12E001F074FF0146606802F0A9FEA6
:1031C000B042F3D2BDE8704097E7207802280AD0D9
:1031D000052806D0FFDF04202070BDE8704000F015
:1031E00018B9022000E00320FFF74FFFF3E7FFDFED
:1031F00070BD70B5054601F053FF8B4C60602078C0
:10320000012800D0FFDF8C490120087000200871E0
:103210008D60042048718748C86002202070607863
:1032200002F0F0F9002800D1FFDF70BD10B57E4C30
:10323000A07808B9207808B1112010BD7F4801F0AE
:10324000AFFE60706078202804D00120207000203C
:10325000606110BD032010BD0246010B0120B2F5D4
:10326000003F02D2884000F0CFB9B2F5802F03D2E0
:103270002039884000F0D0B9B2F5C02F03D24039D0
:10328000884000F0D2B9B2F5002F03D260398840EF
:1032900000F0D4B9002070472DE9F041144600EB4E
:1032A00084070E4605463F1F00F0E7F84FF08051B7
:1032B0000A69504306EB8402121FB24201D2012276
:1032C00000E000221CB10969B4EB910F02D909207A
:1032D000BDE8F0815A498D421AD3AF4218D38542D6
:1032E00001D2874203D3574828447C2803D845EAB3
:1032F0000600800701D01020EAE78E4208D33AB9D1
:103300002846FFF7A9FF18B93846FFF7A5FF08B10F
:103310000F20DDE74C484D490068884205D0224621
:1033200031462846FFF7CFFE10E0FFF77FFF002869
:10333000CED13D4801218560C0E9036481704FF41E
:10334000A97104FB01F01830FFF753FF0020BFE71D
:1033500070B54FF08055044628693949B1FBF0F04B
:1033600084420AD300F089F8A04201D8102070BD31
:1033700028696043FFF770FF08B10F2070BD324825
:1033800032490068884204D02869604300F062F83E
:103390000CE0FFF74BFF0028F0D129692248614378
:1033A0008160022181702A48FFF723FF002070BD51
:1033B0002349090BB1EB401F07D9404201EB4011F3
:1033C000202903D34FF0FF307047002101208840AF
:1033D000401E704770B505460C460020FFF7E8FF19
:1033E00028420ED10120FFF7E3FF204209D102203D
:1033F000FFF7DEFF104204D10320FFF7D9FF184288
:1034000001D00F2070BD21462846BDE8704000F075
:103410001EB910B5044C607801F023FE00B9FFDF3F
:1034200000202070A07010BD3800002004E501408D
:1034300000E40140105C0C00040400203D31000059
:1034400000D0020080EFFFEF08010020BEBAFECAE4
:103450007C5E01000B4A022111600B490B68002BB6
:10346000FCD0084B1B1D186008680028FCD0002009
:10347000106008680028FCD070474FF08050406909
:103480007047000004E5014000E4014010B50D2044
:1034900000F077F8C4B26FF0040000F072F8C0B228
:1034A000844200D0FFDF3E490120086010BD70B5A6
:1034B0000D2000F048F83B4C0020C4F80001012525
:1034C000C4F804530D2000F04FF825604FF0E021C0
:1034D0006014C1F8000170BD10B50D2000F033F884
:1034E0003048012141600021C0F80011BDE81040C2
:1034F0000D2000F039B82C4810B504682A492B4833
:10350000083108602749D1F80001012804D0FFDF05
:103510002548001D046010BD2148001D00680022E0
:10352000C0B2C1F8002100F086FDF1E710B51D48DA
:10353000D0F800110029FBD0FFF7DDFFBDE81040F7
:103540000D2000F011B800280DDB00F01F02012152
:1035500091404009800000F1E020C0F88011BFF3E5
:103560004F8FBFF36F8F7047002809DB00F01F02F9
:10357000012191404009800000F1E020C0F8801254
:103580007047002804DB00F1E02090F8000405E01B
:1035900000F00F0000F1E02090F8140D4009704792
:1035A00004D5004000D00040100502400100000199
:1035B00000210170084670470146002008707047DE
:1035C000EFF3108101F0010172B60278012A01D0F7
:1035D000012200E000220123037001B962B60AB1A2
:1035E000002070474FF400507047E9E7EFF3108177
:1035F00011F0010F72B64FF00002027000D162B6F6
:1036000000207047F2E700001F490968014201D01D
:1036100001207047002070471B49091D09680142BD
:1036200001D0012070470020704717491031096808
:10363000014201D001207047002070471249143127
:103640000968014201D0012070470020704710B581
:103650000D4C2060201D01600B4810300260001DE1
:103660000360002010BD09490A6848F202139A431A
:1036700002430A607047054A116848F2021301EAE2
:10368000030099431160704700060040C8060240DD
:103690004C4909680160002070474A4908600020D1
:1036A000704701218A0720B1012804D042F20400AA
:1036B0007047916700E0D1670020704742490120C0
:1036C000086042F20600704708B504233E4A190715
:1036D000103230B1C1F80433106840F001001060BE
:1036E0000BE0106820F001001060C1F808330020E2
:1036F000C1F80801354800680090002008BD011F8E
:103700000B2909D8304910310A6822F01E0242EA1A
:10371000400008600020704742F205007047000139
:1037200000F18040C0F8041900207047000100F14A
:103730008040C0F8081900207047000100F1804067
:10374000D0F80009086000207047012801D907203F
:1037500070471F4A52F8200002680A4302600020A6
:103760007047012801D907207047194A52F82000F4
:1037700002688A43026000207047012801D90720AF
:103780007047134A52F82000006808600020704714
:10379000020010494FF0000003D0012A01D0072099
:1037A00070470A6070474FF080410020C1F808015F
:1037B0004FF0E020802180F800140121C0F80011B2
:1037C0007047000000040040000500400801004070
:1037D000C0B70200780500406249634B0A6863493C
:1037E0009A42096801D1C1F31001016000207047BD
:1037F0005C495D4B0A685D49091D9A4201D1C0F3DD
:1038000010000860002070475649574B0A68574916
:1038100008319A4201D1C0F31000086000207047BF
:1038200030B5504B504D1C6842F20803AC4202D0F8
:10383000142802D203E0112801D3184630BDC3007A
:103840004B481844C0F81015C0F81425002030BDAE
:103850004449454B0A6842F209019A4202D00628BF
:1038600002D203E0042801D308467047404A0121F0
:1038700042F83010002070473A493B4B0A6842F248
:1038800009019A4202D0062802D203E0042801D39B
:1038900008467047364A012102EBC0004160002013
:1038A000704770B52F4A304E314C156842F209030B
:1038B00004EB8002B54204D0062804D2C2F80018F6
:1038C00007E0042801D3184670BDC1F31000C2F808
:1038D0000008002070BD70B5224A234E244C1568A4
:1038E00042F2090304EB8002B54204D0062804D258
:1038F000D2F8000807E0042801D3184670BDD2F8BA
:103900000008C0F310000860002070BD174910B512
:103910000831184808601120154A002102EBC00345
:10392000C3F81015C3F81415401C1428F6D3002052
:1039300006E0042804D302EB8003C3F8001807E074
:1039400002EB8003D3F80048C4F31004C3F8004826
:10395000401C0628EDD310BD044906480831086014
:103960007047000008010020BEBAFECA00F5014001
:1039700000F001400000FEFF02000B464FF0000087
:10398000014620D0012A04D0022A04D0032A0DD1F6
:1039900003E0012002E0022015E00320072B05D2FE
:1039A000DFE803F00406080A0C0E10000720704739
:1039B000012108E0022106E0032104E0042102E0E5
:1039C000052100E0062101F008BB0000FC480521AC
:1039D0008170002101704170C17081607047F949A8
:1039E0000A78012A06D0CA681044C860C8684038FE
:1039F00002F05ABA8A68104488608868F7E710B500
:103A0000EF4CE07801F02DFB00B9FFDF0820FFF755
:103A10003CFB0520A07000202070607010BD0028C5
:103A200019D00378E849E94A13B1012B0ED011E00F
:103A30000379012B00D06BB943790BB1012B09D16C
:103A40008368643B8B4205D2C0680EE00379012B8A
:103A500002D00BB10020704743790BB1012BF9D193
:103A6000C368643B8B42F5D280689042F2D8012053
:103A700070472DE9F0410446022702F0EAF8006899
:103A800000B1FFDFCE4D01263CB12078B0B1012856
:103A900005D0022810D0032813D02E710CE06068E6
:103AA000C82807D302F060FA20B16068FFF797FFDB
:103AB000012703E0002701E000F0CCF93846BDE81B
:103AC000F08128780028F7D16068FFF7A8FF002868
:103AD000E3D06068DFF8EC82007828B3A878042887
:103AE00000D0FFDF0020464688F8000060680079BB
:103AF000C8B30020307160684079A8B304207071A9
:103B000060688168E86800F077FFB0606068C0684E
:103B10005230F0600320A870AA49E87801F072FDE5
:103B20000028C9D1FFDFC7E7404688F80060616818
:103B30000979D1B10021017161684979B9B10421D4
:103B4000417161688968523181606168C968C1608A
:103B5000C0689B4C1434606001F0A2FA20606E7063
:103B60000220A870A8E704E005E00321E3E70321B1
:103B7000E6E70120BEE70320C1E72DE9F047904CBE
:103B80008846E178884200D0FFDFDFF834920025D4
:103B900001278C4E09F11409B8F1080F79D2DFE83A
:103BA00008F0040D2A557E849199A078032803D04B
:103BB000A078022800D0FFDFBDE8F087A0780328B6
:103BC00003D0A078022800D0FFDF0420A070257168
:103BD000207800287AD1FFF702FF3078012806D03C
:103BE000B068E060FFF747FD2061002062E0E07808
:103BF00001F097FBF5E7A078032803D0A07802280E
:103C000000D0FFDF207800286FD1A078032816D0DD
:103C100001F046FA01464F46D9F8000002F079F962
:103C200000280EDB796881420BDB081AF0606549D9
:103C3000E07801F0E7FC0028BED1FFDFBCE70420FC
:103C400029E00420FFF721FAA570B5E7A078032842
:103C500003D0A078022800D0FFDF207888BBA078AE
:103C6000032817D001F01CFA01464F46D9F800008E
:103C700002F04FF90028E4DB79688142E1DB081AA1
:103C8000F0605049E07801F0BDFC002894D1FFDFDE
:103C900092E740E00520FFF7F8F9A7708CE7A078DD
:103CA000042800D0FFDF022004E0A078042800D020
:103CB000FFDF0120A1688847FFF7DBFE054630E003
:103CC00004E012E0A078042800D0FFDFBDE8F04750
:103CD00000F0C0B8A078042805D0607810B1A078B2
:103CE000022800D0FFDF207810B1BDE8F04786E65B
:103CF000207920B10620FFF7C8F92571CDE760785B
:103D000038B13049E07801F07DFC00B9FFDF657023
:103D100052E70720BFE7FFDF4EE73DB1012D03D09B
:103D2000FFDF022DF9D147E70420C3E70320C1E7F5
:103D300070B5050005D0224CA078052803D01120CD
:103D400070BD102070BD224801F02AF9E070E078C3
:103D5000202803D0A5600020A07070BD032070BD96
:103D6000174810B5017809B1112010BD81780529D7
:103D70000CD0817801290BD0817849B101210170E3
:103D80008178012904D0807810B103E00F2010BDA4
:103D9000FFF735FE002010BD70B5094E0446B0781F
:103DA00008B101280AD1ACB12046FFF738FE98B11E
:103DB0002078044D90B1B07801282AD00F2070BD32
:103DC00050000020140400203D860100FF1FA107C1
:103DD0007B3B00001020F2E70720F0E7012028706D
:103DE000207990B100202871607980B10420687139
:103DF000A0685230A860E068E860E8681A4C60602B
:103E000001F04EF92060022016E00320EBE70320CA
:103E1000EDE7002028702079A8B100202871607992
:103E200098B104206871A168F06800F0E5FDA86011
:103E3000E0685230E8600320B0700C49F07801F07F
:103E4000E1FB28B903E00320E8E70320EAE7FFDF0E
:103E50000020B4E7044810B514380069FFF703FCEC
:103E6000BDE8104001F022B86400002014040020D6
:103E7000AD4911F8410F4978884201D3401A02E058
:103E8000C1F141010844C0B27047A749433111F85C
:103E9000410F4978884201D3401A02E0C1F1410143
:103EA0000844C0B27047A049863111F8410F4978E3
:103EB000884201D3401A02E0C1F141010844C0B276
:103EC00070479A4910B5802081F800049649002077
:103ED000433101F8410F4870934901F8410F487090
:103EE0009149863101F8410F48709148FFF760FB16
:103EF0008F48401CFFF75CFBFFF7C8FABDE8104095
:103F000000F006B940207047B2E770B50C46054690
:103F10000026FFF7ADFF844AA04214D30021641E9F
:103F2000E4B20FD392F84200105C05F8010B92F84E
:103F30004200401CC0B282F842004128EFD182F812
:103F40004210ECE7012600F0E3F8304670BD402057
:103F500070479AE770B50C4605460026FFF795FFB7
:103F6000714A4332A04214D30021641EE4B20FD33D
:103F700092F84200105C05F8010B92F84200401CD8
:103F8000C0B282F842004128EFD182F84210ECE73B
:103F9000012600F0BDF8304670BD402101700020C0
:103FA000704710B50446FFF77EFF2070002010BD5B
:103FB00070B50C460546FFF776FF5B4A8632A04295
:103FC00015D30021641EE4B20FD392F84200105CB6
:103FD00005F8010B92F84200401CC0B282F8420082
:103FE0004128EFD182F84210ECE7002401E042F2D0
:103FF000070400F08DF8204670BD70B50C460546EC
:10400000412900D9FFDF4B480068103840B200F06A
:1040100066F8C6B20D2000F062F8C0B2864203D244
:10402000FFDF01E0FFF782FA21462846FFF76DFF28
:104030000028F7D070BD2DE9F0413D4F0025064620
:1040400017F10407412257F8254094F8421094F8DC
:10405000410000F053F888B36D1CEDB2032DF1D38D
:1040600031484122433090F8421090F8410000F06E
:1040700045F8002831D02C48412290F8421090F8A1
:10408000410000F03BF8002827D027484122863025
:1040900090F8421090F8410000F030F800281CD051
:1040A000FFF71AFA2248FFF78BFAB0F5005F00D04D
:1040B000FFDFBDE8F0411E48FFF798BA94F84100D1
:1040C000265494F84100401CC0B284F841004128B5
:1040D000C6D1002084F84100C2E7BDE8F081002885
:1040E00004DB00F1E02090F8000405E000F00F0090
:1040F00000F1E02090F8140D40097047401C884200
:1041000004D0904200D109B10020704701207047CF
:1041100010B50748FFF754FA002803D1BDE8104056
:10412000FFF7C5B910BD0000240400200DE000E039
:104130006C00002004ED00E04FF0E0214FF0007033
:10414000C1F8800101F5C071BFF34F8FBFF36F8FCE
:10415000C1F80001384B802283F8002441F8800C1C
:10416000704700B502460620344903E001EBC00366
:104170001B792BB1401EC0B2F8D2FFDFFF2000BD7B
:1041800041F8302001EBC00100224A718A710122FE
:104190000A7100BD294A002102EBC000017170477D
:1041A00010B50446062800D3FFDF244800EBC40402
:1041B0002079012800D0FFDF6079A179401CC0B2CE
:1041C000814200D060714FF0E0214FF00070C1F8E3
:1041D000000210BD2DE9F041194805681849194839
:1041E000083108601448062690F80004134F40096F
:1041F000154C042818D0FFDF16E0217807EBC1002A
:104200000279012A08D1427983799A4204D042790D
:10421000827157F8310080472078401CC0B220706E
:10422000062801D300202070761EF6B2E5D204489D
:10423000001D0560BDE8F08119E000E0F0040020F9
:1042400010050240010000017C000020164908789A
:104250004A78401CC0B2904205D0144B01221A602B
:10426000BFF34F8F087070472DE9F0410E4C4FF0AF
:10427000E02600BF00F0CCFA20BF40BF20BF677827
:1042800020786070D6F80052FEF778FA854305D1A1
:10429000D6F8040210B92078B842EBD000F0B3FA97
:1042A0000020BDE8F08100007D00002018050240DC
:1042B0002DE9F041012528034FF0E0210026C1F847
:1042C0008001BFF34F8FBFF36F8F1F4CC4F80061A5
:1042D0000C2000F02CF81D4801680268C94341F326
:1042E000001142F010020260C4F804532560491C1A
:1042F00000E020BFD4F80021002AFAD019B90168E3
:1043000021F010010160124807686560C4F8085385
:10431000C4F800610C2000F00AF83846BDE8F081CE
:1043200010B50446FFF7C4FF2060002010BD002830
:1043300009DB00F01F02012191404009800000F1DB
:10434000E020C0F88012704700C0004010ED00E08F
:1043500008C500402DE9F047FF4C0646FF21A06844
:1043600000EB061211702178FF2910D04FF00809D8
:1043700009EB011109EB06174158C05900F0F4F997
:10438000002807DDA168207801EB0611087026706F
:10439000BDE8F08794F8008045460DE0A06809EB81
:1043A00005114158C05900F0DFF9002806DCA0686B
:1043B000A84600EB08100578FF2DEFD1A06800EBB0
:1043C000061100EB08100D700670E1E7F0B5E24B46
:1043D0000446002001259A680C269B780CE000BF5B
:1043E00005EB0017D75DA74204D106EB0017D7599C
:1043F0008F4204D0401CC0B28342F1D8FF20F0BDF0
:1044000070B501F0AFFDD44C08252278A16805EB0A
:104410000212895800F0A8F9012808DD2178A06867
:1044200005EB01114058BDE8704001F092BD01F06C
:1044300013FCBDE87040FFF7B3BE2DE9F041C64C58
:10444000257801F08FFDFF2D6ED04FF00808A2688F
:1044500008EB0516915900F087F90228A06801DDE4
:1044600080595DE000EB051109782170022101EB14
:104470000511425C5AB1521E4254815901F5800126
:1044800021F07F4181512846FFF764FF34E0042387
:10449000012203EB051302EB051250F803C0875C01
:1044A000BCF1000F10D0BCF5007F10D9CCF308028E
:1044B00050F806C00CEB423C2CF07F4C40F806C094
:1044C000C3589A1A520A09E0FF2181540AE082591E
:1044D00002EB4C3222F07F428251002242542846A5
:1044E000FFF738FF0C21A06801EB05114158E06887
:1044F00050F82720384690472078FF2814D001F044
:1045000031FD2278A16808EB02124546895800F077
:104510002BF9012893DD2178A06805EB01114058A3
:10452000BDE8F04101F015BDBDE8F081F0B51D46D4
:1045300014460E460746FF2B00D3FFDFA00700D02E
:10454000FFDF8548FF210022C0E90247C5700671E0
:104550000170427082701046012204E002EB0013E9
:10456000401CE154C0B2A842F8D3F0BD70B57A4CFB
:10457000064665782079854200D3FFDFE06840F881
:1045800025606078401C6070284670BD2DE9FF5F93
:104590001D468B460746FF2401F0E4FCDFF8B89186
:1045A000064699F80100B84200D8FFDF00214FF01D
:1045B00001084FF00C0A99F80220D9F808000EE023
:1045C00008EB0113C35CFF2B0ED0BB4205D10AEBF5
:1045D000011350F803C0DC450CD0491CC9B28A4213
:1045E000EED8FF2C02D00DE00C46F6E799F8031048
:1045F0008A4203D1FF2004B0BDE8F09F1446521C4C
:1046000089F8022008EB04110AEB0412475440F821
:1046100002B00421029B0022012B01EB04110CD0FB
:1046200040F801204FF4007808234FF0020C454574
:1046300013D9E905C90D02D002E04550F2E7414621
:1046400006EB413203EB041322F07F42C250691A99
:104650000CEB0412490A81540BE005B9012506EB65
:10466000453103EB041321F07F41C1500CEB0411E1
:10467000425499F800502046FFF76CFE99F800006C
:10468000A84201D0FFF7BCFE3846B4E770B50C462F
:10469000054601F067FC064621462846FFF796FED0
:1046A0000446FF281AD02C4D082101EB0411A868FC
:1046B0004158304600F058F800F58050C11700EB23
:1046C000D14040130221AA6801EB0411515C09B1E9
:1046D00000EB4120002800DC012070BD002070BDEF
:1046E0002DE9F04788468146FFF770FE0746FF2810
:1046F0001BD0194D2E78A8683146344605E0BC42DF
:1047000006D0264600EB06121478FF2CF7D10CE0F9
:10471000FF2C0AD0A6420CD100EB011000782870C3
:10472000FF2804D0FFF76CFE03E0002030E601F024
:1047300016FC41464846FFF7A9FF0123A968024637
:1047400003EB0413FF20C854A878401EB84200D1E0
:10475000A87001EB041001E02005002001EB061118
:1047600000780870104613E6081A0002C11700EB23
:10477000116000127047000010B5202000F075F89D
:10478000202000F083F84849202081F800044749A0
:1047900000060860091D46480860FDF7EFFF434921
:1047A000C83108604348D0F8041341F00101C0F853
:1047B0000413D0F8041341F08071C0F804133A498F
:1047C00001201C39C1F8000110BD10B5202000F0F7
:1047D0004CF8364800210160001D0160334A481E34
:1047E000E83A1060334AC2F80803304BC833196006
:1047F000C2F80001C2F860012F490860BDE810400E
:10480000202000F043B829492C48EC390860704753
:1048100026492A48E8390860704770B5234A8069FC
:10482000E83A264911602349D1F800610023244D5C
:10483000214A5C1E1EB1A84206D300210FE0D1F828
:10484000606186B1A84209D2C1F80031C1F8603177
:104850001460BDE87040202000F018B81168BDE871
:10486000704026F04FBEFFDF70BD00280DDB00F06A
:104870001F02012191404009800000F1E020C0F8B2
:104880008011BFF34F8FBFF36F8F7047002809DB94
:1048900000F01F02012191404009800000F1E0205A
:1048A000C0F880127047000020E000E000060240DF
:1048B0007C180020000002400004024001000001BA
:1048C00000D0020070B50446A0F500002D4EB0F1F6
:1048D000786F02D23444A4F500042B48844201D2FC
:1048E000012500E0002500F043F848B125B9B442A5
:1048F00004D32648006808E0012070BD002070BD88
:10490000002DF9D1B442F9D321488442F6D2F3E71D
:1049100010B50446A0F50000B0F1786F03D2194835
:104920000444A4F5000400F023F84FF0804130B1B6
:104930001648006804E08C4204D2012003E01448C9
:104940008442F8D2002080F0010010BD10B520B1E3
:10495000FFF7DEFF08B1012010BD002010BD10B52B
:1049600020B1FFF7AFFF08B1012010BD002010BD3E
:10497000084809490068884201D101207047002099
:10498000704700000000002000D002001C01002041
:104990000800002008010020BEBAFECA2DE9F0413F
:1049A0000746FF48904600250C4600EB8816072F67
:1049B00007D2DFE807F00707070704040400012512
:1049C00000E0FFDF06F81470002D08BFBDE8F0819D
:1049D000F44800EB880090F8271020290EBF80F8DB
:1049E000264006EB41014C70202106EB4402517039
:1049F00080F82740BDE8F08130B50D46EA4A4419F9
:104A00000021101A71EB010038BFFFDFE748854233
:104A1000C8BFFFDFE6488542B8BFFFDFE5488442F4
:104A2000A8BFE54804DA002CAABF2046E14830BD03
:104A3000201830BD2DE9F05FDA4D95F82D6005EBBB
:104A4000860090F82640202C08BFBDE8F09FDFF8D4
:104A50006CA3DFF84C93A9F5007B09EB86180727B8
:104A600018F8140001280AD0042808BF022706D02D
:104A7000052808BF032702D0062818BFFFDFBAF1B8
:104A8000000F18BFAFF30080EFF3108000F00100BB
:104A900072B608EB44014A7805EB860181F82620BE
:104AA00091F82720A24204BF202281F82720A0B13C
:104AB000324621460120FFF771FF0BEB0410394607
:104AC00002682046904795F82D6005EB860090F827
:104AD0002640202CC1D1BDE8F09FB948002818BF5E
:104AE000AFF3008062B6E3E710B5AE4C202184F846
:104AF000251084F8261084F82710002084F8280058
:104B000084F82D0084F82E10411EA160206084F8E6
:104B1000200084F8210020776077A077A94984F8E5
:104B20002F0084F8240008704870A4F1820110223C
:104B3000887001F8040F521EFAD1012001F00EFD19
:104B4000002001F00BFD012084F82200FFF7F4FAA9
:104B50009D48FFF706FB9D4C20709D48FFF701FB29
:104B60006070BDE8104001F087BC10B501F0B5FCE5
:104B7000964C2078FFF70EFB6078FFF70BFB894C13
:104B800094F82400002808BF10BDFDF778FE00202F
:104B900084F8240010BD202070472DE9F04F824694
:104BA000804897B000EB8A0BA0F520779BF8255042
:104BB000202D3CD02C4601F081FD07EB0411854EE1
:104BC0004A688968121A081A22F07F4220F07F4052
:104BD000012A04D3B2F5800F01D286421BD270485D
:104BE00000EB8A19A04609EB48004478202C12D02B
:104BF00001F064FD07EB04114A688968121A081A6B
:104C000022F07F4220F07F40012AEBD3B2F5800FE3
:104C1000E8D28642E6D3AC4209D053464246202130
:104C2000042001F017FB17B00020BDE8F08F6A48A0
:104C3000002818BFAFF3008001F040FD594C94F8F4
:104C40002F1069B1E268411C891A0902CA1701EBE9
:104C5000126109120029C2BF002017B0BDE8F08F11
:104C600006469BF82500202835D04FF000084FF06D
:104C7000FF3107EB0010CDF8388010910790D0E994
:104C80000112C0681191CDE912205448B0F89C126D
:104C9000ADF8541090F89E028DF856009DF84D0026
:104CA00000280CBF4FF004094FF002094C4951F89D
:104CB0002070119907EB0902114421F07F410F91F7
:104CC000002F14BF022100218DF85010022818BFB8
:104CD000012815D030E04FF0010001F03FFC00202A
:104CE00001F03CFC01F020FC94F8240020B1FDF719
:104CF000C6FD002084F82400002084F82F00C7E0BF
:104D0000119809EB07010844801B20F07F403328ED
:104D10000BD903208DF84D001198C7F13201401ACC
:104D200020F07F403227119012E094F8240018B947
:104D3000FEF732F900287DD0322F09D247B194F81E
:104D4000240060B9FDF772FD012084F8240006E01C
:104D500094F8240018B1FDF792FD84F82480194AD4
:104D60001178F9B352780020D21B9DF850C0119FE2
:104D7000012916BF0329012300238DF85630002A8C
:104D800004DDBA1A119201228DF850209DF85420AA
:104D9000002A18BF0220119A0E4B22F07F4222E017
:104DA00030070020B0070020FF7F841E0020A107ED
:104DB00000E05EF80080841E00807BE100000000BF
:104DC00000000000810000203B4400007F00002024
:104DD000354A0000FFFF3F000000000030050020C2
:104DE000C8B702001DE01192921BDDF848E022F0E6
:104DF0007F42AEEB060626F07F46904298BFB2F5A2
:104E0000800F01D2B3420CD29DF85500002808BF94
:104E1000032941D08DF8548011978DF850C08DF83A
:104E200056809DF8500060B111984FF0010300EBDF
:104E3000090100E030E04FF00002184601F0D7FB16
:104E400002E0012001F08AFB079801230F9990F9F5
:104E50000C20002001F0CBFB012084F82F008BF800
:104E600028800EADFB4895E80E10C0F88012C0F8FF
:104E70008422C0F88832C0F88CC212AD95E80E10BA
:104E8000C0F89012C0F89422C0F89832C0F89CC2C2
:104E900017B00120BDE8F08F53462A462021042098
:104EA00001F0D8F917B00020BDE8F08F2DE9F041EE
:104EB000E94C256901F002FC401B0002C11700EB20
:104EC0001160001258BFFFDF94F82200002818BFBD
:104ED000FFDF012784F8227094F82E00202808BFF5
:104EE000FFDF94F82E60202084F82E00002584F83F
:104EF0002F5084F8205084F82150D848256000783D
:104F0000022816BF0328012000202077A068B0F1F6
:104F1000FF3F05D04FF0FF30A060012001F01EFBE5
:104F2000002001F01BFB01F052FC01F047FC01F0F6
:104F3000FBFAFEF711FDCA48056005604FF0E0215D
:104F40004FF40040C1F8800201F0BFFC94F82D80BE
:104F50004046FFF722FE0028FAD0C24800EB881036
:104F600010F81600022804D1424631460620FFF709
:104F700015FD84F8237004EB880090F826002028A3
:104F800003D0B9484078FFF70BF9207F002808BF0D
:104F9000BDE8F08101F004FC25776577BDE8F0817C
:104FA0000346AD4810B590F82D200024803800EB62
:104FB000821000BF10F8141029B1611CCCB2202C53
:104FC000F8D3202010BDA348214600EB0410036055
:104FD0000120FFF7E3FC204610BD012804D0032880
:104FE00008BF002934D000E079B39B4A92F82D30F5
:104FF000DFF870C24FF000020CEB831313F812C0FD
:10500000BCF1000F01D008207047521CD2B2202AF8
:10501000F4D3924A002812BF0228002151700BD00D
:10502000072915D2DFE801F01404060B0D0F12005A
:105030001B2100E03A215170107000207047582168
:10504000F9E77721F7E79621F5E701E0B521F2E7E7
:1050500007207047814810B5407801F0CDFB80B241
:1050600010BD10B5202811D27B4991F82D30A1F147
:10507000800202EB831C1CF810303BB191F82D30FC
:1050800002EB831212F81020012A01D0002010BD7B
:1050900091F82D2001460020FFF780FC012010BD73
:1050A00010B501F00BFBBDE8104001F0A5BB2DE9E8
:1050B000F04F694A82B002EB810B20239BF8252038
:1050C0004FF0000A6E4601AF8DF80030202A08BF6D
:1050D0008DF8043000F02181DFF888C1DFF88CE121
:1050E0000CEB8118ACF5007404EB021303F1040C13
:1050F0009B680568EB1A1B024FEAE37903EB19631F
:105100001B1223D4437ACBB19CF80990B9F1000F5C
:1051100014D15EF82330DCF800C02B44DEF80050D8
:105120009B1CAC440CF1040CA3EB0C031B024FEAD8
:10513000E37C03EB1C631B12322B07DB327008EBA2
:1051400042025278202ACFD13378A1E033783B70E5
:10515000202A7DD004EB0213D0F804C05E681D1D28
:10516000A6EB0C0C4FEA0C2C4FEAEC790CEB196C0B
:105170005FEA2C2C1ED495F809C0BCF1000F67D053
:10518000457A002D64D15EF82CC00568B444DEF881
:1051900000600CF1020C35442D1DACEB050C4FEA00
:1051A0000C2C4FEAEC750CEB156C4FEA2C2CBCF177
:1051B000320F4DDA3A709B7B90F80AC0634505D9EF
:1051C00008EB42025278202AC4D1A6E09DF80420C0
:1051D000D0E900C304EB0212A3EB0C0392684FF07A
:1051E000010A22F07F4C1A4422F07F42C0E900C23B
:1051F0009BF825202023E8468DF80030202A1CBF8C
:10520000184B03EB81164BD004EB021303F1040C93
:105210009B680568EB1A1B024FEAE37903EB1963FD
:105220001B1237D4437AA3B19CF80990B9F1000F4F
:1052300025D15EF82330DCF800C02B44DEF80050A6
:105240009B1CAC440CF1040CA3EB0C031B020FE001
:1052500063E014E030050020B0070020810000204A
:1052600000F50040300700207F000020C8B7020092
:105270004FEAE37C03EB1C631B12322B0ADB88F83A
:10528000002006EB42025278202ABDD198F8003067
:105290003B7042E098F800303B70202A04D13CE09B
:1052A000DBB28DF8043038E004EB02154368D5F822
:1052B000048005F1040CA8EB03031B024FEAE37919
:1052C00003EB19631B121CD49CF809302BB390F824
:1052D00009C0BCF1000F20D15EF82330D0F800C027
:1052E0004344DEF800809B1CC4440CF1040CA3EB87
:1052F0000C031B024FEAE37C03EB1C631B12322BF3
:105300000BDA3A70AB7B90F80AC063457FF65EAF6C
:1053100006EB42025278202AC6D102B05046BDE8C0
:10532000F08F70B5FE49FF4A01EB001454F8041FDA
:10533000607A002852F8202011440CBF042002207B
:10534000084420F07F4001F057FA94F90850F64ADB
:1053500044190021101A71EB010038BFFFDFF34838
:105360008542C8BFFFDFF2488542B8BFFFDFF14882
:105370008442A8BFF04803DA002CB8BFED4800DA39
:105380002418204670BD2DE9F04F0446EB4887B045
:105390000068C005C00D11D0103840B20028B8BF59
:1053A00000F00F0000F1E020ACBF90F8000490F88E
:1053B000140D400908BF4FF0010B01D04FF0000B56
:1053C0002078002804BFDE4DDE4E40F0D78026B1A5
:1053D000002140F2D340AFF3008095F82D700020FB
:1053E00085F82300824626B100214FF49B60AFF37D
:1053F0000080BBF1000F1FD1B846012020EA08074A
:10540000D148402200EB881100EB871025F0ADFF5A
:1054100026B1002140F25C40AFF3008005EB88012B
:1054200005EB8700D1F82510C0F8251026B1002122
:105430004FF48C60AFF3008026B100214FF49C60E4
:10544000AFF3008001F03AF98046CDF80CD0207817
:10545000002860798DF80A0020798DF8090007D0BE
:1054600095F82E0020281CBF2869401D07D00BE0AE
:10547000D4E902232179039800F0AFFF3AE0B34862
:1054800008F105014078084420F07F492179002285
:10549000A368039800F0A1FFDDE90010401A48441A
:1054A00020F07F400190CDF80090D4E902322179BC
:1054B00004A800F092FF3946DDF814900398FFF736
:1054C000F6FD00980199A0EB080020F07F40A1EBC9
:1054D000080121F07F41B0F5800F01D2894509D242
:1054E000DDE90010401A404428F07F4120F07F4061
:1054F000CDE9001026B1002140F2E640AFF3008074
:1055000095F82E00202814D028690099091A09025C
:10551000CA1701EB126109120BD5DDE90021891AC6
:1055200020F07F42084420F07F40CDE900204FF07A
:10553000010A26B100214FF49E60AFF3008095F878
:10554000230000287FF443AF26B1002140F2F6404B
:10555000AFF3008001F0B2F80099019B091A181A04
:105560007B4A21F07F4120F07F40B1F5800F05D2CA
:10557000824203D3BBF1000F0AD103E007B0002041
:10558000BDE8F08F39466846FFF791FD4AEA000A08
:10559000BAF1000F2CD09DF80900624A009900284A
:1055A00052F8202011440CBF04200220084420F0AF
:1055B0007F4001F021F99DF908705B4AC51900216F
:1055C000101A71EB010038BFFFDF58488742C8BF8F
:1055D000FFDF57488742B8BFFFDF56488542A8BF64
:1055E000554803DA002DB8BF524800DA2D18A560DF
:1055F00026B1002140F20950AFF3008007B001202E
:10560000BDE8F08F2DE9F34F4C4889B0884600681B
:105610004B4DC005C00D0ED0103840B20028B8BFA9
:1056200000F00F0000F1E020ACBF90F8000490F80B
:10563000140D40092AD098F800004FF0000B002804
:105640001CBF0128FFDF3F4C2CB14FF0000140F29E
:105650007F50AFF30080324909984FF0010A01EB07
:105660000010009024B1002140F28750AFF3008079
:10567000BAF1000F17D000BF95F82D604FF0000968
:1056800085F82390BBF1000F14D03DE095F82E0073
:105690004FF0010B202808BFFFDF98F8000000281A
:1056A00018BFFFDFCFE72B48002818BFAFF30080FB
:1056B00062B6E1E73746012020EA07062248402289
:1056C00000EB871100EB861025F04FFE24B100217E
:1056D00040F25C40AFF3008005EB870105EB8600EC
:1056E000D1F82510C0F8251024B100214FF48C60AA
:1056F000AFF3008024B1002140F29150AFF300805D
:1057000095F823000028ADD124B1002140F29B5030
:10571000AFF3008000F0D2FF074601A804901BE021
:1057200030050020C8B70200FF7F841E0020A107BB
:1057300000E05EF80080841E00807BE104ED00E064
:10574000B00700200000000030070020810000208A
:10575000FFFF3F000000000098F80000002898F8C4
:1057600005008DF80E0098F804008DF80D0007D0A4
:1057700095F82E0020281CBF2869401D08D00BE09A
:10578000D8E9022398F80410049800F026FE3AE0C5
:10579000FD484178781D084420F07F4A98F80410AD
:1057A0000022D8F80830049800F017FEDDE9011057
:1057B000401A504420F07F400290CDF804A0D8E970
:1057C000023298F8041005A800F007FE3146DDF813
:1057D00018A00498FFF76BFC0199029AC91BD01B13
:1057E00021F07F4120F07F40B1F5800F01D282454A
:1057F00009D21146019A891A781827F07F4220F0C1
:105800007F40CDE9012024B1002140F2A250AFF346
:105810000080DE4A3946DDF824A002EB861701A895
:1058200017F81A20012A18BF022A3DD1019ADDF883
:1058300008C0A2EB0102D64B22F07F42ACEB010183
:1058400021F07F41012A6AD3B2F5800F67D28B42E3
:1058500065D34FF0010905AB04AA314600F036FDCF
:10586000002864D09DF814209DF810108A4262D060
:105870003346052000F0EEFC07EB4A0148709DF826
:105880001000202803BF05EB860080F825A080F8D3
:10589000289007EB400018BF80F801A0324651461F
:1058A0005FF00300FFF77AF805EB860090F82870A8
:1058B00024B1002140F2A950AFF30080B548002880
:1058C00018BFAFF30080EFF3108000F0010A72B64A
:1058D00024B1002140F2AF50AFF3008095F82300CF
:1058E00000287FF4BFAE24B1002140F2B750AFF3DF
:1058F00000809DE80F00B9F1000FC360C0E90112FC
:1059000040D024B1002140F2C450AFF3008037EA08
:105910000B0029D095F82E00202816D024E032461E
:1059200051460420FFF73AF84FF00109BCE7324630
:1059300051460420B6E7202919BF07EB4100407803
:1059400005EB860090F8250096E724B1002140F28F
:10595000C950AFF300803046FFF71FF920B998F81F
:105960000000E8B3012849D024B1002140F2E650FC
:10597000AFF3008085F82D60012085F8230000BF7B
:105980004FF0010924B1002140F2EF50AFF3008045
:10599000BAF1000F3BD024B1002140F2F350AFF335
:1059A0000080B9F1000F11D095F82D0005EB8000B3
:1059B00090F82600202809D024B1002140F2FA50A6
:1059C000AFF3008074484078FEF7EAFB24B1002171
:1059D00040F2FF50AFF300800BB04846BDE8F08FB7
:1059E000FFE724B1002140F2D150AFF3008095F8D9
:1059F0002D2004200999FEF7D1FFC1E7002C3FF4C8
:105A000031AE002140F2DC50AFF300802AE663485B
:105A1000002818BFAFF3008062B6BCE72DE9F14F54
:105A20005F4D8CB095F82D000020099001205D4C51
:105A3000A5F180074FF0000B8246089024B10021A9
:105A400040F20D60AFF300800898A0B385F823B052
:105A500024B1002140F21260AFF3008095F82D8050
:105A600040222AEA080607EB861007EB88118146D8
:105A700025F07BFC24B1002140F25C40AFF30080B4
:105A800005EB860005EB88010090D1F82510C0F8E1
:105A9000251024B100214FF48C60AFF3008095F8FD
:105AA000230080B1002C1CBF00214FF4C360C5D07F
:105AB000AFF30080C2E7FFE73848002818BFAFF314
:105AC000008062B6C2E724B1002140F21C60AFF34F
:105AD00000800C9819F81000032854D1DDF80080DC
:105AE000CDF818800C9998F82500884214BF4FF023
:105AF00000094FF0010908F1250C8646202207EB2A
:105B0000861303E0024603EB42004078884202D04D
:105B100020280AD0F6E7202807D0864507D103EBD6
:105B20004E0040788CF8000007E058460CE003EB8C
:105B3000400003EB42014078487024B1002140F25C
:105B4000E230AFF30080504610EA090F1CBF88F81E
:105B500028A085F81EB0B0B124B1002140F2216028
:105B6000AFF30080324601200C99FEF717FF06982C
:105B700090F8288024B1002140F22C60AFF300801F
:105B80000448002810E040E0810000203007002099
:105B9000FFFF3F00000000007F0000200000000029
:105BA000B00700200000000018BFAFF30080EFF343
:105BB000108000F0010072B6089024B1002140F27C
:105BC0003160AFF3008095F8230038B1002C1CBF82
:105BD000002140F235603FF431AF69E7B8F1000FC2
:105BE00007D095F82E00202803D13046FEF7D5FFC8
:105BF000E8B124B1002140F24960AFF3008085F89C
:105C00002D6085F823A00120099024B1002140F2E5
:105C10005260AFF30080089888B124B1002140F2AF
:105C20005660AFF3008009980DB0BDE8F08F002CEE
:105C3000F1D0002140F24460AFF30080E6E7FC4879
:105C4000002818BFAFF3008062B6E6E7002000F03E
:105C500075BC012000F072BCF648007870472DE951
:105C6000F05FDFF8D4B30027ABF50079012509F523
:105C7000207480B1012853D0022800F0D38003287B
:105C80001CBFFFDFBDE8F09F94F82E00202840F0F5
:105C9000ED8000F0CDB894F8240018B9FCF7C6FDEB
:105CA00084F8245094F82E0020281CD194F82D80DC
:105CB00004EB880A9AF82560202E08BFFFDF0BEB63
:105CC000881000EB460040788AF825008AF82850B2
:105CD00084F82350314684F82E6042460220FEF7B5
:105CE0005DFE84F82270207E002818BFFFDF84F854
:105CF0002150002000F032FCA168B1F1FF3F04D038
:105D000001230022184600F072FC94F82E0094F84B
:105D10002E1009EB01110A68BDE8F05F0121104760
:105D200094F82E0020281CD194F82D8004EB880ACA
:105D30009AF82560202E08BFFFDF0BEB881000EBE0
:105D4000460040788AF825008AF8285084F82350C5
:105D5000314684F82E6042460220FEF71FFE84F88A
:105D60002270012000F0FAFB94F8210000281CBFEB
:105D7000A068B0F1FF3F0BD094F82E0094F82E10DD
:105D800009EB01110A68BDE8F05F4FF0060110470A
:105D9000207EAA4E01280AD002281CBFFFDFBDE8E2
:105DA000F09F84F8205094F8240010BB1DE0A777E2
:105DB00000F0F6FC3078032804BF65772577607D16
:105DC0009F4951F8200094F8201059B950B16168EA
:105DD0000123091A0022184600F009FC022020764F
:105DE000BDE8F09F2776BDE8F09FFCF71FFD84F823
:105DF0002450A07F002808BF277608D071786068FB
:105E00000123411A0022184600F0F1FB257694F890
:105E10002E0094F82E1009EB01110A68BDE8F05F1E
:105E20000021104783480078BDE8F05FFEF7B8B95D
:105E300094F82D8004EB880A9AF82560202E08BF7C
:105E4000FFDF0BEB881000EB460040788AF8250056
:105E50008AF8285084F8235084F82E604246314650
:105E60000220FEF79BFD84F8227000BF94F82E00FC
:105E700094F82E1009EB01110A68BDE8F05F0521C6
:105E8000104710B56F4C94F82E00202808BFFFDF94
:105E900094F82E0094F82E106B4A02EB01110A6858
:105EA000BDE810400421104730B5664C054683B06C
:105EB00094F82E00202808BFFFDFA068B0F1FF3F54
:105EC00018BFFFDF94F82E0001AA5F4901EB001014
:105ED000694690F90C00284400F09BFC9DF90400F1
:105EE0000F28CCBF012000200099084461680844B5
:105EF00020F07F41A16094F82100002804BF03B086
:105F000030BD012303B00022BDE83040184600F048
:105F10006EBB4E4A0B1A02F1010CB3EB9C0F3CBF57
:105F20001846704710B5441AB4EB9C0F3CBF184696
:105F300010BD9A4203D2101A0844401C10BD94426E
:105F40009EBFFFDF002010BD511A0844401C404294
:105F500010BD012300220146022000F048BB0220B0
:105F600000F0FCBA00F0AABB2DE9F043354C054621
:105F700083B094F82E00202808BFFFDF642D6AD379
:105F800033490020491B804165D394F82E00DFF887
:105F9000B88094F82D7008EB0019206801AA2844F5
:105FA000694600F036FC9DF90400002802DD0098E7
:105FB000401C0090D9F808000099D9F80420461830
:105FC000B21A22F07F42B2F5800F44D204EB87026E
:105FD00092F82520202A0AD008EB02125268101AE3
:105FE0000002C21700EB12600012884233DBA06887
:105FF000B0F1FF3F10D000F061FBA168081A000269
:10600000C11700EB11600012022824DD012000F00E
:10601000A5FA4FF0FF30A06020682844206026F0E9
:106020007F402061012084F8230003B0BDE8F083A5
:10603000000000007F0000203007002081000020C9
:10604000C8B70200B007002030050020FF7F841E83
:10605000FF1FA107FFE70020E7E72DE9F05FFF4DF5
:10606000804695F82D00A5F1800707EB801010F809
:106070001800002808BFFFDF95F82D90F84E26B1D4
:10608000002140F66500AFF3008007EB891414F897
:106090001800012817D0C0B204281CBF0528062804
:1060A00050D02EB14FF0000140F67100AFF30080E8
:1060B00020BF26B1002140F67A00AFF3008014F82B
:1060C00018000128E7D1012426B1002140F6810003
:1060D000AFF30080ACB3002085F8230026B1002187
:1060E00040F68600AFF3008095F82DB0012020EA3D
:1060F0000B0907EB8B1107EB8910402225F035F9CE
:1061000026B1002140F25C40AFF3008005EB8B002C
:1061100005EB890AD0F82500CAF8250026B1002130
:106120004FF48C60AFF3008095F82300B8B1002ED7
:106130001CBF002140F68C00C6D000BFAFF300802A
:10614000C2E705E04A4641460120FEF727FCB0E7DA
:10615000C448002818BFAFF3008062B6BBE726B181
:1061600000214FF40960AFF300809AF826300AF15D
