:020000022000DC
:10D0000000000120C10E0300E90E030091E90200B7
:10D01000ED0E0300EF0E0300F10E03000000000010
:10D02000000000000000000000000000F30E0300FC
:10D03000F50E030000000000F70E0300F90E0300D8
:10D04000FB0E0300FB0E030001010300FB0E0300B7
:10D05000FB0E0300FB0E03008DF70200FB0E030026
:10D06000FB0E0300FB0E0300FB0E0300FB0E030090
:10D07000FB0E0300FB0E0300FB0E0300FB0E030080
:10D08000FB0E0300B5DF0200FB0E0300FB0E0300E6
:10D0900055E00200FB0E030065130300FB0E0300C6
:10D0A000FB0E0300FB0E0300FB0E0300FB0E030050
:10D0B000FB0E0300FB0E0300000000000000000058
:10D0C000FB0E0300FB0E0300FB0E0300FB0E030030
:10D0D000FB0E0300FB0E0300FB0E0300000000002C
:10D0E0000000000000000000000000000000000040
:10D0F0000000000000000000000000000000000030
:10D10000000000000000000000000000000000001F
:10D11000000000000000000000000000000000000F
:10D1200000000000000000000000000000000000FF
:10D1300000000000000000000000000000000000EF
:10D1400000000000000000000000000000000000DF
:10D1500000000000000000000000000000000000CF
:10D1600000000000000000000000000000000000BF
:10D1700000000000000000000000000000000000AF
:10D18000000000000000000000000000000000009F
:10D19000000000000000000000000000000000008F
:10D1A000000000000000000000000000000000007F
:10D1B000000000000000000000000000000000006F
:10D1C000000000000000000000000000000000005F
:10D1D000000000000000000000000000000000004F
:10D1E000000000000000000000000000000000003F
:10D1F000000000000000000000000000000000002F
:10D2000010B5054C237833B9044B13B10448AFF380
:10D2100000800123237010BD9C2800200000000026
:10D22000B820030008B5034B1BB103490348AFF313
:10D23000008008BD00000000A0280020B8200300E6
:10D24000154B002B08BF134B9D46A3F5803A0021D8
:10D250008B460F461348144A121A04F08EFB0F4BEC
:10D26000002B00D098470E4B002B00D09847002091
:10D27000002104000D000D48002802D00C48AFF337
:10D28000008004F02BFB2000290004F0BFFA04F01A
:10D2900011FB00BF0000080000000120000000009A
:10D2A000000000009C280020443100200000000005
:10D2B00000000000F0B595B0002415460F46084662
:10D2C0001E4601F0BBFF384623460895082205A9F3
:10D2D0001A9D09960D950A948DF82C400C9402F035
:10D2E00013F89DF814308DF81040DDE9061003F0B6
:10D2F0000302012A0290ADF80C102BD0022A04D0B0
:10D30000384601F0ABFF15B0F0BDBDF81650C3F3C1
:10D31000C202C3F38003AD098DF80E208DF80F30E3
:10D320000826082D2C4628BF0824334622460EA97D
:10D33000384601F0E9FF2D1B214608AB02AA0EA8D2
:10D34000264400F0D1FB002DEBD1384601F086FFDA
:10D3500015B0F0BDBDF814500598C5F38315C3F39F
:10D36000C20CAA000EA9C3F38004C0F395260823BB
:10D3700038468DF80EC08DF80F4001F0C5FF08ABA0
:10D380002A4630460EA9009302AB00F015FB384642
:10D3900001F064FF15B0F0BD014B01221A70704717
:10D3A000FC280020704700BF70B50E4D0E4888B0B5
:10D3B00002F078FD0FCD6C460FC495E80F0008AD64
:10D3C000062645F8206D84E80F002946002206480D
:10D3D00002F080FC08B100F0A9FD044B00221A7095
:10D3E00008B070BDD01C0300F8250020B82800202C
:10D3F00000B583B0044B0093044A4023FFF75AFF63
:10D4000003B05DF804FB00BF11D40200BC2800206B
:10D4100010B5094C09480023D2B2237002F0C6FDB2
:10D4200030B9074B1B7813B12378002BFCD010BD0B
:10D4300000F07CFDF5E700BFFC280020F825002067
:10D44000B828002070B50D4D0FCD88B06C460FC4C4
:10D4500095E80F0008AD062645F8206D84E80F001A
:10D460002946074A074802F035FC08B100F05EFD86
:10D47000054B01221A7008B070BD00BFD01C03001C
:10D4800099D30200F8250020B828002010B5054CDB
:10D49000FFF7D8FF2046042100F04CFA0123637205
:10D4A00010BD00BF002600202DE9F0477F4C00236F
:10D4B00084B0C4F81834BFF34F8FD4E9017607EA7B
:10D4C0000601CB1C04EB830214F8233098073D4679
:10D4D0000FD1138852889B0903EB921301331D442B
:10D4E00006EA0501CB1C04EB830214F823309B07EA
:10D4F000EFD004EB81016A1CCB680193324004EB4E
:10D50000820203F00303D2680292022B05F10208A3
:10D510000FD0012B70D0032B06D02068C01B18BF82
:10D52000012004B0BDE8F087D4F818040028F4D135
:10D53000F7E7BDF806305E484FEA93194D46502D87
:10D5400028BF502565F38F1305F10801ADF80630AB
:10D5500001F032FE074600284CD026EA080A0AF1FC
:10D56000010A01F06BFE4FEA8A0A0023082201A992
:10D57000384601F09BFE554540F28B80EBB2BAF184
:10D58000000F7FD006EA0801A3EB0A03033104EB86
:10D590008101DDB252460823384601F087FE2A4653
:10D5A0000AF108034349384601F080FE09F10309F6
:10D5B00008EB9909D4F81834002B5ED1D4F8105434
:10D5C00055B16B7A28463946002B52D02B681B6820
:10D5D00098476D68002DF4D1384601F03FFE0020D9
:10D5E00001F0C4F9D4F818340BB9C4F80490002041
:10D5F00001F0C4F9676890E7BDF804302C48C3F324
:10D600008311062928BF062161F38913023189009D
:10D61000ADF8043001F0D0FD07460028EAD001F053
:10D620000DFE0023082201A9384601F03FFEBDF897
:10D63000043013F4707F37D06FF0010AAAEB050AAB
:10D64000082506EA080103312B46042204EB810178
:10D65000384601F02BFEBDF8043008F101090AEB51
:10D660000902C3F383139A42C84605F10405E8D3BF
:10D67000A0E76D68002DA4D1AEE7384601F0EEFDBD
:10D6800067684AE72A4608230A49384601F00EFE31
:10D690008CE706EA0801033104EB81012A460823DE
:10D6A000384601F003FE81E7C14683E700290020E8
:10D6B000FC1C03000C29002008B50E4B0E4800226C
:10D6C000FF21C3F818249960C3E90022C3F8142489
:10D6D00083F81C2401F06EFD58B90849084BC91A9B
:10D6E000C90806D0074A034622F80C3B0133994289
:10D6F000FAD108BD00290020FC1C030048210300CA
:10D70000D8200300F427002021B9134A02EBC000FF
:10D710000068704730B411490F4C091BC90816D076
:10D720000F4B5A88824218BF002205D111E0DD89D3
:10D73000854203F10C0305D001329142F7D100205C
:10D7400030BC704704EBC200006830BC704708462C
:10D75000F6E72046F8E700BFD82003004821030081
:10D76000F4270020094B013903EBC00003290BD833
:10D77000DFE801F002080604022070474079704794
:10D78000007970470420704700207047D8200300BC
:10D790002DE9F04F604C89B0A368029000200193FE
:10D7A000039101F0E3F8D4E901E0D4F8008000EB44
:10D7B0000E030133A3EB0803032B61D800F1010A28
:10D7C000AAEB080A04F5836C04F2144600EA0E0979
:10D7D000012500275CE8003F43EA05024CE80021F0
:10D7E00091F0000FF6D156E8003F43EA050246E803
:10D7F000002191F0000FF6D109F1030304EB83013E
:10D8000014F823309B07CB46724610D10B88498809
:10D810009B0903EB911301331A4400EA020B0BF14D
:10D82000030304EB830114F823309B07EED004EBD1
:10D830008B0B0232DBF80C30059303F00303012B52
:10D8400064D0022B05D1BDF816309B09033302EBDF
:10D85000930256E8003F03EA070146E8001B9BF0ED
:10D86000000FF6D143B10AEB0203032B626007D825
:10D87000964600EA0209ADE70AEB0E03032BA9D98D
:10D8800008EA0000033008F1020214F8203043F0E7
:10D89000030304F820300020226001F06FF8019AA1
:10D8A000029908F10103134004EB830302EA08081C
:10D8B00008F103080A0CDA6014F828300A0962F348
:10D8C000820361F3C50304F8283034F82830039A42
:10D8D0006FF3891324F8283054F8283062F39F231B
:10D8E0001A46012161F3010244F8283004F8282087
:10D8F00094F81C341BB906E0FFF7D6FD18B1D4E943
:10D9000000329A42F8D109B0BDE8F08FBDF814306A
:10D91000C3F383131A449CE700290020044BD3E986
:10D9200000239A4201D0FFF7BFBD0020704700BF1F
:10D930000029002030B4154DD5F81044002154B111
:10D94000237A8B4213D0234602E01A7A8A420ED001
:10D950005B68002BF9D10172D5F810347BB15B689C
:10D960004360D5F81034586030BC08467047013128
:10D970000A29E4D14FF0FF31084630BC7047C5F8A2
:10D980001004436030BC0846704700BF00290020E7
:10D9900038B5084BD3F81044012583F81C543CB12A
:10D9A0002368657220465B6898476468002CF7D14D
:10D9B00038BD00BF002900202DE9F04784B01D4686
:10D9C0000C9C002394F80C802373EB7981460E465F
:10D9D0001746DBB1062F09D8DFE807F00430363DE3
:10D9E00046515E004946204601F070F8EB792BB9AC
:10D9F0002B7AEBB93649204601F068F8204601F051
:10DA000059F884F80C8004B0BDE8F0872B7AA88818
:10DA1000A979002B4FD12F4B53F821A00021FFF7FC
:10DA200073FE524603462C49204601F04FF8D1E7D9
:10DA30002A4A2B49204601F049F8DBE7326849467B
:10DA4000204601F043F8D1E74946D6E900232046B5
:10DA500001F03CF8CAE7B168D6E9002320460091FE
:10DA6000494601F033F8C1E7D6E90201D6E90023BF
:10DA7000019100904946204601F028F8B6E7D6E922
:10DA80000371B068D6E900230291CDE90007494649
:10DA9000204601F01BF8A9E7D6E90410D6E90023D7
:10DAA0000390D6E902070291CDE9000749462046D6
:10DAB00001F00CF89AE7FFF755FE0A4B084953F8B6
:10DAC0002020204601F002F8A979A888A3E700BF2A
:10DAD000641D0300681D0300501D03005C1D03004E
:10DAE0004C1D0300141D030008295BD82DE9F04FDD
:10DAF0001D46914600232A7B2B7383B099F807308B
:10DB0000019207460E46002B4DD0DFF808B1DFF832
:10DB10000881002405E03A5D013400F0D7FF082CAD
:10DB200009D0A64241462846F5D85946013400F0AE
:10DB3000CDFF082CF5D13049DFF8E080DFF8E0B008
:10DB4000284600F0C3FF002411E017F804A003F0FA
:10DB5000E9FE50445946437813F0970F14BF5246DC
:10DB60002E222846013400F0B1FF082C08D0A6422E
:10DB700041462846E9D8013400F0A8FF082CF6D128
:10DB800099F8073013B999F8083003BB1B492846A8
:10DB900000F09CFF284600F08DFF019B2B7303B023
:10DBA000BDE8F08F704799F80830B9F8040099F88B
:10DBB000061093B9124B53F821400021FFF7A4FD42
:10DBC000224603460F49284600F080FF9DE70E4A93
:10DBD0000E49284600F07AFFD8E7FFF7C3FD0C4B4B
:10DBE0000A4953F82020284600F070FF99F80610E3
:10DBF000B9F80400DEE700BF441D0300641D030004
:10DC0000681D0300501D03005C1D03004C1D030034
:10DC1000141D0300401D0300381D0300581D0300A0
:10DC2000481D0300054A4FF0A043105CD3F80435AB
:10DC300023FA00F0C04300F001007047DC1D030030
:10DC4000044B195C4FF0A04201238B40C2F80C3505
:10DC5000704700BFDC1D0300044B195C4FF0A0426D
:10DC600001238B40C2F80835704700BFDC1D03005C
:10DC70004FF0A04310B44FF480204FF400344FF421
:10DC800000214FF48012C3F80845C3F80805C3F813
:10DC90000815C3F808255DF8044B70474FF0A04302
:10DCA00010B44FF480204FF400344FF400214FF4AF
:10DCB0008012C3F80C45C3F80C05C3F80C15C3F863
:10DCC0000C255DF8044B7047074B4FF0A041185CE2
:10DCD000D1F804350122824022EA03001340C1F842
:10DCE0000805C1F80C357047DC1D030030B44FF057
:10DCF000A04303224FF400354FF480244FF400205A
:10DD00004FF48011C3F84427C3F84827C3F84C27C1
:10DD1000C3F85027C3F80855C3F80845C3F80805E9
:10DD2000C3F8081530BC70470D2809D00E2809D05B
:10DD30000F2809D010280CBF03204FF0FF30704788
:10DD40000020704701207047022070472DE9F84FEE
:10DD5000254B93F800C0BCF1000F31D0DFF88CB038
:10DD6000DFF88CA0DFF88C900024012703E0013459
:10DD7000E4B2644524D226B2DBF80050DAF8003071
:10DD800015F8360007FA00F10B4205EBC608EED095
:10DD900023EA0103CAF8003001F0EEFC15F8366002
:10DDA000D9F8003007FA06F52B4000FA06F18B424D
:10DDB00008D00D4B013493F800C0E4B26445DAD3C7
:10DDC000BDE8F88F98F80110D8F80430A1F10101EE
:10DDD000B1FA81F14909091AB1FA81F14909002B17
:10DDE000E7D030469847E4E7F02D0020202E0020B1
:10DDF0001C2E0020182E002070B50646114800F099
:10DE000081FD40B9104D01242B68B440234203D05A
:10DE100023EA04042C6070BD304601F0ADFC0B49D0
:10DE20000A6860B122432B6809480A601C430168F4
:10DE30002C6004480022BDE8704000F015BD22EAC5
:10DE40000402F0E7F82D00201C2E0020182E0020E0
:10DE5000F42D0020042A34D92DE9F04182B00F4678
:10DE60000646144601F04EFB002834D01C4A1D4BD8
:10DE70001D4916601F701D4A1D4B0C6000257C1E3D
:10DE800015601D60E4B2F7B106EBC404194F083EFB
:10DE90004FF0030801E0B44215D0A37820788DF844
:10DEA00004803A4601A98DF806508DF807508DF888
:10DEB000053001F031FB083C0028ECD002B0BDE891
:10DEC000F081072070470C4A0C48002100F0BAFC92
:10DED00002B0BDE8F08101F0DBFA0028C6D0EDE722
:10DEE000202E0020F02D0020F42D0020182E0020E0
:10DEF0001C2E0020F9DD02004DDD0200E01D0300B4
:10DF000070B5084D2B785BB1074E002433680121B2
:10DF100013F8340001F0CEFB2B780134A342F5D87E
:10DF2000002070BDF02D0020202E002000B585B00F
:10DF300000230390194601AA44F20100ADF8043011
:10DF4000029300F003F805B05DF804FB10B5FFF78D
:10DF50001FFDFFF7E3FC0028FBD1104C104920887F
:10DF6000000440F00100FFF713FC0E4B1B68DB07B9
:10DF700000D5FFDE20880C49000440F00200FFF7C6
:10DF800007FCBFF34F8F0949094BCA6802F4E062EE
:10DF90001343CB60BFF34F8F00BFFDE73C28002049
:10DFA000E41D0300F0ED00E0F01D030000ED00E0D3
:10DFB0000400FA05F8B5204A204B0024C2F840417D
:10DFC000C2F84441C2F84841C2F84C41C2F800418D
:10DFD000C2F804411B6833B31949D2F804550A68E2
:10DFE000AD1A1A6825F07F45AA4227460DD8197C3C
:10DFF000DE69AD1A144419B11F74D3E905209047A6
:10E000001EB133461A68AA42F1D90E490E4A0B785E
:10E0100012789A4208D00D490D4A41F823404FF436
:10E020008013C2F80031F8BD531CDBB2022B08BFCD
:10E0300000230B70EFE700BF00100140442F0020C9
:10E04000402F00203D2F00203C2F0020342F0020A7
:10E0500000E100E02DE9F04FAF48B04AB049137835
:10E060000978D0F80090AF4889B0006802909942D2
:10E0700000F04D810133DBB2022B08BF0023137087
:10E08000A94A52F82300A44B09EB000727F07F4769
:10E090001F60029B00252A462C46AC46B3B1196886
:10E0A000814200F24D81DD68C3F800C0401A0C4483
:10E0B000D9693DB109EB040626F07F46C3E9016545
:10E0C000DA611A460B460125002BE8D1002D40F0FD
:10E0D0009B81012302990693B946944B944C1B787B
:10E0E00005934FF000084B46CDF81C80CDF80C800E
:10E0F0004FF0010EC1468C469B4642B3D2E9016502
:10E100001346D2698B48A6EB0B0121F07F41814277
:10E1100059D829441960002083F810E0C3E90100B0
:10E12000D861BCF1000F72D0DCF8000088425FD2E9
:10E13000664603E02868884263D22E46F569091ACC
:10E14000002DF7D11960DD61F361002AD6D1CA46EE
:10E15000CDF804B094F8019021784FF0000B1646EA
:10E16000894576D0084600EB400004EBC0004A1C0D
:10E17000A378D1B2027921708B4204BF84F800B039
:10E180000021022A836853D0032A44D0012AE7D110
:10E190001F7C002FE4D13246C6685E6005699D6031
:10E1A0004169D960816999610599DDF804B0D1466A
:10E1B0000029A7D03E46A6EB0B015E485F6021F028
:10E1C0007F418142A5D9ABEB060121F07F41A942F5
:10E1D00002D2691A19609EE7002183F810E0C3E9B2
:10E1E00000119960D961BCF1000F10D0DCF800007B
:10E1F000411ACCF800104FF00108C3F81CC09C462F
:10E200007BE7401A28601960DD61F3619DE79C4659
:10E210004FF0010871E7BCF1000FA1D06246002366
:10E220001374D269002AFBD194464FF0010891E79C
:10E23000BCF1000F09D06345624603D192E08342EE
:10E240004ED00246D0690028F9D183F810B0894534
:10E2500088D1C346DDF80490D046BBF1000F40F0F2
:10E26000D780079B002B40F01A82B8F1000F02D034
:10E270002E4B059A1A702B4B1A68039B1BB9029BF5
:10E280009A4200F0C980002A00F0CD802A48224B33
:10E29000D0F804151B68294C15682678CA1A22F094
:10E2A0007F420332002E00F0A78195422CBF5B19FC
:10E2B0009B18214823F07F43C0F84035D0F804254F
:10E2C000521A5B1A22F07F4223F07F4303329A42B4
:10E2D00000F24881154A0023137009B0BDE8F08FA1
:10E2E000934237D0674604931D46E8692D68D06194
:10E2F00028B102682A440260217894F801906745A9
:10E30000A3D00122BC46039283F810B09FE70022FD
:10E3100006920146E1E600BF402F00203C2F00207E
:10E320003D2F0020442F0020342F0020302F0020CC
:10E33000242E0020FEFF7F0000100140312F00201E
:10E34000002D40F0B081091A19600123B9460693E7
:10E350000299C2E60493DCF81C7037B14FF0010853
:10E36000049DC2E7CDF810C0F5E77748774DC0F8B7
:10E3700008E077484FF02F08006800BF00BF00BFDB
:10E3800000BF00BF00BF00BF00BFA8422FD000BF2A
:10E3900000BF00BF00BF00BF00BF00BF00BF00BF85
:10E3A00000BF00BF00BF00BF00BF00BF00BF00BF75
:10E3B00000BF00BF00BF00BF00BF00BF00BF00BF65
:10E3C00000BF00BF00BF00BF00BF00BF00BF00BF55
:10E3D00000BF00BF00BF00BF00BF00BF00BF00BF45
:10E3E00000BF00BF00BF00BF00BF00BF00BFB8F14B
:10E3F0000108C2D14FF0010A0197CDF814A0CDF861
:10E400001CA0D046049D70E7524902930B6060E661
:10E41000504BC3F800C024E7069B002B3FF45AAFD3
:10E42000002A7FF433AF48494B4B494E474C4FF4D9
:10E4300080304FF400370125C3F88070C1F84803DD
:10E440002F23C1F808034D6030681E4600BF00BF8F
:10E4500000BF00BF00BF00BF00BF00BFA0422FD061
:10E4600000BF00BF00BF00BF00BF00BF00BF00BFB4
:10E4700000BF00BF00BF00BF00BF00BF00BF00BFA4
:10E4800000BF00BF00BF00BF00BF00BF00BF00BF94
:10E4900000BF00BF00BF00BF00BF00BF00BF00BF84
:10E4A00000BF00BF00BF00BF00BF00BF00BF00BF74
:10E4B00000BF00BF00BF00BF00BF00BF00BF00BF64
:10E4C000013EC3D18D6025490A6000BF00BF00BF77
:10E4D00000BF00BF00BF00BF00BFA0422FD000BFE1
:10E4E00000BF00BF00BF00BF00BF00BF00BF00BF34
:10E4F00000BF00BF00BF00BF00BF00BF00BF00BF24
:10E5000000BF00BF00BF00BF00BF00BF00BF00BF13
:10E5100000BF00BF00BF00BF00BF00BF00BF00BF03
:10E5200000BF00BF00BF00BF00BF00BF00BF00BFF3
:10E5300000BF00BF00BF00BF00BF00BF00BF013B66
:10E54000C3D1074B1A70C5E6001001400024F40047
:10E5500018260020442F002000E100E0402F00207A
:10E56000312F0020D0F80435514AC0F840351268E8
:10E5700050492F2300BF00BF00BF00BF00BF00BF36
:10E5800000BF00BF8A422FD000BF00BF00BF00BF46
:10E5900000BF00BF00BF00BF00BF00BF00BF00BF83
:10E5A00000BF00BF00BF00BF00BF00BF00BF00BF73
:10E5B00000BF00BF00BF00BF00BF00BF00BF00BF63
:10E5C00000BF00BF00BF00BF00BF00BF00BF00BF53
:10E5D00000BF00BF00BF00BF00BF00BF00BF00BF43
:10E5E00000BF00BF00BF00BF013BC3D1324B4FF49F
:10E5F0000032C3F800216DE62F4EDFF8B4E0DFF8FB
:10E60000B4C04FF48037C0F84473C0F804734FF4BB
:10E610000037C6F88071376001260660DEF80070AA
:10E620002F2000BF00BF00BF00BF00BF00BF00BF62
:10E6300000BF67452FD000BF00BF00BF00BF00BFB5
:10E6400000BF00BF00BF00BF00BF00BF00BF00BFD2
:10E6500000BF00BF00BF00BF00BF00BF00BF00BFC2
:10E6600000BF00BF00BF00BF00BF00BF00BF00BFB2
:10E6700000BF00BF00BF00BF00BF00BF00BF00BFA2
:10E6800000BF00BF00BF00BF00BF00BF00BF00BF92
:10E6900000BF00BF00BF0138C3D1267005E6074B9D
:10E6A000C3F80090E1E5064C029323604BE600BFFF
:10E6B000182600200024F40000E100E0402F002094
:10E6C000442F0020F0B4554B554A564E564C4FF44B
:10E6D00080304FF400310125C2F88010C3F84803A0
:10E6E0002F21C3F808035D6030680E4600BF00BFED
:10E6F00000BF00BF00BF00BF00BF00BFA0422FD0BF
:10E7000000BF00BF00BF00BF00BF00BF00BF00BF11
:10E7100000BF00BF00BF00BF00BF00BF00BF00BF01
:10E7200000BF00BF00BF00BF00BF00BF00BF00BFF1
:10E7300000BF00BF00BF00BF00BF00BF00BF00BFE1
:10E7400000BF00BF00BF00BF00BF00BF00BF00BFD1
:10E7500000BF00BF00BF00BF00BF00BF00BF00BFC1
:10E76000013EC3D19D6000BF00BF00BF00BF00BF1E
:10E7700000BF00BF00BFA0422FD000BF00BF00BF3E
:10E7800000BF00BF00BF00BF00BF00BF00BF00BF91
:10E7900000BF00BF00BF00BF00BF00BF00BF00BF81
:10E7A00000BF00BF00BF00BF00BF00BF00BF00BF71
:10E7B00000BF00BF00BF00BF00BF00BF00BF00BF61
:10E7C00000BF00BF00BF00BF00BF00BF00BF00BF51
:10E7D00000BF00BF00BF00BF00BF0139C3D1134E4F
:10E7E000134C1449144D154F0020307020600870F0
:10E7F0004FF480140B26E0212880AE703870104D45
:10E80000C2F8804182F814131460C3F8080582F836
:10E810001113D3F804352B60F0BC70470010014091
:10E8200000E100E0182600200024F400312F002031
:10E83000442F00203C2F0020242E00203D2F0020BC
:10E84000402F0020074B9B784BB132B128B10368B1
:10E85000187C20B959745A61704707207047082006
:10E86000704700BF242E00202DE9F843224CA378E6
:10E87000002B35D0002833D0042934D943697BB329
:10E88000437C0646012B4FF000000CBF88468046B3
:10E890001746894600F06AF86378A17822785D1CF3
:10E8A000EDB2A94208BF0025AA421FD003EB4303E3
:10E8B00004EBC3030121114A9E601971D2F80425AB
:10E8C000DA600020C3E904989F61657000F056F893
:10E8D0000B4B4FF48012C3F800210020BDE8F883F1
:10E8E0000820BDE8F8830720BDE8F883002000F089
:10E8F00045F80420F2E700BF242E0020001001405C
:10E9000000E100E070B5174DAB7823B318B343694D
:10E910000BB3002404740646204600F027F86A78FA
:10E92000A8782978531CDBB2984208BF2346994245
:10E9300013D002EB420205EBC20202219660204690
:10E9400011716B7000F01AF8074B4FF48012C3F886
:10E950000021204670BD082070BD204600F00EF852
:10E96000042070BD242E002000E100E072B6024AAF
:10E970001368013313607047482F0020034A13685F
:10E98000013B136003B962B6704700BF482F0020F7
:10E990001EF0040F1CBFEFF309800AE0EFF30880BC
:10E9A0000849094A884201D8904202D88D464FF062
:10E9B00000006B46854608B5044B9847BDE8084003
:10E9C0009D4670470000012000E00020F5E90200AC
:10E9D000BFF34F8F0549064BCA6802F4E062134348
:10E9E000CB60BFF34F8F00BFFDE700BF00ED00E03D
:10E9F0000400FA0510B50446FEF7CAFFFEF78EFFC5
:10EA00000028FBD12046FFF7E3FF10BDB8B130B4BA
:10EA1000D0E90112521A0468D2B2531E2160DBB24F
:10EA200042B101680A685C1E551C0D601370E3B2A8
:10EA3000FF2BF6D103680020187130BC70470E2000
:10EA4000704700BF38B504460020FFF78FFFD4E9B8
:10EA500000311A688A4215D9511E19602168A368CD
:10EA60000868258A12F8012CE4681B1A0879DBB2C1
:10EA7000984205FB024400D20B710020FFF77EFF95
:10EA8000204638BD0024F8E738B5054600200C467E
:10EA9000FFF76CFF2A681368591C1160E9682A8A1D
:10EAA000641AB4FBF2F41C700020BDE83840FFF794
:10EAB00065BF00BF826842B110B504464369016872
:10EAC000006998470023A36010BD70470EB400B5DD
:10EAD00082B0039929B102AA04AB42F8043D00F0C8
:10EAE0008BF802B05DF804EB03B070472DE9F84FE6
:10EAF00088469045174605461E46DDE90AB175D39E
:10EB000043464FF00109B3FBF7F39F4209F10109B6
:10EB1000F9D9B14538BFB14611F0010AAA6802D14E
:10EB2000BBF1000F43D1012402E0013E07FB04F4D6
:10EB3000012EFAD8B8FBF4F18F42F7D92D4E05E03B
:10EB4000B4FBF7F4A4B1B8FBF4F1AA68705C531CF1
:10EB5000AB602B689854D5E901329A4204FB1188C6
:10EB6000EED32846FFF7A6FFB4FBF7F4002CEAD15A
:10EB7000BAF1000F15D0BBF1000F12D0CB4510D960
:10EB80002024AB682A68591CA960D454D5E9013205
:10EB90009A420BF1FF3B06D2BBF1000F01D0CB45EF
:10EBA000EFD1BDE8F88F2846FFF784FFF4E78B0725
:10EBB00017D42024CB45B6D92B68511CA9609C548E
:10EBC000D5E901329A420BF1FF3B05D2BBF1000FB0
:10EBD000A9D0CB45F0D1A6E72846FFF76BFFAA687E
:10EBE000F4E7002E0CBF30242024E3E74FF00109A6
:10EBF0008FE700BF141E0300002900F0F4812DE907
:10EC0000F04F054685B092460C460B78DFF8A0B56C
:10EC100001E0237893B1013483B1252B15D0AA6884
:10EC20002968501CA8608B54D5E901329A42F0D370
:10EC30002846FFF73FFF2378002BECD12B7B002BDE
:10EC400040F0148105B0BDE8F08F2146002711F88F
:10EC5000012B2D2A00F0E180302A00F0E2802B2ADF
:10EC600000F0D2802A2A00F0E080A2F13006F3B250
:10EC7000092B03D9B8E1A3F130060146084606EB9B
:10EC8000860310F8012BA2F13004092C02EB430398
:10EC9000F1D92E2A00F0D5800023013101E011F8CE
:10ECA000012B02F0FB0068280C46F8D0253A532AC5
:10ECB000AFD801A151F822F079EE020013EC020066
:10ECC00013EC020013EC020013EC020013EC020040
:10ECD00013EC020013EC020013EC020013EC020030
:10ECE00013EC020013EC020013EC020013EC020020
:10ECF00013EC020013EC020013EC020013EC020010
:10ED000013EC020013EC020013EC020013EC0200FF
:10ED100013EC020013EC020013EC020013EC0200EF
:10ED200013EC020013EC020013EC020013EC0200DF
:10ED300013EC020013EC020013EC020013EC0200CF
:10ED400013EC020013EC020013EC020013EC0200BF
:10ED500013EC020013EC020013EC020013EC0200AF
:10ED600013EC020013EC020013EC020013EC02009F
:10ED700013EC020013EC020013EC020013EC02008F
:10ED800013EC020093EE020013EC020013EC0200FD
:10ED900013EC020013EC020013EC020013EC02006F
:10EDA00013EC020013EC020013EC020013EC02005F
:10EDB000ADEE0200CFEE020013EC020013EC0200F5
:10EDC00013EC020013EC0200CFEE020013EC020081
:10EDD00013EC020013EC020013EC020013EC02002F
:10EDE00013EC02001FEF020013EC020013EC020010
:10EDF00093EF020013EC0200CDEF020013EC0200CF
:10EE000013EC020093EE020047F004070C46214683
:10EE100011F8012B2D2A7FF41FAF47F001070C4694
:10EE2000F5E747F002070C46F1E7DAF800301A1D63
:10EE3000CAF8002062781E682E2A04F102007FF4CE
:10EE40002BAF4A78A2F13003092B00F25081002346
:10EE500003EB830302EB430310F8012FA2F130010F
:10EE60000929A3F13003F3D9014616E7284605B076
:10EE7000BDE8F04FFFF71EBEAB682A68591CA960B9
:10EE80004FF02501D154D5E901329A42FFF4C1AEC9
:10EE9000CEE6DAF80020111DCAF8001011682846E5
:10EEA000CDE900671022FFF721FEB2E6DAF8002074
:10EEB000131DCAF80030AB6829681278581CA86086
:10EEC000CA54D5E901329A42FFF4A3AEB0E6DAF8AB
:10EED0000020111DCAF80010D2F8008088EAE872FC
:10EEE000A2EBE872092A4FF0010107DDAF48A0FB51
:10EEF0000202D208092A01F10101F7DC994238BF68
:10EF00001946894607F00202002E71D12AB1002B62
:10EF100000F04781FA0700F18D8000268AE0DAF8D8
:10EF20000020131DCAF80030AB6829681768581C08
:10EF30003022A860CA54D5E90123934280F0288189
:10EF40002A68581C7821A860D154D5E9012393423E
:10EF500080F019810F2F03D93A4612090F2AFCD8E5
:10EF60004FF0805603E036093FF453AEAB68296892
:10EF7000B7FBF6F2581CA8601BF80200C854D5E98C
:10EF80000131994206FB1277EDD32846FFF792FD37
:10EF9000E9E7DAF800301A1DCAF80020D3F800803B
:10EFA000FB077ED54746A7EB080917F8013B002B66
:10EFB0005DD0AA682968501CA8608B54D5E901323D
:10EFC0009A42F0D32846FFF775FDECE7DAF8002007
:10EFD000111DCAF8001011682846CDE900670A2201
:10EFE000FFF784FD15E6704708460026214650E6E7
:10EFF000B8F1000F01DB780700D5013E02B1CBB1BB
:10F00000F90717D4002E88D0B14513D220220393DC
:10F01000A9682B68481CA8605A54D5E90131994267
:10F0200006F1FF365DD2002E00F0BD80B145EFD174
:10F03000039B4E46B8F1000FC0F292807A070AD5C2
:10F04000A9684A1CAA602A682B205054D5E90121DE
:10F05000914280F0928007F00302022A5FD0CDE94E
:10F06000006741460A222846FFF740FDD1E54E459C
:10F070007FF6CFAD202705E04E453FF4CAAD002E08
:10F080003FF4C7ADAB682A68591CA960D754D5E9CD
:10F0900001329A4206F1FF36EED32846FFF70AFD09
:10F0A000EAE7B8F1000F24D0404602F06EFC0746B4
:10F0B000BE4220D9FEB14FF0200902E0BE421AD074
:10F0C000CEB1AB682A68591CA96002F80390D5E953
:10F0D00001329A4206F1FF36F0D32846FFF7EAFCE8
:10F0E000ECE728460292FFF7E5FC029A9BE701460F
:10F0F000D2E54746DCE708F1FF3818F8013F002B5E
:10F100003FF487ADAA682968501CA8608B54D5E9E4
:10F1100001329A42F1D32846FFF7CCFCEDE7002BF1
:10F120009DD1002E3BD0B14599D2029323464C4647
:10F130009946AA682B68501C4FF03001A86099547A
:10F14000D5E901329A4206F1FF3605D22EB3B44218
:10F15000EFD1029B4C4682E72846FFF7ABFCF5E770
:10F16000A9684A1CAA602A682D205054D5E90121BB
:10F170009142C8F10008FFF46EAF28460293FFF7F2
:10F1800099FC029B67E72846FFF794FCAB68E1E631
:10F190002846FFF78FFCAB68D2E6029B4C46002660
:10F1A0005DE71E4646E7039BB7E600BFCDCCCCCC5F
:10F1B000141E0300FFF72ABC2DE9F041058ACE1C7E
:10F1C000043D2E440746B6FBF5F6FFF73BFC78B34B
:10F1D000F6B24FF48073013E0446C5800760838019
:10F1E00027D08046002509E06379AE4203F1010390
:10F1F0006371C8F80000076080461AD03846FFF7F0
:10F2000021FC01350028EFD16679721E14D0234607
:10F21000013082421B68FBD11F684EB10025236874
:10F220002146013538461C46FFF72EFCAE42F6D18A
:10F2300000242046BDE8F0812768EFE710B40430D1
:10F24000012350E8002F02EB030140E8001494F082
:10F25000000FF6D15DF8044B704700BF0146021D58
:10F26000F8B5012052E8004FA4EB000342E8003556
:10F2700095F0000FF6D113F0FF0300D0F8BD4E79E2
:10F28000701E11D00A46013398421268FBD11768EC
:10F29000002EF3D000240D6801343846FFF7F4FB4C
:10F2A000A6422946F7D1F8BD0F68F3E72DE9F843E8
:10F2B0000446181DE688B0FBF6F30F46904606FBA1
:10F2C000130013B1013B2468FCD1351A454528BF12
:10F2D0004546B8F1000F15D04FF000090430A8EBF7
:10F2E000050820442A4607EB090102F03BFB46458E
:10F2F000A944246835464FF0000028BF4546B8F1C0
:10F30000000FEBD1BDE8F8832DE9F843C68804333C
:10F3100004460F46B3FBF6F0904606FB103110B1E1
:10F3200001382468FCD1751A454528BF4546B8F117
:10F33000000F15D04FF0000904312144A8EB050857
:10F340002A4607EB090002F00DFB4645A944246854
:10F3500035464FF0000128BF4546B8F1000FEBD10C
:10F36000BDE8F883F8B5274C012354E8001F1A467E
:10F3700044E8002595F0000FF7D1BFF35F8FC9B9BE
:10F3800004282FD0204A1578ADB9204D137028706D
:10F390001F4E73689BB1374604E0384600F048F8CA
:10F3A000736863B11B68287898470028F5D1BFF3CC
:10F3B0005F8F2060F8BDBFF35F8F2160F8BDFEF75F
:10F3C000E7FAFEF7ABFA0028FBD12B78023B012BC2
:10F3D0000AD94FF080430122C3F80025BFF34F8FB5
:10F3E00020BFFDE7094DD3E7BFF34F8F09490A4B13
:10F3F000CA6802F4E0621343CB60BFF34F8F00BFD3
:10F40000FDE700BF582F0020552F0020542F00206B
:10F410004C2F002000ED00E00400FA0501600B68AD
:10F4200043604A68934204BF00234360704700BFB3
:10F43000436843B1026891680B4443605268934249
:10F4400004BF0023436070474901002810B4C9B2CB
:10F45000C3B215DB00F1604202F5614282F800138D
:10F460004009800000F1604000F5614003F01F0298
:10F4700001239340C0F8803103605DF8044B70476E
:10F48000024A03F00F0422441176E9E7FCEC00E0A5
:10F4900030B5194C94F8545083B055BB4FF0FF333E
:10F4A00007210620C4E90033C4E90233C4E9043368
:10F4B000C4E90633C4E90833C4E90A33C4E90C33A8
:10F4C000C4E90E33C4E91033C4E912332365FFF7EE
:10F4D000BBFF0A4B0A4A1D601B68019301984FF05D
:10F4E00000430121284684F85410C2F8043303B0C5
:10F4F00030BD082003B030BD5C2F00207C6100408F
:10F5000000600040034B93F85400003018BF012006
:10F51000704700BF5C2F0020F0B4654B1C1894F9B5
:10F520003050002D66DACE78002E5DD11D6A01358F
:10F5300000F0AD8009240C2553F8247001375DD00C
:10F5400004F1010C53F82C70013700F0AA8004F18B
:10F55000020CAC4545D253F82C70013700F0A18065
:10F5600004F1030CAC453CD253F82C70013700F089
:10F57000988004F1040CAC4533D253F82C70013759
:10F5800000F08F8004F1050CAC452AD253F82C70A2
:10F59000013700F0868004F1060CAC4521D253F807
:10F5A0002C7001377DD004F1070CAC4519D253F80B
:10F5B0002C70013775D004F1080CAC4511D253F80A
:10F5C0002C7001376DD004F1090CAC4509D253F809
:10F5D0002C70013765D00A34AC4202D2DC6A0134A7
:10F5E0000BD00420F0BC70471D6801355BD00124AE
:10F5F0000825A1E70820F0BC70470B241F1865B24E
:10F6000043F8242087F83050002E46D08A78B2B1D3
:10F61000820002F1A042D2F8004724F00204C2F8AE
:10F620000047CA780978B2B9083D2B44104693F8D0
:10F63000502042EA811183F85010F0BC70474C789A
:10F6400000F5E0724FF0A046A40046F82240CA78C8
:10F650000978002AE8D0AB0003F1804303F5C043EA
:10F660000002D3F8102522F4473222F44072C3F886
:10F670001025090400F4F850D3F8102501F44031A6
:10F6800001431143C3F810150020F0BC7047082651
:10F6900084F830601A62354634461C4484F84800C9
:10F6A000B4E76446AAE700251A6084F83050ADE755
:10F6B0005C2F002070B42E4D2E1883B096F9303098
:10F6C000072B1CDD2B4493F848309B09032B41D0BA
:10F6D000012B14BF4FF440314FF40031800000F192
:10F6E000A040D0F8002722F44032C0F80027D0F81C
:10F6F00000370B43C0F8003703B070BC7047DAB274
:10F70000072AF9D8980000F1804000F5C04003F1C5
:10F710004002D0F81045920092B244F0010402F188
:10F720008042C0F8104502F5C04200200190019CC3
:10F7300010600029E0D096F9302055F82220002AE8
:10F74000DAD001220B4902FA03F3C1F8043303B003
:10F7500070BC70474FF0A043D3F81035C34013F08E
:10F76000010F0CBF4FF400314FF44031B6E700BF3A
:10F770005C2F0020006000404FF0A043D3F810350C
:10F7800023FA00F000F00100704700BF2DE9F041BE
:10F7900086B00023A14A01931668012E00F054811F
:10F7A0001E469F4B1A68012A00F05D819D4B1A6826
:10F7B000012A00F06A819C4B1A68012A00F07781C7
:10F7C0009A4B1A68012A00F08481994B1A68012A21
:10F7D00000F09181974B1A68012A00F09E81964BA8
:10F7E0001A68012A0CD0954B1B68012B00F0A581EB
:10F7F00016F0FF0F15D1002E30DB06B0BDE8F0810A
:10F800008F4AD2F804231706EDD500221A601A6831
:10F8100004926033049A1B68012B46F0800600F0C6
:10F820008C81884F00240125A30003F180433542D9
:10F8300003F5C0434FEA45050BD0D3F8100557F840
:10F840002420D3F81015C0F30420C1F3014102B104
:10F8500090470134082CE7D1002ECEDA00224FF079
:10F86000FF33CDE90223774C012602AF94F95030E3
:10F870005D1C2CD0DBB223F0C00006AA4FEAD00CEE
:10F8800002EB0C0E03F007021EF80C1C06FA02F243
:10F8900011421CD02518990995F9303054F82330BD
:10F8A000002B00F09881032900F098814FEA800C2A
:10F8B0000CF1A04C1EF8145CDCF800E71540CEF308
:10F8C000014E40F05C81BEF1030F00F0DE810025A7
:10F8D00094F95130581C2DD0DBB223F0C00006AA99
:10F8E0004FEAD00802EB080E03F007011EF80C2CBB
:10F8F00006FA01FC12EA0C0F1CD02218990992F9A1
:10F90000303054F82330002B00F05B81032900F0E5
:10F910005B81820002F1A0421EF8148CD2F800E74D
:10F9200018EA0C0FCEF3014E40F03681BEF1030F02
:10F9300000F0A68194F95230591C2DD0DBB223F08F
:10F94000C00006AA4FEAD00802EB080E03F0070138
:10F950001EF80C2C06FA01FC12EA0C0F1CD022181F
:10F96000990992F9303054F82330002B00F03C8193
:10F97000032900F03C81820002F1A0421EF8148CA1
:10F98000D2F800E718EA0C0FCEF3014E40F0E38006
:10F99000BEF1030F00F06E8194F953305A1C2DD044
:10F9A000DBB223F0C00006AA4FEAD00802EB080E33
:10F9B00003F007011EF80C2C06FA01FC12EA0C0FEA
:10F9C0001CD02218990992F9303054F82330002BBA
:10F9D00000F0ED80032900F0ED80820002F1A042EA
:10F9E0001EF8148CD2F800E718EA0C0FCEF3014E83
:10F9F00040F0BC80BEF1030F00F00081002D3FF409
:10FA0000FCAE4FF0A043019AD3F8103593423FF477
:10FA1000F4AE029A0193039228E700BF0061004010
:10FA200004610040086100400C610040106100402A
:10FA300014610040186100401C6100407C6100407E
:10FA4000006000405C2F00209A49D1F8041311F0A7
:10FA5000010170D0136013680493049B964B1A68DD
:10FA6000012A7FF4A3AE934AD2F8042397077FF5C7
:10FA70009DAE00221A601B680493049B8F4B1A688A
:10FA8000012A46F002067FF496AE8A4AD2F8042391
:10FA900055077FF590AE00221A601B680493049B03
:10FAA000874B1A68012A46F004067FF489AE814A22
:10FAB000D2F8042314077FF583AE00221A601B6876
:10FAC0000493049B7F4B1A68012A46F008067FF4D2
:10FAD0007CAE784AD2F80423D0067FF576AE0022B9
:10FAE0001A601B680493049B774B1A68012A46F03E
:10FAF00010067FF46FAE6F4AD2F8042391067FF5AB
:10FB000069AE00221A601B680493049B6F4B1A684D
:10FB1000012A46F020067FF462AE664AD2F804233A
:10FB200052067FF55CAE00221A601B680493049BAA
:10FB300046F0400653E60E4633E6654B00221A6057
:10FB40001B6805934FF0A043059AD3F81035019335
:10FB500046F000464CE6BEF1020F7FF41DAF0329CC
:10FB600063D0002B3FF418AF984715E7BEF1020FA2
:10FB70007FF444AF032969D0002B54D13EE7BEF196
:10FB8000020F7FF4A4AE032900F091800025002B22
:10FB90003FF49EAE98479BE6BEF1020F7FF4CAAEDB
:10FBA000032956D0002B3FF4C5AE9847C2E603297F
:10FBB0007FF424AF17F8082042EA0C0207F8082067
:10FBC0000BE703297FF4B6AE17F8082042EA0C02CF
:10FBD00007F808209DE603297FF479AE17F80C504A
:10FBE000154307F80C5061E603297FF4D5AE17F8EA
:10FBF000082042EA0C0207F80820BCE60329BBD122
:10FC00004FF4003ED2F800C72CF4403CC2F800C7C5
:10FC1000D2F800C701354CEA0E0CEDB2C2F800C7AD
:10FC2000002B3FF4EEAE9847E8E64FF4403ED2F8A2
:10FC300000C72CF4403CC2F800C7D2F800C7013519
:10FC40004CEA0E0CEDB2C2F800C78AE74FF4403E12
:10FC5000D8E74FF4403ED2F800C72CF4403CC2F83D
:10FC600000C7D2F800C701354CEA0E0CEDB2C2F85D
:10FC700000C797E703297FF474AF4FF4003ED6E73F
:10FC800003298FD14FF4003EE5E703297FF47FAFCE
:10FC90004FF40035DCF8002722F44032CCF800277E
:10FCA000DCF800272A43CCF8002701256FE74FF442
:10FCB0004035EFE70060004004610040086100400B
:10FCC0000C61004010610040146100401861004068
:10FCD0007C610040F0B506796F4C7601A31987B0BE
:10FCE000DD7E002D40F089804D7F1D770B685D1C07
:10FCF0000CD001254FF0A04705FA03F3C7F80835EB
:10FD00000B6803F5E073032547F823504B685F1C2D
:10FD100006D003F5E0734FF0A045002745F82370A7
:10FD2000037905688F6904EB43131B7FC5F82475BD
:10FD3000002B46D00F7D4B7D05683B43C5F86C35E5
:10FD4000D1E900750368C3F80C75C3F814550B7D31
:10FD5000012B7FD0A31905465A600B69A351EAB164
:10FD60000379097F026804EB43131B7F002B4BD1FF
:10FD7000C2F81C31D2F81C012A6800900098C2F821
:10FD80004431D2F844212B680192444A0198C3F8C7
:10FD90000423286840F30730FFF756FB2B792A68C5
:10FDA00004EB43131B7F5BB30823C2F800353444D4
:10FDB00000200123E376E0752076A075A07607B0D9
:10FDC000F0BD91F814C04D7D076845EA0C05C7F8F1
:10FDD0006C55D1E900C70568C5F81475C5F80CC5A0
:10FDE0000D7D012DB6D18D686F1C3DD005F5E075F8
:10FDF0004FF0A04747F8253036E0082007B0F0BDA7
:10FE00000423C2F80035D2E70023C2F81031D2F83B
:10FE100010012A6802900298C2F82031D2F820011D
:10FE20002A6803900398C2F82431D2F824012A6882
:10FE300004900498C2F84431D2F844212B6805920A
:10FE4000174A0598C3F80423286840F30730FFF7E2
:10FE5000FBFAA3E78B685D1C06D003F5E0734FF057
:10FE6000A045002745F82370CB685D1C0DD0012507
:10FE70004FF0A04705FA03F3C7F80835CB6803F540
:10FE8000E073032547F82350CB6805688F68C5F8F1
:10FE90000835C5F810755DE7B42F0020800002001A
:10FEA00010030200F0B404793C4B016864011A1994
:10FEB000127F002A6DD00022C1F800251A1901799D
:10FEC00055680268B5B103EB4111097F002963D180
:10FED0003349C2F808130268324E120B51B2490975
:10FEE000203102F01F02012505FA02F246F8212016
:10FEF00001790268D2F80C75D2F8146503EB411150
:10FF00004FF0FF3C097FB1B3D2F80815D2F8105575
:10FF1000C2F80CC5C2F814C50268C2F808C5C2F818
:10FF200010C57A1C06D007F5E0774FF0A0420220FA
:10FF300042F82700771C06D006F5E0764FF0A04285
:10FF4000022042F82600681C06D005F5E0754FF047
:10FF5000A042022042F825004A1C06D001F5E071BB
:10FF60004FF0A042022042F8210023440022DA761A
:10FF70005A60F0BC7047D2F80815D2F81055C2F894
:10FF800014C5C2F80CC50268C2F808C5C2F810C58D
:10FF9000C7E7C1F8002591E703499AE7B42F00208D
:10FFA0008402020000E100E010030200F0B50379D2
:10FFB000524C5B01E51887B02D7F25B101F06045FB
:10FFC000B5F1005F58D123449E7D002E57D19A751C
:10FFD00099609E8205796D016219137F13BB0168D8
:10FFE000C1F81C31D1F81C61016804960126049FF8
:10FFF0008E600168D2F808C0C1F81C31D1F81C31FC
:020000023000CC
:100000000593059B968A938A5768B6B201331CF80C
:1000100006609BB29382C1F81C65002F32D000208D
:1000200007B0F0BD03689168C3F82061D3F82031B0
:1000300001930368019FC3F85861D3F858610368BE
:100040000296967D029FC3F84415C3F8486503687D
:10005000012199605368002BE1D1036801E0002978
:1000600049D1D3F82021D3F85811002AF7D000291C
:1000700014BF0F20002039E0102007B0F0BD112080
:1000800007B0F0BD967D938A9E4222D9016804E0B4
:10009000938A9BB2B3F5807F03D0D1F81C31002B3B
:1000A000F6D0938A9BB2B3F5807FECD0C1F81C7177
:1000B000D1F81C310393039BB2F814E0938A1FFA22
:1000C0008EFE01331CF80EE09BB29382C1F81CE552
:1000D000D9E7938A9BB2B3F5807F0CD00268D2F83F
:1000E0001C31002BFBD00123D36000202C440023C3
:1000F000A37507B0F0BD0F20F8E700BFB42F0020B4
:10010000F0B5A94C237F8FB0002B73D1A74AD2F84A
:100110000413890546D4A54BD3F80423520704D50C
:10012000D3F80821002A40F0D480A04BD3F81C213A
:10013000BAB1A18AA27D8A4200F2B9800021C3F837
:100140001C11D3F81C310593059B52B1A3688DF89F
:100150002810A1750B938DF83020D4E900130AA85C
:100160009847924BD3F84421D2B10022C3F84421DE
:10017000D3F84411A27E04910499002A40F094809F
:10018000E37D6BB10023617EE268E37501238DF8A6
:1001900030108DF828300B92D4E900130AA8984744
:1001A0000FB0F0BDD2F824110029B4D0C2F8243128
:1001B000D2F82411A37E07914FF401710798C2F879
:1001C00008130BB901235360784A02238DF82830B5
:1001D000D2F88034C2F88034E07DE2680D930023C9
:1001E0008DF83000E375237621680B9263680AA8C6
:1001F00098479AE76D4BD3F82421002A00F09780A6
:100200000022C3F82421D3F82411029102218DF891
:1002100028100299D3F88014C3F880140D91D3F8F4
:100220003C15E3688DF830100B93E2752276216857
:1002300063680AA898475D4BD3F84421B2B1002205
:10024000C3F84421D3F84401E17D0190019869B1DC
:10025000D3F83C35E1688DF8303001230B918DF8EF
:100260002830E275D4E900130AA898474F4BD3F819
:100270002021002A94D00022C3F82021D3F82001A5
:10028000A17D0090009800298AD0D3F84C15A3686E
:100290008DF830100B938DF82820A275D4E9001347
:1002A0000AA898470FB0F0BD01221A6068E7002243
:1002B000C3F81C21D3F81C210692069AA18AA28AAF
:1002C000A06889B20132415C92B2A282C3F81C15C7
:1002D00047E7E27D002A54D00022C3F80821D3F872
:1002E00008210892089AE168627ED3F818358B5489
:1002F000637EE27D0133DBB26376637E93427FF4FB
:1003000014AF237E2168002B52D0E268657E2069FD
:10031000E3750B9200230122E060237663768DF86B
:1003200030508DF8282063680AA89847FDE6D3F876
:10033000101100293FF47FAFC3F81021D3F810113A
:1003400003910399D3F83C15E07DC9B288427FF44C
:1003500072AF257EE768D4E90016DDB1D3F800C29C
:10036000E5752CF020052276C3F80052012223699E
:100370008DF83000E3600B978DF828200AA8B0476D
:1003800059E7C3F80821D3F8081109910999D3F85E
:100390001835B2E701238DF83000E5750B978DF81D
:1003A00028300AA8B04746E7B42F002000200040BC
:1003B000A37E13B90A4B01225A60094AE0686368B8
:1003C0004FF40175C2F80853627E8DF83020002585
:1003D00001220B90E5758DF828200AA89847A4E61D
:1003E00000200040C2DF7047CDDF7047D1DF70478B
:1003F000D3DF704710B504468378827A417800785D
:10040000FFF7F0FF00B110BD23796279E188207811
:10041000FFF7EEFF0028F6D1E1782078FFF7E4FF40
:100420000028F0D1A378DB07EDD421890029EAD098
:100430002078BDE81040FFF7D9BF00BFC4DF704788
:1004400082600A780270034600220846C3E903224C
:100450001A75DA821A839A761A77DA83FFF7CABF97
:1004600000780021FFF7EABF90F82C200B789A4221
:1004700000D0704790F82D30802BFAD143784E3B56
:10048000022BF6D870B50446061D0D4630460C31D9
:1004900000F034F8E17801F07F01042911D8DFE899
:1004A00001F00B231A11030005F11C01304600F086
:1004B0004FF8E17801F07F01AB682846BDE8704055
:1004C000184770BD05F11801304600F039F8E178A1
:1004D00001F07F01F0E705F11401304600F028F843
:1004E000E17801F07F01E7E705F11001304600F007
:1004F00013F8E17801F07F01DEE700BF0279C378ED
:1005000010B444790C7003EB022382794A704B805B
:100510005DF8044B704700BF8378027810B44478CC
:100520001B0443EA042313430B605DF8044B70473C
:10053000827843780078087003EB02234B80704781
:1005400003780B7043784B7083788B70704700BFD3
:10055000827843780078087003EB02234B80704761
:10056000CCDF70470149FFF7FBBF00BF0C2600201E
:1005700008B5002000F03AFA08B1FDF7D7FC0120D9
:1005800008BD00BF08B5194B90F82C201B789A4283
:1005900000D008BD164B1B780BB1402BF9D190F859
:1005A0002D30072B15D00CD8012B1BD0022BF0D1EE
:1005B0000B2000F01BFA0028EBD0BDE80840FDF747
:1005C000B5BC082B0AD0802BE3D1072000F00EFA2F
:1005D000F1E70020BDE80840FEF7C4BE012000F0AE
:1005E00005FAE8E7002000F001FAE4E7142600200D
:1005F000D42F0020034A044B10700020197000F023
:10060000F5B900BF14260020D42F0020074B1B781B
:10061000102B07D0402B02D00BB1002070470120D7
:1006200000F0E4B9022000F0E1B900BFD42F0020AF
:100630000220FDF749BB00BF2DE9F0470D460646F5
:10064000FDF772FB03281ED8012D04461DD00ED3E2
:10065000022D18D11B4B00EB40041C44657895B16A
:10066000194B1B687BB12846BDE8F047184717486F
:10067000FEF748F9134B164A04EB44010B44125D94
:100680009D78AA42EBD0BDE8F0870E4F4FEA4008B4
:1006900008EB0003FA18FD5C53782BB9A0444744DB
:1006A0000B4BBA781A55DAE7DFF8289007484A4624
:1006B0004FF40041FEF7D8F80028EFD189F8006028
:1006C000ECE700BF183000204C300020F82F00204D
:1006D00054300020D52F002010B50078FDF724FB02
:1006E00003280BD8064B00EB40001844407828B193
:1006F000044B1B6813B1BDE81040184710BD00BF84
:10070000183000204C300020B24B1B68DB0700D4AF
:10071000704770B5B04DB14E2B7834786BB1B04B9B
:100720001B7800202870002B4BD0FDF795FA012094
:10073000FDF792FA0320FDF78FFA172C40D8DFE877
:1007400014F0B500F000F000D8000401C6000F015D
:10075000EA005000430050004300610018001800F8
:10076000180018001800660077008B009F005D00DD
:100770005D009C48FEF7C6F8D4F11104054600F070
:10078000FC80002840F0F980012C13D0C82303FB23
:1007900004F44FF4FA704FF400430021C3FB04014A
:1007A0004FF47A72002301F007F92A4601468D487A
:1007B000FEF75AF80220FDF743FA894B01221A701E
:1007C00070BDFDF755FAB8E7012318462B70FDF709
:1007D0007BFA00224FF480418348BDE87040FEF769
:1007E00043B8012318462B70FDF76EFA002240F63D
:1007F000CD417D48BDE87040FEF736B8FDF74EFAB2
:10080000347070BDFDF74AFA0C23337070BD744B21
:100810001B78002B00F0BB800020FDF71DFA0120A3
:10082000FDF71AFA0320FDF717FA1223337070BD93
:100830006B4B1B78002B00F0AD800020FDF70CFA0D
:100840000120FDF709FA0320FDF706FA0020FDF765
:10085000F7F91323337070BD614B1B78002B00F048
:10086000A9800020FDF7F8F90120FDF7F5F9032034
:10087000FDF7F2F90120FDF7E3F91423337070BDA1
:10088000574B1B78002B7FD00020FDF7E5F90120A6
:10089000FDF7E2F90320FDF7DFF90020FDF7D0F9BD
:1008A0000120FDF7CDF91523337070BD4C4B1B783B
:1008B000002B00F087800020FDF7CEF90120FDF726
:1008C000CBF90320FDF7C8F90023337070BD002079
:1008D000FDF7A8F9002860D00020FDF7BDF9052339
:1008E0003370002241F69A113F48BDE87040FDF791
:1008F000BBBF0020FDF796F900285ED00020FDF771
:10090000ABF946F266610323337000223648BDE836
:100910007040FDF7A9BF0020FDF792F9072333705F
:1009200070BD0020FDF77EF9D0B30020FDF794F9EB
:10093000022C4EF2666118BF4FF400313470002271
:100940002948BDE87040FDF78FBF0020FDF76AF928
:10095000D8B30020FDF780F94FF400310423D3E72A
:100960000020FDF7B1F906233370002240F6CD4197
:100970001D48BDE87040FDF777BF0220FDF76CF918
:10098000174B00221A7070BDFDF772F985E7FDF76D
:100990006FF94AE7FDF76CF958E7FDF751F99EE763
:1009A000FDF74EF943F2333141F69A13022C08BF9A
:1009B0001946C3E7FDF75CF95CE7FDF741F941F63D
:1009C0009A11A0E7FDF754F97EE7FDF739F943F2F4
:1009D0003331C3E72430002028300020503000207D
:1009E000D62F0020D82F00202C30002038B5C34B44
:1009F0001C6814F0010401D1204638BDC04C237896
:100A0000054663B1BF4B1B780020207023B3FDF770
:100A100023F90120FDF720F90320FDF71DF9172D1B
:100A200000F26981DFE815F0C300E800E8000C017E
:100A3000D5001F01FE00320128001B0028001B000A
:100A40006A00710071007100710071009A00AD00C0
:100A500035004B0064006400FDF70AF9DFE701236D
:100A600018462370FDF730F900224FF48041A64864
:100A7000BDE83840FDF7F8BE012318462370FDF7A6
:100A800023F9002240F6CD419F48BDE83840FDF7EC
:100A9000EBBE9C4B1B78002B00F012810020FDF771
:100AA000DBF80120FDF7D8F80320FDF7D5F8012089
:100AB000FDF7C6F8954B14221A7000249CE7914B61
:100AC0001B78002B00F0FF800020FDF7C5F8012007
:100AD000FDF7C2F80320FDF7BFF80020FDF7B0F8DE
:100AE0000120FDF7ADF8894B15221A70002483E729
:100AF000FDF7D4F8854B00241D707DE7FDF7CEF897
:100B0000824B0C221A70002476E78148FDF7FAFE2A
:100B10000446D5F1110000F0C180002C40F0BE80E9
:100B2000012814D0C82505FB00F54FF400434FF40D
:100B3000FA700021C3FB05014FF47A72002300F024
:100B40003BFF224601467248FDF78EFE0446022016
:100B5000FDF776F86B4B01221A704DE7694B1B7855
:100B6000002B00F0AA800020FDF776F80120FDF7A9
:100B700073F80320FDF770F8644B12221A700024FA
:100B80003AE7604B1B78002B00F08F800020FDF7C8
:100B900063F80120FDF760F80320FDF75DF8002001
:100BA000FDF74EF8594B13221A70002424E7554BD9
:100BB0001B78002B00F08A800020FDF74DF8012003
:100BC000FDF74AF80320FDF747F8504B00241C704E
:100BD00012E70020FDF726F8002869D00020FDF775
:100BE0003BF84FF40031494B474804241C70002265
:100BF000BDE83840FDF738BE0020FDF713F80028A7
:100C00006CD00020FDF728F8022D4EF2666118BF67
:100C10004FF400313D4B3C481D700022BDE8384088
:100C2000FDF722BE0020FDF74FF8384B364806246A
:100C30001C70002240F6CD41BDE83840FDF714BEDF
:100C40000020FCF7EFFF002843D00020FDF704F858
:100C500046F266612D4B2C4803241C700022BDE82F
:100C60003840FDF701BE0020FCF7DCFF00283FD034
:100C70000020FCF7F1FF254B234805241C700022BF
:100C800041F69A11BDE83840FDF7EEBD0020FCF7B3
:100C9000D7FF1E4B07221A700024ADE60220FCF796
:100CA000DBFF184B00221A70A6E6FCF7E1FF76E79F
:100CB000FCF7C6FF43F2333195E7FCF7D9FF5BE75A
:100CC000FCF7D6FFF3E6FCF7D3FF06E7FCF7D0FF0F
:100CD0007BE7FCF7B5FF41F69A11BBE7FCF7B0FFE5
:100CE00043F2333141F69A13022D08BF194691E7BA
:100CF000FCF7A6FFBFE700247EE600BF24300020FB
:100D000028300020D62F00202C300020503000202A
:100D1000D82F002030B5204B204A1960830783B0BC
:100D2000106000F0010412D51D4B1E480E250F2245
:100D300010211D701125DA70997140F2666204214C
:100D40005D72FDF787F8A8B1F4B903B030BD74B98E
:100D5000154A16480021FDF775FD0028F5D1144A03
:100D60001448012103B0BDE83040FDF76BBDFCF72E
:100D7000BDFFEDE7FDF7C4F80028E5D101460E4AB6
:100D80000E48FDF75FFD1CB10190FCF7AFFF019825
:100D90000028DDD003B030BD4C30002024300020CE
:100DA00018300020981E030009070300C01E03002E
:100DB00031060300B81E0300D9060300BC1E030061
:100DC000032811D8012A0BD0012919D00ED30229EA
:100DD0000AD10E4B00EB4000034400205A707047CC
:100DE00001290AD00022EFE707207047074B00EBEC
:100DF0004000034400209A70704700F10E02D2B206
:100E000000EB400301490020CA547047183000200D
:100E1000184B90F82C201B789A4200D07047164B44
:100E20001B780BB1402BF9D110B590F82D30082B61
:100E300005D0802B02D1114C217881B110BD002347
:100E40000E4C19460A2203202370FFF7B9FF07282A
:100E5000F4D00028F2D0BDE81040FDF767B80122B9
:100E60000320FFF7ADFF012307282370E6D00028F9
:100E7000E4D0F0E71526002058300020593000203B
:100E800010B50C4B0C4C0D4A1B78207011703BB9FF
:100E900019460A220320FFF793FF072807D010BD49
:100EA000012200210320FFF78BFF0728F7D1002044
:100EB00010BD00BF593000201526002058300020FA
:100EC0000649074A074B9B1A03DD043BC858D0501C
:100ED000FBDC00F013F8FCF7B3F900005821030025
:100EE000F82500209C280020FEE7FEE7FEE7FEE74D
:100EF000FEE7FEE7FEE7FEE7FEE7FEE730B4AF4BB6
:100F00001B78062B1BD0AE4AD2F8883043F470030E
:100F1000C2F88830BFF34F8FBFF36F8F4FF01023AD
:100F2000D3F80022002AC0F27381D3F80432002BD8
:100F3000C0F26E81A34BA44A1A6030BC7047A34B29
:100F40001B681D07DFD1A24B1B6803F0F002302A9B
:100F500000F08E8003F0E003402B00F089809C4B72
:100F60001B6803F0F003302B00F0FB80984B1B68EC
:100F700003F0F002302A46D003F0E003402B42D0C9
:100F8000934B1B6803F0F003302B00F0F880904B7C
:100F90001B6803F0F002302A56D003F0E003402B28
:100FA00052D08B4B1B6803F0F003302B00F0F7801E
:100FB000874B1B6803F0F003302B69D0844B1B6810
:100FC00003F0F003502B7AD0814B1B6803F0F00242
:100FD000302A28D003F0E003402B24D07C4B1B6840
:100FE00003F0F002302A03D003F0E003402B8AD153
:100FF0004FF08043D3F80024D20744BF6FF00102C2
:10100000C3F800247FE7734B6C4A1B68127872495F
:10101000C3F34233062A0B6048D16C4B1B68190797
:101020007FF471AFACE76D4A644B12681B786C4972
:1010300002F04F02062B0A607FF465AF634B1B681A
:1010400019077FF460AFC9E74FF080430022C3F86F
:101050000C21C3F81021C3F83825584B1B78062BF8
:101060007FF451AF594B1B681B077FF44CAF98E7D7
:101070005C4B524A1B6812785B49C3F30423062A6F
:101080000B60EAD1514B1B681C077FF43CAF66E74D
:10109000564C4A4A564912785648574B0525256002
:1010A00001250D6000243F2104601960062A7FF4A9
:1010B0002AAF464B1B681C077FF425AF7EE74FF035
:1010C00080534E4AD3F80414C2F82015D3F80814FC
:1010D000C2F82415D3F80C14C2F82815D3F810144C
:1010E000C2F82C15D3F81414C2F83015D3F818141C
:1010F000C2F83415D3F81C14C2F84015D3F82014E4
:10110000C2F84415D3F82414C2F84815D3F82814AB
:10111000C2F84C15D3F82C14C2F85015D3F830147B
:10112000C2F85415D3F83414C2F86015D3F8381443
:10113000C2F86415D3F83C14C2F86815D3F840140B
:101140001E48C2F86C15D3F844140378C2F8701521
:10115000062B7FF4D8AE1D4B1B6818077FF4D3AE67
:1011600032E7164B264A1B7826491160062B7FF47E
:10117000CAAE164B1B6818077FF4C5AEF6E62249C7
:101180000E4BCA681B7822F08072062BCA607FF46F
:10119000BAAE0E4B1B681A077FF4B5AEF7E6074BE5
:1011A0001A4A1B780321062B11607FF4ACAE074B63
:1011B0001B681D077FF4A7AEFAE600BFE00F00F042
:1011C00000ED00E0182600200090D003E40F00F0AE
:1011D000E80F00F0440200103C05004058020010E7
:1011E000E40E00402403001040350140105600403A
:1011F00088560040185600401456004000C0004079
:1012000074C007400DF0ADBAF0ED00E0A00500405D
:10121000184B0122C3F80425D3F80024002AFBD080
:101220004FF0102315221349C3F80022D1F80034DF
:10123000002BFBD04FF0102215210E4BC2F80412E8
:10124000D3F80024002AFBD000220A49C3F8042561
:10125000D1F80034002BFBD0BFF34F8F0649074B6A
:10126000CA6802F4E0621343CB60BFF34F8F00BF44
:10127000FDE700BF00E0014000ED00E00400FA05DA
:1012800010DF704770B52E4D2B7884B0002B53D1F2
:101290002C4E2D49012302A83370FEF7BFF8039BA3
:1012A000002B3FD1294902A8FEF7B8F8039B4BB1A8
:1012B000D3E900210020904702A8FEF7B9F8039B6C
:1012C000002BF5D1224B234A1B68234904A840F880
:1012D0000C3DFFF7D5FF044658BB204A204B107049
:1012E0003070E02201214FF48000297083F816232A
:1012F000164983F81523186002A8FEF78FF8039BA0
:10130000BBB1D3E900210120904702A8FEF790F875
:10131000039B002BF5D10CE002A8FEF789F8039B94
:10132000002BBFD0D3E90021002090470028F3D143
:101330000446204604B070BD0824204604B070BDA9
:101340005B3000205A300020F01E0300081F03000D
:10135000C41E0300C81E03004DDF02005C300020E5
:1013600000E100E000B583B068460849FEF756F892
:10137000019B43B1D3E9002090476846FEF758F837
:10138000019B002BF6D103B05DF804FBFC1E0300AB
:10139000C1DF7047FADF704710B5104C8EB002AA5B
:1013A0000DF135010DA8FFF7F3FF88B92146684616
:1013B000FEF734F8019B002BF1D0D3E9002102A8FD
:1013C00090476846FEF734F8019B002BF5D1E6E71D
:1013D000052801D0FCF7AAFD0EB010BD281F0300A0
:1013E00000B5064B93E8070085B001AB83E8070022
:1013F0001846FFF7CFFF05B05DF804FB1C1F030084
:10140000034B04491888000440F00300FCF7C0B9FE
:101410003C280020641F0300034B04491888000483
:1014200040F00300FCF7B4B93C280020401F030043
:1014300008B500224FF420310448FDF715FA00B931
:1014400008BDBDE80840FCF771BD00BF00310020B9
:1014500008B500224FF4A0210448FDF705FA00B9B1
:1014600008BDBDE80840FCF761BD00BFE0300020CA
:1014700008B5074A07480021FDF7E4F908B1FCF771
:1014800055FD054A05480021BDE80840FDF7DAB9D9
:1014900001140300801F030019140300601F0300E0
:1014A000014B1878704700BF2031002070B418B18C
:1014B000012862D070BC70474FF0A0424FF400602A
:1014C0004FF480544FF400556049C2F80C05C2F83F
:1014D0000C45C2F80C555E4B09685E4E00BF00BF5C
:1014E00000BF00BF00BF00BF00BF00BFB1422FD090
:1014F00000BF00BF00BF00BF00BF00BF00BF00BFF4
:1015000000BF00BF00BF00BF00BF00BF00BF00BFE3
:1015100000BF00BF00BF00BF00BF00BF00BF00BFD3
:1015200000BF00BF00BF00BF00BF00BF00BF00BFC3
:1015300000BF00BF00BF00BF00BF00BF00BF00BFB3
:1015400000BF00BF00BF00BF00BF00BF00BF00BFA3
:10155000013BC3D140490B7843B1012B6DD0022B25
:1015600008D10323C2F808550B7003E00123C2F829
:1015700008050B7070BCFFF75BBF4FF0A0424FF443
:1015800000654FF480544FF400563049C2F80C55B2
:10159000C2F80C45C2F80C652D4B09682D4E00BFF2
:1015A00000BF00BF00BF00BF00BF00BF00BFB1420F
:1015B0002FD000BF00BF00BF00BF00BF00BF00BFF3
:1015C00000BF00BF00BF00BF00BF00BF00BF00BF23
:1015D00000BF00BF00BF00BF00BF00BF00BF00BF13
:1015E00000BF00BF00BF00BF00BF00BF00BF00BF03
:1015F00000BF00BF00BF00BF00BF00BF00BF00BFF3
:1016000000BF00BF00BF00BF00BF00BF00BF00BFE2
:1016100000BF013BC3D110490B78032B08D0022B2C
:1016200010D0012B04BF00230B7070BCFFF710BF5C
:101630000223C2F808450B70F7E70223C2F80845F9
:101640000B7097E7C2F808550870EEE718260020DF
:1016500090D003000024F40020310020042900D998
:101660007047407B00F06CB810B5FFF70BFE98BBDD
:10167000FFF7B6FE68BB0020FEF774FF08B1FCF769
:1016800055FC174A17491848FEF7DAFEF0B9164814
:10169000FEF7E6FEB8B9FEF7B9FF08B1FCF746FC65
:1016A000114C00212078FFF7EBFB48B9207800218E
:1016B000FEF7A0FF00B910BDBDE81040FCF736BC36
:1016C000FCF734FCF2E7FCF731FCE4E7FCF72EFC16
:1016D000DDE7FCF72BFCCEE7FCF728FCC8E700BFF2
:1016E0005D160300841F030024310020704700BFF3
:1016F00008B50020FBF7E0FFC8B9FBF7C7FE0D4BAC
:101700000D491888000440F00300FCF741F8FCF78D
:10171000D9FF48B909490020FFF7FCFA00B908BD14
:10172000BDE80840FCF702BCFCF700FCF2E7FCF760
:10173000FDFBE2E73C280020901F0300ED160300AC
:1017400008B507EE900A9FED2C7AF8EE676A2DED4A
:10175000028B86EE878ADFED297A28EE278AFFF74B
:101760009FFE80B9DFED267AB4EEE78AF1EE10FA3B
:1017700002DABDEC028B08BDBDEC028B0020BDE897
:101780000840FFF793BEFFF78BFE012814D1DFED71
:101790001D7AB4EEE78AF1EE10FAEDDADFED187A91
:1017A000B4EEE78AF1EE10FAE3D5BDEC028B01202E
:1017B000BDE80840FFF77ABEFFF772FE02280ED19F
:1017C000DFED117AB4EEE78AF1EE10FAD4DADFED4C
:1017D0000D7AB4EEE78AF1EE10FACAD5E5E7FFF725
:1017E0005FFE0328C5D1DFED087AB4EEE78AF1EE9B
:1017F00010FABED5D9E700BF000018430000C84268
:1018000000007042000096420000AA4208B5FFF7AF
:101810006FFFFFF729FFFFF72BFE234E234D244CCC
:10182000FCF77CF80028FBD13268234600BF00BFDC
:1018300000BF00BF00BF00BF00BF00BFAA422FD043
:1018400000BF00BF00BF00BF00BF00BF00BF00BFA0
:1018500000BF00BF00BF00BF00BF00BF00BF00BF90
:1018600000BF00BF00BF00BF00BF00BF00BF00BF80
:1018700000BF00BF00BF00BF00BF00BF00BF00BF70
:1018800000BF00BF00BF00BF00BF00BF00BF00BF60
:1018900000BF00BF00BF00BF00BF00BF00BF00BF50
:1018A000013BC3D1BCE700BF182600200024F40090
:1018B00040420F0008B5074B044613B10021AFF3B7
:1018C0000080054B1868836A03B19847204600F0F2
:1018D00071F800BF00000000A81F030070B50D4E96
:1018E0000D4CA41BA4100025A54209D10B4E0C4C95
:1018F00000F0E2F9A41BA4100025A54205D170BD9B
:1019000056F8253098470135EEE756F825309847C8
:101910000135F2E7EC270020EC270020EC2700201F
:10192000F0270020044B054A1B681B6A002B08BFE8
:101930001346D3F8EC0070471C26002080260020B8
:1019400082B001B901A942B14BB113780B60127892
:10195000101C18BF012002B070471046FBE76FF063
:101960000100F8E710B5431E0A44914200D110BDB2
:1019700011F8014B03F8014FF7E702440346934285
:1019800000D1704703F8011BF9E7034613F8012B58
:10199000002AFBD1181A0138704749B1FF2A85BFC8
:1019A0008A2303600A704FF0FF3098BF0120704710
:1019B00008467047FEE700BF53B94AB9002908BF7F
:1019C00000281CBF4FF0FF314FF0FF3000F072B91C
:1019D000ADF1080C6DE904CE00F006F8DDF804E086
:1019E000DDE9022304B070472DE9F047089E044664
:1019F0008846002B4BD18A42154667D9B2FA82F24B
:101A00004AB1C2F1200701FA02F320FA07F7954024
:101A100047EA030894404FEA154E230CB8FBFEF743
:101A20001FFA85FC0EFB178843EA084307FB0CF1FD
:101A3000994209D9EB1807F1FF3080F01B819942D8
:101A400040F21881023F2B445B1AA4B2B3FBFEF0B4
:101A50000EFB103344EA034400FB0CFCA44509D9F7
:101A60002C1900F1FF3380F00781A44540F2048176
:101A700002382C4440EA0740A4EB0C0400271EB1B6
:101A8000D4400023C6E900433946BDE8F0878B42C5
:101A900009D9002E00F0EB800027C6E90001384686
:101AA0003946BDE8F087B3FA83F7002F47D18B4260
:101AB00002D3824200F2FA80841A61EB0303012010
:101AC0009846002EE0D0C6E90048DDE702B9FFDE07
:101AD000B2FA82F2002A40F08F80491B4FEA154E7D
:101AE0001FFA85F80127B1FBFEFC230C0EFB1C112D
:101AF00043EA014308FB0CF1994207D9EB180CF1BA
:101B0000FF3002D2994200F2CD808446591AA3B226
:101B1000B1FBFEF00EFB101443EA044408FB00F88E
:101B2000A04507D92C1900F1FF3302D2A04500F2DD
:101B3000B6801846A4EB080440EA0C409FE7C7F1C2
:101B4000200CBB4022FA0CFE4EEA030E01FA07F409
:101B500020FA0CF521FA0CF34FEA1E482543B3FB9B
:101B6000F8F92C0C08FB19331FFA8EFA44EA0343E8
:101B700009FB0AF49C4202FA07F200FA07F10BD9BA
:101B80001EEB030309F1FF3080F087809C4240F296
:101B90008480A9F1020973441B1BADB2B3FBF8F0BA
:101BA00008FB103345EA034400FB0AFAA24508D9B2
:101BB0001EEB040400F1FF336BD2A24569D9023851
:101BC000744440EA0940A0FB0289A4EB0A044C4596
:101BD000C2464B4654D351D0002E69D0B1EB0A0512
:101BE00064EB030404FA0CFCFD40FC404CEA0505E0
:101BF000C6E90054002747E7C2F1200320FA03F7A3
:101C0000954001FA02F021FA03F34FEA154E3843EA
:101C1000010CB3FBFEF71FFA85F80EFB173341EA00
:101C2000034107FB08F38B4204FA02F407D9691851
:101C300007F1FF3C2FD28B422DD9023F2944CB1A0A
:101C400081B2B3FBFEF00EFB103341EA034100FB0F
:101C500008F38B4207D9691800F1FF3C17D28B4279
:101C600015D902382944C91A40EA07473BE73746E5
:101C7000304609E70746E7E61846FBE64145ABD2A2
:101C8000B8EB020A69EB0E0201381346A4E760467E
:101C9000E9E7184695E76746D1E781467CE70238D1
:101CA0002C4447E7ACF1020C2B442FE7384608E7F9
:101CB0003746E9E6704700BFF8B500BFF8BC08BC7E
:101CC0009E467047F8B500BFF8BC08BC9E467047FA
:101CD000FFFFFFFFFFFFFFFFFFFFFFFFFFFFFFFF14
:101CE00000000000000000000000D6010701000015
:101CF000F1D30200A9D30200A5D30200202D0020B9
:101D0000E82D0020F02D0020282D002018000000D4
:101D1000617070005C1D03007C1D0300841D0300C6
:101D20008C1D0300941D03009C1D0300A41D0300D3
:101D3000AC1D0300B41D03002025303278000000E4
:101D4000202020007C000000256300002573000097
:101D50003C25733E2025733A200000001B5B306D4C
:101D6000000000000D0A000000000000BC1D030080
:101D7000C41D0300CC1D0300D41D03001B5B313BBD
:101D800033306D001B5B313B33316D001B5B313BEE
:101D900033326D001B5B313B33336D001B5B313BDA
:101DA00033346D001B5B313B33356D001B5B313BC6
:101DB00033366D001B5B313B33376D006572726FDC
:101DC000720000007761726E696E6700696E666FFF
:101DD00000000000646562756700000011121314B2
:101DE000F82D0020466174616C206572726F72007C
:101DF00053797374656D207265736574000000001B
:101E0000686172646661756C7400000062616C6C7C
:101E10006F63000030313233343536373839414260
:101E2000434445467077725F6D676D740000000033
:101E30006770696F7465000075617274000000005E
:101E4000616E745F68726D00616E745F68726D5F61
:101E5000706167655F300000616E745F68726D5F0E
:101E6000706167655F310000616E745F68726D5FFD
:101E7000706167655F320000616E745F68726D5FEC
:101E8000706167655F330000616E745F68726D5FDB
:101E9000706167655F3400000D00030039060300C0
:101EA0000E000300390603000F000300390603008B
:101EB0001000030039060300D82F0020F82F00205F
:101EC0002C30002001000007333833312D353231FA
:101ED000642D376466392D323464382D6566663377
:101EE0002D343637622D323235662D613030650043
:101EF0004821030048210300080000004821030096
:101F0000502103000800000048210300482103007D
:101F1000080000006E72665F7364680001002000B4
:101F20006030002080000000BC200300D4200300AB
:101F3000080000006E72665F7364685F616E740013
:101F40005374657020646F776E206465626F756E80
:101F500063652074696D657220646F6E65000000B2
:101F6000E030002053746570207570206465626FE6
:101F7000756E63652074696D657220646F6E6500AF
:101F8000003100200000003900780000861F0000AA
:101F90004C6F6767696E6720736574757020636F37
:101FA0006D706C6574650000202600204300504F62
:101FB000534958002E0000202020202020202020DF
:101FC00028282828282020202020202020202020E9
:101FD0002020202020202088101010101010101019
:101FE000101010101010100404040404040404045D
:101FF00004101010101010104141414141410101E5
:1020000001010101010101010101010101010101C0
:1020100001011010101010104242424242420202CE
:102020000202020202020202020202020202020290
:10203000020210101010200000000000000000003C
:102040000000000000000000000000000000000090
:102050000000000000000000000000000000000080
:102060000000000000000000000000000000000070
:102070000000000000000000000000000000000060
:102080000000000000000000000000000000000050
:102090000000000000000000000000000000000040
:1020A0000000000000000000000000000000000030
:0C20B00000000000000000000000000024
:1020BC008505030000000000110E03000000000065
:0820CC00690403002431002027
:0420D400710503008F
:1020D800401E030000000000481E0300000000002E
:1020E800581E030000000000681E030000000000E6
:1020F800781E030000000000881E03000000000096
:10210800101D0300000003000C1E03000000000067
:10211800301E030000000000001E03000000030042
:10212800141F030000000300341F03000000030015
:10213800241E030000000000381E030000000000F9
:082148009913030000000000E0
:08215000F0B0FF7F0100000068
:102158000020004000000000F01C03000000000008
:1021680000000000B9A521FBBD72C345FFFF0000B8
:102178000090D0032026002000000000000000008E
:102188000000000000000000000000000000000047
:102198000000000000000000000000000000000037
:1021A8000000000000000000000000000000000027
:1021B8000000000000000000000000000000000017
:1021C8000000000000000000000000000000000007
:1021D80000000000000000004300000000000000B4
:1021E80000000000000000000000000000000000E7
:1021F8000000000000000000430000000000000094
:1022080000000000000000000000000000000000C6
:102218000000000000000000430000000000000073
:1022280000000000000000000000000000000000A6
:102238000000000000000000430000000000000053
:102248000000000000000000000000000000000086
:102258000000000000000000430000000000000033
:102268000000000000000000000000000000000066
:102278000000000000000000430000000000000013
:102288000000000000000000000000000000000046
:1022980000000000000000004300000000000000F3
:1022A8000000000000000000000000000000000026
:1022B80000000000000000009B1903004119030002
:1022C80000000000B61F0300B41F0300B51F030081
:1022D800B51F0300B51F0300B51F0300B51F03009A
:1022E800B51F0300B51F0300B51F0300B51F03008A
:1022F800FFFFFFFFFFFFFFFFFFFFFFFFFFFF0000E4
:10230800010041534349490000000000000000005B
:1023180000000000000000000000000000000000B5
:10232800000041534349490000000000000000003C
:102338000000000000000000000000000000000095
:0C2348000000000025D2020001D20200BB
:102354000000000000000000000000000000000079
:102364000000000000000000000000000000000069
:102374000000000000000000000000000000000059
:102384000000000000000000000000000000000049
:102394000000000000000000000000000000000039
:1023A4000000000000000000000000000000000029
:1023B4000000000000000000000000000000000019
:1023C4000000000000000000000000000000000009
:1023D40000000000000000000000000000000000F9
:1023E40000000000000000000000000000000000E9
:0823F4000000000000000000E1
:0400000330000EC1FA
:00000001FF
